{
	"contracts/wallet.sol": {
		"Wallet": {
			"abi": [
				{
					"inputs": [
						{
							"internalType": "address",
							"name": "_token",
							"type": "address"
						},
						{
							"internalType": "uint256",
							"name": "_feePercentage",
							"type": "uint256"
						}
					],
					"stateMutability": "nonpayable",
					"type": "constructor"
				},
				{
					"inputs": [
						{
							"internalType": "address",
							"name": "owner",
							"type": "address"
						}
					],
					"name": "OwnableInvalidOwner",
					"type": "error"
				},
				{
					"inputs": [
						{
							"internalType": "address",
							"name": "account",
							"type": "address"
						}
					],
					"name": "OwnableUnauthorizedAccount",
					"type": "error"
				},
				{
					"anonymous": false,
					"inputs": [
						{
							"indexed": true,
							"internalType": "address",
							"name": "owner",
							"type": "address"
						},
						{
							"indexed": true,
							"internalType": "address",
							"name": "spender",
							"type": "address"
						},
						{
							"indexed": false,
							"internalType": "uint256",
							"name": "value",
							"type": "uint256"
						}
					],
					"name": "Approval",
					"type": "event"
				},
				{
					"anonymous": false,
					"inputs": [
						{
							"indexed": true,
							"internalType": "address",
							"name": "from",
							"type": "address"
						},
						{
							"indexed": false,
							"internalType": "uint256",
							"name": "amount",
							"type": "uint256"
						}
					],
					"name": "Deposit",
					"type": "event"
				},
				{
					"anonymous": false,
					"inputs": [
						{
							"indexed": true,
							"internalType": "address",
							"name": "previousOwner",
							"type": "address"
						},
						{
							"indexed": true,
							"internalType": "address",
							"name": "newOwner",
							"type": "address"
						}
					],
					"name": "OwnershipTransferred",
					"type": "event"
				},
				{
					"anonymous": false,
					"inputs": [
						{
							"indexed": true,
							"internalType": "address",
							"name": "from",
							"type": "address"
						},
						{
							"indexed": true,
							"internalType": "address",
							"name": "to",
							"type": "address"
						},
						{
							"indexed": false,
							"internalType": "uint256",
							"name": "amount",
							"type": "uint256"
						}
					],
					"name": "Transfer",
					"type": "event"
				},
				{
					"anonymous": false,
					"inputs": [
						{
							"indexed": true,
							"internalType": "address",
							"name": "to",
							"type": "address"
						},
						{
							"indexed": false,
							"internalType": "uint256",
							"name": "amount",
							"type": "uint256"
						},
						{
							"indexed": false,
							"internalType": "uint256",
							"name": "fee",
							"type": "uint256"
						}
					],
					"name": "Withdraw",
					"type": "event"
				},
				{
					"inputs": [
						{
							"internalType": "address",
							"name": "_owner",
							"type": "address"
						},
						{
							"internalType": "address",
							"name": "_spender",
							"type": "address"
						}
					],
					"name": "allowance",
					"outputs": [
						{
							"internalType": "uint256",
							"name": "",
							"type": "uint256"
						}
					],
					"stateMutability": "view",
					"type": "function"
				},
				{
					"inputs": [
						{
							"internalType": "address",
							"name": "",
							"type": "address"
						},
						{
							"internalType": "address",
							"name": "",
							"type": "address"
						}
					],
					"name": "allowed",
					"outputs": [
						{
							"internalType": "uint256",
							"name": "",
							"type": "uint256"
						}
					],
					"stateMutability": "view",
					"type": "function"
				},
				{
					"inputs": [
						{
							"internalType": "address",
							"name": "_spender",
							"type": "address"
						},
						{
							"internalType": "uint256",
							"name": "_amount",
							"type": "uint256"
						}
					],
					"name": "approve",
					"outputs": [],
					"stateMutability": "nonpayable",
					"type": "function"
				},
				{
					"inputs": [
						{
							"internalType": "address",
							"name": "",
							"type": "address"
						}
					],
					"name": "balances",
					"outputs": [
						{
							"internalType": "uint256",
							"name": "",
							"type": "uint256"
						}
					],
					"stateMutability": "view",
					"type": "function"
				},
				{
					"inputs": [
						{
							"internalType": "uint256",
							"name": "_amount",
							"type": "uint256"
						}
					],
					"name": "deposit",
					"outputs": [],
					"stateMutability": "nonpayable",
					"type": "function"
				},
				{
					"inputs": [],
					"name": "feePercentage",
					"outputs": [
						{
							"internalType": "uint256",
							"name": "",
							"type": "uint256"
						}
					],
					"stateMutability": "view",
					"type": "function"
				},
				{
					"inputs": [],
					"name": "getBalance",
					"outputs": [
						{
							"internalType": "uint256",
							"name": "",
							"type": "uint256"
						}
					],
					"stateMutability": "view",
					"type": "function"
				},
				{
					"inputs": [],
					"name": "owner",
					"outputs": [
						{
							"internalType": "address",
							"name": "",
							"type": "address"
						}
					],
					"stateMutability": "view",
					"type": "function"
				},
				{
					"inputs": [],
					"name": "renounceOwnership",
					"outputs": [],
					"stateMutability": "nonpayable",
					"type": "function"
				},
				{
					"inputs": [
						{
							"internalType": "uint256",
							"name": "_newFeePercentage",
							"type": "uint256"
						}
					],
					"name": "setFeePercentage",
					"outputs": [],
					"stateMutability": "nonpayable",
					"type": "function"
				},
				{
					"inputs": [],
					"name": "token",
					"outputs": [
						{
							"internalType": "contract IERC20",
							"name": "",
							"type": "address"
						}
					],
					"stateMutability": "view",
					"type": "function"
				},
				{
					"inputs": [
						{
							"internalType": "address",
							"name": "_to",
							"type": "address"
						},
						{
							"internalType": "uint256",
							"name": "_amount",
							"type": "uint256"
						}
					],
					"name": "transfer",
					"outputs": [],
					"stateMutability": "nonpayable",
					"type": "function"
				},
				{
					"inputs": [
						{
							"internalType": "address",
							"name": "_from",
							"type": "address"
						},
						{
							"internalType": "address",
							"name": "_to",
							"type": "address"
						},
						{
							"internalType": "uint256",
							"name": "_amount",
							"type": "uint256"
						}
					],
					"name": "transferFrom",
					"outputs": [],
					"stateMutability": "nonpayable",
					"type": "function"
				},
				{
					"inputs": [
						{
							"internalType": "address",
							"name": "newOwner",
							"type": "address"
						}
					],
					"name": "transferOwnership",
					"outputs": [],
					"stateMutability": "nonpayable",
					"type": "function"
				},
				{
					"inputs": [
						{
							"internalType": "address",
							"name": "_to",
							"type": "address"
						},
						{
							"internalType": "uint256",
							"name": "_amount",
							"type": "uint256"
						}
					],
					"name": "withdraw",
					"outputs": [],
					"stateMutability": "nonpayable",
					"type": "function"
				}
			],
			"devdoc": {
				"errors": {
					"OwnableInvalidOwner(address)": [
						{
							"details": "The owner is not a valid owner account. (eg. `address(0)`)"
						}
					],
					"OwnableUnauthorizedAccount(address)": [
						{
							"details": "The caller account is not authorized to perform an operation."
						}
					]
				},
				"kind": "dev",
				"methods": {
					"owner()": {
						"details": "Returns the address of the current owner."
					},
					"renounceOwnership()": {
						"details": "Leaves the contract without owner. It will not be possible to call `onlyOwner` functions. Can only be called by the current owner. NOTE: Renouncing ownership will leave the contract without an owner, thereby disabling any functionality that is only available to the owner."
					},
					"transferOwnership(address)": {
						"details": "Transfers ownership of the contract to a new account (`newOwner`). Can only be called by the current owner."
					}
				},
				"version": 1
			},
			"evm": {
				"assembly": "    /* \"contracts/wallet.sol\":179:3616  contract Wallet is Ownable{... */\n  mstore(0x40, 0x80)\n    /* \"contracts/wallet.sol\":689:907  constructor(address _token, uint256 _feePercentage) Ownable(msg.sender){... */\n  callvalue\n  dup1\n  iszero\n  tag_1\n  jumpi\n  0x00\n  dup1\n  revert\ntag_1:\n  pop\n  mload(0x40)\n  sub(codesize, bytecodeSize)\n  dup1\n  bytecodeSize\n  dup4\n  codecopy\n  dup2\n  dup2\n  add\n  0x40\n  mstore\n  dup2\n  add\n  swap1\n  tag_2\n  swap2\n  swap1\n  tag_3\n  jump\t// in\ntag_2:\n    /* \"contracts/wallet.sol\":749:759  msg.sender */\n  caller\n    /* \"@openzeppelin/contracts/access/Ownable.sol\":1297:1298  0 */\n  0x00\n    /* \"@openzeppelin/contracts/access/Ownable.sol\":1273:1299  initialOwner == address(0) */\n  0xffffffffffffffffffffffffffffffffffffffff\n  and\n    /* \"@openzeppelin/contracts/access/Ownable.sol\":1273:1285  initialOwner */\n  dup2\n    /* \"@openzeppelin/contracts/access/Ownable.sol\":1273:1299  initialOwner == address(0) */\n  0xffffffffffffffffffffffffffffffffffffffff\n  and\n  sub\n    /* \"@openzeppelin/contracts/access/Ownable.sol\":1269:1364  if (initialOwner == address(0)) {... */\n  tag_7\n  jumpi\n    /* \"@openzeppelin/contracts/access/Ownable.sol\":1350:1351  0 */\n  0x00\n    /* \"@openzeppelin/contracts/access/Ownable.sol\":1322:1353  OwnableInvalidOwner(address(0)) */\n  mload(0x40)\n  0x1e4fbdf700000000000000000000000000000000000000000000000000000000\n  dup2\n  mstore\n  0x04\n  add\n  tag_8\n  swap2\n  swap1\n  tag_9\n  jump\t// in\ntag_8:\n  mload(0x40)\n  dup1\n  swap2\n  sub\n  swap1\n  revert\n    /* \"@openzeppelin/contracts/access/Ownable.sol\":1269:1364  if (initialOwner == address(0)) {... */\ntag_7:\n    /* \"@openzeppelin/contracts/access/Ownable.sol\":1373:1405  _transferOwnership(initialOwner) */\n  tag_10\n    /* \"@openzeppelin/contracts/access/Ownable.sol\":1392:1404  initialOwner */\n  dup2\n    /* \"@openzeppelin/contracts/access/Ownable.sol\":1373:1391  _transferOwnership */\n  shl(0x20, tag_11)\n    /* \"@openzeppelin/contracts/access/Ownable.sol\":1373:1405  _transferOwnership(initialOwner) */\n  0x20\n  shr\n  jump\t// in\ntag_10:\n    /* \"@openzeppelin/contracts/access/Ownable.sol\":1225:1412  constructor(address initialOwner) {... */\n  pop\n    /* \"contracts/wallet.sol\":797:798  0 */\n  0x00\n    /* \"contracts/wallet.sol\":779:799  _token != address(0) */\n  0xffffffffffffffffffffffffffffffffffffffff\n  and\n    /* \"contracts/wallet.sol\":779:785  _token */\n  dup3\n    /* \"contracts/wallet.sol\":779:799  _token != address(0) */\n  0xffffffffffffffffffffffffffffffffffffffff\n  and\n  sub\n    /* \"contracts/wallet.sol\":771:825  require(_token != address(0), \"Invalid token address\") */\n  tag_13\n  jumpi\n  mload(0x40)\n  0x08c379a000000000000000000000000000000000000000000000000000000000\n  dup2\n  mstore\n  0x04\n  add\n  tag_14\n  swap1\n  tag_15\n  jump\t// in\ntag_14:\n  mload(0x40)\n  dup1\n  swap2\n  sub\n  swap1\n  revert\ntag_13:\n    /* \"contracts/wallet.sol\":852:866  _feePercentage */\n  dup1\n    /* \"contracts/wallet.sol\":836:849  feePercentage */\n  0x03\n    /* \"contracts/wallet.sol\":836:866  feePercentage = _feePercentage */\n  dup2\n  swap1\n  sstore\n  pop\n    /* \"contracts/wallet.sol\":892:898  _token */\n  dup2\n    /* \"contracts/wallet.sol\":877:882  token */\n  0x04\n  0x00\n    /* \"contracts/wallet.sol\":877:899  token = IERC20(_token) */\n  0x0100\n  exp\n  dup2\n  sload\n  dup2\n  0xffffffffffffffffffffffffffffffffffffffff\n  mul\n  not\n  and\n  swap1\n  dup4\n  0xffffffffffffffffffffffffffffffffffffffff\n  and\n  mul\n  or\n  swap1\n  sstore\n  pop\n    /* \"contracts/wallet.sol\":689:907  constructor(address _token, uint256 _feePercentage) Ownable(msg.sender){... */\n  pop\n  pop\n    /* \"contracts/wallet.sol\":179:3616  contract Wallet is Ownable{... */\n  jump(tag_16)\n    /* \"@openzeppelin/contracts/access/Ownable.sol\":2912:3099  function _transferOwnership(address newOwner) internal virtual {... */\ntag_11:\n    /* \"@openzeppelin/contracts/access/Ownable.sol\":2985:3001  address oldOwner */\n  0x00\n    /* \"@openzeppelin/contracts/access/Ownable.sol\":3004:3010  _owner */\n  dup1\n  0x00\n  swap1\n  sload\n  swap1\n  0x0100\n  exp\n  swap1\n  div\n  0xffffffffffffffffffffffffffffffffffffffff\n  and\n    /* \"@openzeppelin/contracts/access/Ownable.sol\":2985:3010  address oldOwner = _owner */\n  swap1\n  pop\n    /* \"@openzeppelin/contracts/access/Ownable.sol\":3029:3037  newOwner */\n  dup2\n    /* \"@openzeppelin/contracts/access/Ownable.sol\":3020:3026  _owner */\n  0x00\n  dup1\n    /* \"@openzeppelin/contracts/access/Ownable.sol\":3020:3037  _owner = newOwner */\n  0x0100\n  exp\n  dup2\n  sload\n  dup2\n  0xffffffffffffffffffffffffffffffffffffffff\n  mul\n  not\n  and\n  swap1\n  dup4\n  0xffffffffffffffffffffffffffffffffffffffff\n  and\n  mul\n  or\n  swap1\n  sstore\n  pop\n    /* \"@openzeppelin/contracts/access/Ownable.sol\":3083:3091  newOwner */\n  dup2\n    /* \"@openzeppelin/contracts/access/Ownable.sol\":3052:3092  OwnershipTransferred(oldOwner, newOwner) */\n  0xffffffffffffffffffffffffffffffffffffffff\n  and\n    /* \"@openzeppelin/contracts/access/Ownable.sol\":3073:3081  oldOwner */\n  dup2\n    /* \"@openzeppelin/contracts/access/Ownable.sol\":3052:3092  OwnershipTransferred(oldOwner, newOwner) */\n  0xffffffffffffffffffffffffffffffffffffffff\n  and\n  0x8be0079c531659141344cd1fd0a4f28419497f9722a3daafe3b4186f6b6457e0\n  mload(0x40)\n  mload(0x40)\n  dup1\n  swap2\n  sub\n  swap1\n  log3\n    /* \"@openzeppelin/contracts/access/Ownable.sol\":2975:3099  {... */\n  pop\n    /* \"@openzeppelin/contracts/access/Ownable.sol\":2912:3099  function _transferOwnership(address newOwner) internal virtual {... */\n  pop\n  jump\t// out\n    /* \"#utility.yul\":88:205   */\ntag_19:\n    /* \"#utility.yul\":197:198   */\n  0x00\n    /* \"#utility.yul\":194:195   */\n  dup1\n    /* \"#utility.yul\":187:199   */\n  revert\n    /* \"#utility.yul\":334:460   */\ntag_21:\n    /* \"#utility.yul\":371:378   */\n  0x00\n    /* \"#utility.yul\":411:453   */\n  0xffffffffffffffffffffffffffffffffffffffff\n    /* \"#utility.yul\":404:409   */\n  dup3\n    /* \"#utility.yul\":400:454   */\n  and\n    /* \"#utility.yul\":389:454   */\n  swap1\n  pop\n    /* \"#utility.yul\":334:460   */\n  swap2\n  swap1\n  pop\n  jump\t// out\n    /* \"#utility.yul\":466:562   */\ntag_22:\n    /* \"#utility.yul\":503:510   */\n  0x00\n    /* \"#utility.yul\":532:556   */\n  tag_38\n    /* \"#utility.yul\":550:555   */\n  dup3\n    /* \"#utility.yul\":532:556   */\n  tag_21\n  jump\t// in\ntag_38:\n    /* \"#utility.yul\":521:556   */\n  swap1\n  pop\n    /* \"#utility.yul\":466:562   */\n  swap2\n  swap1\n  pop\n  jump\t// out\n    /* \"#utility.yul\":568:690   */\ntag_23:\n    /* \"#utility.yul\":641:665   */\n  tag_40\n    /* \"#utility.yul\":659:664   */\n  dup2\n    /* \"#utility.yul\":641:665   */\n  tag_22\n  jump\t// in\ntag_40:\n    /* \"#utility.yul\":634:639   */\n  dup2\n    /* \"#utility.yul\":631:666   */\n  eq\n    /* \"#utility.yul\":621:684   */\n  tag_41\n  jumpi\n    /* \"#utility.yul\":680:681   */\n  0x00\n    /* \"#utility.yul\":677:678   */\n  dup1\n    /* \"#utility.yul\":670:682   */\n  revert\n    /* \"#utility.yul\":621:684   */\ntag_41:\n    /* \"#utility.yul\":568:690   */\n  pop\n  jump\t// out\n    /* \"#utility.yul\":696:839   */\ntag_24:\n    /* \"#utility.yul\":753:758   */\n  0x00\n    /* \"#utility.yul\":784:790   */\n  dup2\n    /* \"#utility.yul\":778:791   */\n  mload\n    /* \"#utility.yul\":769:791   */\n  swap1\n  pop\n    /* \"#utility.yul\":800:833   */\n  tag_43\n    /* \"#utility.yul\":827:832   */\n  dup2\n    /* \"#utility.yul\":800:833   */\n  tag_23\n  jump\t// in\ntag_43:\n    /* \"#utility.yul\":696:839   */\n  swap3\n  swap2\n  pop\n  pop\n  jump\t// out\n    /* \"#utility.yul\":845:922   */\ntag_25:\n    /* \"#utility.yul\":882:889   */\n  0x00\n    /* \"#utility.yul\":911:916   */\n  dup2\n    /* \"#utility.yul\":900:916   */\n  swap1\n  pop\n    /* \"#utility.yul\":845:922   */\n  swap2\n  swap1\n  pop\n  jump\t// out\n    /* \"#utility.yul\":928:1050   */\ntag_26:\n    /* \"#utility.yul\":1001:1025   */\n  tag_46\n    /* \"#utility.yul\":1019:1024   */\n  dup2\n    /* \"#utility.yul\":1001:1025   */\n  tag_25\n  jump\t// in\ntag_46:\n    /* \"#utility.yul\":994:999   */\n  dup2\n    /* \"#utility.yul\":991:1026   */\n  eq\n    /* \"#utility.yul\":981:1044   */\n  tag_47\n  jumpi\n    /* \"#utility.yul\":1040:1041   */\n  0x00\n    /* \"#utility.yul\":1037:1038   */\n  dup1\n    /* \"#utility.yul\":1030:1042   */\n  revert\n    /* \"#utility.yul\":981:1044   */\ntag_47:\n    /* \"#utility.yul\":928:1050   */\n  pop\n  jump\t// out\n    /* \"#utility.yul\":1056:1199   */\ntag_27:\n    /* \"#utility.yul\":1113:1118   */\n  0x00\n    /* \"#utility.yul\":1144:1150   */\n  dup2\n    /* \"#utility.yul\":1138:1151   */\n  mload\n    /* \"#utility.yul\":1129:1151   */\n  swap1\n  pop\n    /* \"#utility.yul\":1160:1193   */\n  tag_49\n    /* \"#utility.yul\":1187:1192   */\n  dup2\n    /* \"#utility.yul\":1160:1193   */\n  tag_26\n  jump\t// in\ntag_49:\n    /* \"#utility.yul\":1056:1199   */\n  swap3\n  swap2\n  pop\n  pop\n  jump\t// out\n    /* \"#utility.yul\":1205:1712   */\ntag_3:\n    /* \"#utility.yul\":1284:1290   */\n  0x00\n    /* \"#utility.yul\":1292:1298   */\n  dup1\n    /* \"#utility.yul\":1341:1343   */\n  0x40\n    /* \"#utility.yul\":1329:1338   */\n  dup4\n    /* \"#utility.yul\":1320:1327   */\n  dup6\n    /* \"#utility.yul\":1316:1339   */\n  sub\n    /* \"#utility.yul\":1312:1344   */\n  slt\n    /* \"#utility.yul\":1309:1428   */\n  iszero\n  tag_51\n  jumpi\n    /* \"#utility.yul\":1347:1426   */\n  tag_52\n  tag_19\n  jump\t// in\ntag_52:\n    /* \"#utility.yul\":1309:1428   */\ntag_51:\n    /* \"#utility.yul\":1467:1468   */\n  0x00\n    /* \"#utility.yul\":1492:1556   */\n  tag_53\n    /* \"#utility.yul\":1548:1555   */\n  dup6\n    /* \"#utility.yul\":1539:1545   */\n  dup3\n    /* \"#utility.yul\":1528:1537   */\n  dup7\n    /* \"#utility.yul\":1524:1546   */\n  add\n    /* \"#utility.yul\":1492:1556   */\n  tag_24\n  jump\t// in\ntag_53:\n    /* \"#utility.yul\":1482:1556   */\n  swap3\n  pop\n    /* \"#utility.yul\":1438:1566   */\n  pop\n    /* \"#utility.yul\":1605:1607   */\n  0x20\n    /* \"#utility.yul\":1631:1695   */\n  tag_54\n    /* \"#utility.yul\":1687:1694   */\n  dup6\n    /* \"#utility.yul\":1678:1684   */\n  dup3\n    /* \"#utility.yul\":1667:1676   */\n  dup7\n    /* \"#utility.yul\":1663:1685   */\n  add\n    /* \"#utility.yul\":1631:1695   */\n  tag_27\n  jump\t// in\ntag_54:\n    /* \"#utility.yul\":1621:1695   */\n  swap2\n  pop\n    /* \"#utility.yul\":1576:1705   */\n  pop\n    /* \"#utility.yul\":1205:1712   */\n  swap3\n  pop\n  swap3\n  swap1\n  pop\n  jump\t// out\n    /* \"#utility.yul\":1718:1836   */\ntag_28:\n    /* \"#utility.yul\":1805:1829   */\n  tag_56\n    /* \"#utility.yul\":1823:1828   */\n  dup2\n    /* \"#utility.yul\":1805:1829   */\n  tag_22\n  jump\t// in\ntag_56:\n    /* \"#utility.yul\":1800:1803   */\n  dup3\n    /* \"#utility.yul\":1793:1830   */\n  mstore\n    /* \"#utility.yul\":1718:1836   */\n  pop\n  pop\n  jump\t// out\n    /* \"#utility.yul\":1842:2064   */\ntag_9:\n    /* \"#utility.yul\":1935:1939   */\n  0x00\n    /* \"#utility.yul\":1973:1975   */\n  0x20\n    /* \"#utility.yul\":1962:1971   */\n  dup3\n    /* \"#utility.yul\":1958:1976   */\n  add\n    /* \"#utility.yul\":1950:1976   */\n  swap1\n  pop\n    /* \"#utility.yul\":1986:2057   */\n  tag_58\n    /* \"#utility.yul\":2054:2055   */\n  0x00\n    /* \"#utility.yul\":2043:2052   */\n  dup4\n    /* \"#utility.yul\":2039:2056   */\n  add\n    /* \"#utility.yul\":2030:2036   */\n  dup5\n    /* \"#utility.yul\":1986:2057   */\n  tag_28\n  jump\t// in\ntag_58:\n    /* \"#utility.yul\":1842:2064   */\n  swap3\n  swap2\n  pop\n  pop\n  jump\t// out\n    /* \"#utility.yul\":2070:2239   */\ntag_29:\n    /* \"#utility.yul\":2154:2165   */\n  0x00\n    /* \"#utility.yul\":2188:2194   */\n  dup3\n    /* \"#utility.yul\":2183:2186   */\n  dup3\n    /* \"#utility.yul\":2176:2195   */\n  mstore\n    /* \"#utility.yul\":2228:2232   */\n  0x20\n    /* \"#utility.yul\":2223:2226   */\n  dup3\n    /* \"#utility.yul\":2219:2233   */\n  add\n    /* \"#utility.yul\":2204:2233   */\n  swap1\n  pop\n    /* \"#utility.yul\":2070:2239   */\n  swap3\n  swap2\n  pop\n  pop\n  jump\t// out\n    /* \"#utility.yul\":2245:2416   */\ntag_30:\n    /* \"#utility.yul\":2385:2408   */\n  0x496e76616c696420746f6b656e20616464726573730000000000000000000000\n    /* \"#utility.yul\":2381:2382   */\n  0x00\n    /* \"#utility.yul\":2373:2379   */\n  dup3\n    /* \"#utility.yul\":2369:2383   */\n  add\n    /* \"#utility.yul\":2362:2409   */\n  mstore\n    /* \"#utility.yul\":2245:2416   */\n  pop\n  jump\t// out\n    /* \"#utility.yul\":2422:2788   */\ntag_31:\n    /* \"#utility.yul\":2564:2567   */\n  0x00\n    /* \"#utility.yul\":2585:2652   */\n  tag_62\n    /* \"#utility.yul\":2649:2651   */\n  0x15\n    /* \"#utility.yul\":2644:2647   */\n  dup4\n    /* \"#utility.yul\":2585:2652   */\n  tag_29\n  jump\t// in\ntag_62:\n    /* \"#utility.yul\":2578:2652   */\n  swap2\n  pop\n    /* \"#utility.yul\":2661:2754   */\n  tag_63\n    /* \"#utility.yul\":2750:2753   */\n  dup3\n    /* \"#utility.yul\":2661:2754   */\n  tag_30\n  jump\t// in\ntag_63:\n    /* \"#utility.yul\":2779:2781   */\n  0x20\n    /* \"#utility.yul\":2774:2777   */\n  dup3\n    /* \"#utility.yul\":2770:2782   */\n  add\n    /* \"#utility.yul\":2763:2782   */\n  swap1\n  pop\n    /* \"#utility.yul\":2422:2788   */\n  swap2\n  swap1\n  pop\n  jump\t// out\n    /* \"#utility.yul\":2794:3213   */\ntag_15:\n    /* \"#utility.yul\":2960:2964   */\n  0x00\n    /* \"#utility.yul\":2998:3000   */\n  0x20\n    /* \"#utility.yul\":2987:2996   */\n  dup3\n    /* \"#utility.yul\":2983:3001   */\n  add\n    /* \"#utility.yul\":2975:3001   */\n  swap1\n  pop\n    /* \"#utility.yul\":3047:3056   */\n  dup2\n    /* \"#utility.yul\":3041:3045   */\n  dup2\n    /* \"#utility.yul\":3037:3057   */\n  sub\n    /* \"#utility.yul\":3033:3034   */\n  0x00\n    /* \"#utility.yul\":3022:3031   */\n  dup4\n    /* \"#utility.yul\":3018:3035   */\n  add\n    /* \"#utility.yul\":3011:3058   */\n  mstore\n    /* \"#utility.yul\":3075:3206   */\n  tag_65\n    /* \"#utility.yul\":3201:3205   */\n  dup2\n    /* \"#utility.yul\":3075:3206   */\n  tag_31\n  jump\t// in\ntag_65:\n    /* \"#utility.yul\":3067:3206   */\n  swap1\n  pop\n    /* \"#utility.yul\":2794:3213   */\n  swap2\n  swap1\n  pop\n  jump\t// out\n    /* \"contracts/wallet.sol\":179:3616  contract Wallet is Ownable{... */\ntag_16:\n  dataSize(sub_0)\n  dup1\n  dataOffset(sub_0)\n  0x00\n  codecopy\n  0x00\n  return\nstop\n\nsub_0: assembly {\n        /* \"contracts/wallet.sol\":179:3616  contract Wallet is Ownable{... */\n      mstore(0x40, 0x80)\n      callvalue\n      dup1\n      iszero\n      tag_1\n      jumpi\n      0x00\n      dup1\n      revert\n    tag_1:\n      pop\n      jumpi(tag_2, lt(calldatasize, 0x04))\n      shr(0xe0, calldataload(0x00))\n      dup1\n      0xa001ecdd\n      gt\n      tag_18\n      jumpi\n      dup1\n      0xdd62ed3e\n      gt\n      tag_19\n      jumpi\n      dup1\n      0xdd62ed3e\n      eq\n      tag_14\n      jumpi\n      dup1\n      0xf2fde38b\n      eq\n      tag_15\n      jumpi\n      dup1\n      0xf3fef3a3\n      eq\n      tag_16\n      jumpi\n      dup1\n      0xfc0c546a\n      eq\n      tag_17\n      jumpi\n      jump(tag_2)\n    tag_19:\n      dup1\n      0xa001ecdd\n      eq\n      tag_10\n      jumpi\n      dup1\n      0xa9059cbb\n      eq\n      tag_11\n      jumpi\n      dup1\n      0xae06c1b7\n      eq\n      tag_12\n      jumpi\n      dup1\n      0xb6b55f25\n      eq\n      tag_13\n      jumpi\n      jump(tag_2)\n    tag_18:\n      dup1\n      0x27e235e3\n      gt\n      tag_20\n      jumpi\n      dup1\n      0x27e235e3\n      eq\n      tag_6\n      jumpi\n      dup1\n      0x5c658165\n      eq\n      tag_7\n      jumpi\n      dup1\n      0x715018a6\n      eq\n      tag_8\n      jumpi\n      dup1\n      0x8da5cb5b\n      eq\n      tag_9\n      jumpi\n      jump(tag_2)\n    tag_20:\n      dup1\n      0x095ea7b3\n      eq\n      tag_3\n      jumpi\n      dup1\n      0x12065fe0\n      eq\n      tag_4\n      jumpi\n      dup1\n      0x23b872dd\n      eq\n      tag_5\n      jumpi\n    tag_2:\n      0x00\n      dup1\n      revert\n        /* \"contracts/wallet.sol\":2488:2804  function approve(address _spender, uint256 _amount) public {... */\n    tag_3:\n      tag_21\n      0x04\n      dup1\n      calldatasize\n      sub\n      dup2\n      add\n      swap1\n      tag_22\n      swap2\n      swap1\n      tag_23\n      jump\t// in\n    tag_22:\n      tag_24\n      jump\t// in\n    tag_21:\n      stop\n        /* \"contracts/wallet.sol\":1990:2088  function getBalance() public view returns (uint256) {... */\n    tag_4:\n      tag_25\n      tag_26\n      jump\t// in\n    tag_25:\n      mload(0x40)\n      tag_27\n      swap2\n      swap1\n      tag_28\n      jump\t// in\n    tag_27:\n      mload(0x40)\n      dup1\n      swap2\n      sub\n      swap1\n      return\n        /* \"contracts/wallet.sol\":2954:3483  function transferFrom(address _from, address _to, uint256 _amount) public {... */\n    tag_5:\n      tag_29\n      0x04\n      dup1\n      calldatasize\n      sub\n      dup2\n      add\n      swap1\n      tag_30\n      swap2\n      swap1\n      tag_31\n      jump\t// in\n    tag_30:\n      tag_32\n      jump\t// in\n    tag_29:\n      stop\n        /* \"contracts/wallet.sol\":212:255  mapping(address => uint256) public balances */\n    tag_6:\n      tag_33\n      0x04\n      dup1\n      calldatasize\n      sub\n      dup2\n      add\n      swap1\n      tag_34\n      swap2\n      swap1\n      tag_35\n      jump\t// in\n    tag_34:\n      tag_36\n      jump\t// in\n    tag_33:\n      mload(0x40)\n      tag_37\n      swap2\n      swap1\n      tag_28\n      jump\t// in\n    tag_37:\n      mload(0x40)\n      dup1\n      swap2\n      sub\n      swap1\n      return\n        /* \"contracts/wallet.sol\":262:324  mapping(address => mapping(address => uint256)) public allowed */\n    tag_7:\n      tag_38\n      0x04\n      dup1\n      calldatasize\n      sub\n      dup2\n      add\n      swap1\n      tag_39\n      swap2\n      swap1\n      tag_40\n      jump\t// in\n    tag_39:\n      tag_41\n      jump\t// in\n    tag_38:\n      mload(0x40)\n      tag_42\n      swap2\n      swap1\n      tag_28\n      jump\t// in\n    tag_42:\n      mload(0x40)\n      dup1\n      swap2\n      sub\n      swap1\n      return\n        /* \"@openzeppelin/contracts/access/Ownable.sol\":2293:2394  function renounceOwnership() public virtual onlyOwner {... */\n    tag_8:\n      tag_43\n      tag_44\n      jump\t// in\n    tag_43:\n      stop\n        /* \"@openzeppelin/contracts/access/Ownable.sol\":1638:1723  function owner() public view virtual returns (address) {... */\n    tag_9:\n      tag_45\n      tag_46\n      jump\t// in\n    tag_45:\n      mload(0x40)\n      tag_47\n      swap2\n      swap1\n      tag_48\n      jump\t// in\n    tag_47:\n      mload(0x40)\n      dup1\n      swap2\n      sub\n      swap1\n      return\n        /* \"contracts/wallet.sol\":333:361  uint256 public feePercentage */\n    tag_10:\n      tag_49\n      tag_50\n      jump\t// in\n    tag_49:\n      mload(0x40)\n      tag_51\n      swap2\n      swap1\n      tag_28\n      jump\t// in\n    tag_51:\n      mload(0x40)\n      dup1\n      swap2\n      sub\n      swap1\n      return\n        /* \"contracts/wallet.sol\":2096:2480  function transfer(address _to, uint256 _amount) public {... */\n    tag_11:\n      tag_52\n      0x04\n      dup1\n      calldatasize\n      sub\n      dup2\n      add\n      swap1\n      tag_53\n      swap2\n      swap1\n      tag_23\n      jump\t// in\n    tag_53:\n      tag_54\n      jump\t// in\n    tag_52:\n      stop\n        /* \"contracts/wallet.sol\":3491:3613  function setFeePercentage(uint256 _newFeePercentage) public onlyOwner {... */\n    tag_12:\n      tag_55\n      0x04\n      dup1\n      calldatasize\n      sub\n      dup2\n      add\n      swap1\n      tag_56\n      swap2\n      swap1\n      tag_57\n      jump\t// in\n    tag_56:\n      tag_58\n      jump\t// in\n    tag_55:\n      stop\n        /* \"contracts/wallet.sol\":915:1194  function deposit(uint256 _amount) public {... */\n    tag_13:\n      tag_59\n      0x04\n      dup1\n      calldatasize\n      sub\n      dup2\n      add\n      swap1\n      tag_60\n      swap2\n      swap1\n      tag_57\n      jump\t// in\n    tag_60:\n      tag_61\n      jump\t// in\n    tag_59:\n      stop\n        /* \"contracts/wallet.sol\":2812:2946  function allowance(address _owner, address _spender) public view returns (uint256) {... */\n    tag_14:\n      tag_62\n      0x04\n      dup1\n      calldatasize\n      sub\n      dup2\n      add\n      swap1\n      tag_63\n      swap2\n      swap1\n      tag_40\n      jump\t// in\n    tag_63:\n      tag_64\n      jump\t// in\n    tag_62:\n      mload(0x40)\n      tag_65\n      swap2\n      swap1\n      tag_28\n      jump\t// in\n    tag_65:\n      mload(0x40)\n      dup1\n      swap2\n      sub\n      swap1\n      return\n        /* \"@openzeppelin/contracts/access/Ownable.sol\":2543:2758  function transferOwnership(address newOwner) public virtual onlyOwner {... */\n    tag_15:\n      tag_66\n      0x04\n      dup1\n      calldatasize\n      sub\n      dup2\n      add\n      swap1\n      tag_67\n      swap2\n      swap1\n      tag_35\n      jump\t// in\n    tag_67:\n      tag_68\n      jump\t// in\n    tag_66:\n      stop\n        /* \"contracts/wallet.sol\":1202:1982  function withdraw(address _to, uint256 _amount) public {... */\n    tag_16:\n      tag_69\n      0x04\n      dup1\n      calldatasize\n      sub\n      dup2\n      add\n      swap1\n      tag_70\n      swap2\n      swap1\n      tag_23\n      jump\t// in\n    tag_70:\n      tag_71\n      jump\t// in\n    tag_69:\n      stop\n        /* \"contracts/wallet.sol\":368:387  IERC20 public token */\n    tag_17:\n      tag_72\n      tag_73\n      jump\t// in\n    tag_72:\n      mload(0x40)\n      tag_74\n      swap2\n      swap1\n      tag_75\n      jump\t// in\n    tag_74:\n      mload(0x40)\n      dup1\n      swap2\n      sub\n      swap1\n      return\n        /* \"contracts/wallet.sol\":2488:2804  function approve(address _spender, uint256 _amount) public {... */\n    tag_24:\n        /* \"contracts/wallet.sol\":2586:2587  0 */\n      0x00\n        /* \"contracts/wallet.sol\":2566:2588  _spender != address(0) */\n      0xffffffffffffffffffffffffffffffffffffffff\n      and\n        /* \"contracts/wallet.sol\":2566:2574  _spender */\n      dup3\n        /* \"contracts/wallet.sol\":2566:2588  _spender != address(0) */\n      0xffffffffffffffffffffffffffffffffffffffff\n      and\n      sub\n        /* \"contracts/wallet.sol\":2558:2616  require(_spender != address(0), \"Invalid spender address\") */\n      tag_77\n      jumpi\n      mload(0x40)\n      0x08c379a000000000000000000000000000000000000000000000000000000000\n      dup2\n      mstore\n      0x04\n      add\n      tag_78\n      swap1\n      tag_79\n      jump\t// in\n    tag_78:\n      mload(0x40)\n      dup1\n      swap2\n      sub\n      swap1\n      revert\n    tag_77:\n        /* \"contracts/wallet.sol\":2661:2668  _amount */\n      dup1\n        /* \"contracts/wallet.sol\":2629:2636  allowed */\n      0x02\n        /* \"contracts/wallet.sol\":2629:2648  allowed[msg.sender] */\n      0x00\n        /* \"contracts/wallet.sol\":2637:2647  msg.sender */\n      caller\n        /* \"contracts/wallet.sol\":2629:2648  allowed[msg.sender] */\n      0xffffffffffffffffffffffffffffffffffffffff\n      and\n      0xffffffffffffffffffffffffffffffffffffffff\n      and\n      dup2\n      mstore\n      0x20\n      add\n      swap1\n      dup2\n      mstore\n      0x20\n      add\n      0x00\n      keccak256\n        /* \"contracts/wallet.sol\":2629:2658  allowed[msg.sender][_spender] */\n      0x00\n        /* \"contracts/wallet.sol\":2649:2657  _spender */\n      dup5\n        /* \"contracts/wallet.sol\":2629:2658  allowed[msg.sender][_spender] */\n      0xffffffffffffffffffffffffffffffffffffffff\n      and\n      0xffffffffffffffffffffffffffffffffffffffff\n      and\n      dup2\n      mstore\n      0x20\n      add\n      swap1\n      dup2\n      mstore\n      0x20\n      add\n      0x00\n      keccak256\n        /* \"contracts/wallet.sol\":2629:2668  allowed[msg.sender][_spender] = _amount */\n      dup2\n      swap1\n      sstore\n      pop\n        /* \"contracts/wallet.sol\":2687:2692  token */\n      0x04\n      0x00\n      swap1\n      sload\n      swap1\n      0x0100\n      exp\n      swap1\n      div\n      0xffffffffffffffffffffffffffffffffffffffff\n      and\n        /* \"contracts/wallet.sol\":2687:2700  token.approve */\n      0xffffffffffffffffffffffffffffffffffffffff\n      and\n      0x095ea7b3\n        /* \"contracts/wallet.sol\":2701:2709  _spender */\n      dup4\n        /* \"contracts/wallet.sol\":2711:2718  _amount */\n      dup4\n        /* \"contracts/wallet.sol\":2687:2719  token.approve(_spender, _amount) */\n      mload(0x40)\n      dup4\n      0xffffffff\n      and\n      0xe0\n      shl\n      dup2\n      mstore\n      0x04\n      add\n      tag_80\n      swap3\n      swap2\n      swap1\n      tag_81\n      jump\t// in\n    tag_80:\n      0x20\n      mload(0x40)\n      dup1\n      dup4\n      sub\n      dup2\n      0x00\n      dup8\n      gas\n      call\n      iszero\n      dup1\n      iszero\n      tag_83\n      jumpi\n      returndatasize\n      0x00\n      dup1\n      returndatacopy\n      revert(0x00, returndatasize)\n    tag_83:\n      pop\n      pop\n      pop\n      pop\n      mload(0x40)\n      returndatasize\n      not(0x1f)\n      0x1f\n      dup3\n      add\n      and\n      dup3\n      add\n      dup1\n      0x40\n      mstore\n      pop\n      dup2\n      add\n      swap1\n      tag_84\n      swap2\n      swap1\n      tag_85\n      jump\t// in\n    tag_84:\n        /* \"contracts/wallet.sol\":2679:2739  require(token.approve(_spender, _amount), \"Approval failed\") */\n      tag_86\n      jumpi\n      mload(0x40)\n      0x08c379a000000000000000000000000000000000000000000000000000000000\n      dup2\n      mstore\n      0x04\n      add\n      tag_87\n      swap1\n      tag_88\n      jump\t// in\n    tag_87:\n      mload(0x40)\n      dup1\n      swap2\n      sub\n      swap1\n      revert\n    tag_86:\n        /* \"contracts/wallet.sol\":2778:2786  _spender */\n      dup2\n        /* \"contracts/wallet.sol\":2757:2796  Approval(msg.sender, _spender, _amount) */\n      0xffffffffffffffffffffffffffffffffffffffff\n      and\n        /* \"contracts/wallet.sol\":2766:2776  msg.sender */\n      caller\n        /* \"contracts/wallet.sol\":2757:2796  Approval(msg.sender, _spender, _amount) */\n      0xffffffffffffffffffffffffffffffffffffffff\n      and\n      0x8c5be1e5ebec7d5bd14f71427d1e84f3dd0314c0f7b2291e5b200ac8c7c3b925\n        /* \"contracts/wallet.sol\":2788:2795  _amount */\n      dup4\n        /* \"contracts/wallet.sol\":2757:2796  Approval(msg.sender, _spender, _amount) */\n      mload(0x40)\n      tag_89\n      swap2\n      swap1\n      tag_28\n      jump\t// in\n    tag_89:\n      mload(0x40)\n      dup1\n      swap2\n      sub\n      swap1\n      log3\n        /* \"contracts/wallet.sol\":2488:2804  function approve(address _spender, uint256 _amount) public {... */\n      pop\n      pop\n      jump\t// out\n        /* \"contracts/wallet.sol\":1990:2088  function getBalance() public view returns (uint256) {... */\n    tag_26:\n        /* \"contracts/wallet.sol\":2033:2040  uint256 */\n      0x00\n        /* \"contracts/wallet.sol\":2060:2068  balances */\n      0x01\n        /* \"contracts/wallet.sol\":2060:2080  balances[msg.sender] */\n      0x00\n        /* \"contracts/wallet.sol\":2069:2079  msg.sender */\n      caller\n        /* \"contracts/wallet.sol\":2060:2080  balances[msg.sender] */\n      0xffffffffffffffffffffffffffffffffffffffff\n      and\n      0xffffffffffffffffffffffffffffffffffffffff\n      and\n      dup2\n      mstore\n      0x20\n      add\n      swap1\n      dup2\n      mstore\n      0x20\n      add\n      0x00\n      keccak256\n      sload\n        /* \"contracts/wallet.sol\":2053:2080  return balances[msg.sender] */\n      swap1\n      pop\n        /* \"contracts/wallet.sol\":1990:2088  function getBalance() public view returns (uint256) {... */\n      swap1\n      jump\t// out\n        /* \"contracts/wallet.sol\":2954:3483  function transferFrom(address _from, address _to, uint256 _amount) public {... */\n    tag_32:\n        /* \"contracts/wallet.sol\":3057:3058  0 */\n      0x00\n        /* \"contracts/wallet.sol\":3047:3054  _amount */\n      dup2\n        /* \"contracts/wallet.sol\":3047:3058  _amount > 0 */\n      gt\n        /* \"contracts/wallet.sol\":3039:3077  require(_amount > 0, \"Invalid amount\") */\n      tag_92\n      jumpi\n      mload(0x40)\n      0x08c379a000000000000000000000000000000000000000000000000000000000\n      dup2\n      mstore\n      0x04\n      add\n      tag_93\n      swap1\n      tag_94\n      jump\t// in\n    tag_93:\n      mload(0x40)\n      dup1\n      swap2\n      sub\n      swap1\n      revert\n    tag_92:\n        /* \"contracts/wallet.sol\":3111:3112  0 */\n      0x00\n        /* \"contracts/wallet.sol\":3096:3113  _to != address(0) */\n      0xffffffffffffffffffffffffffffffffffffffff\n      and\n        /* \"contracts/wallet.sol\":3096:3099  _to */\n      dup3\n        /* \"contracts/wallet.sol\":3096:3113  _to != address(0) */\n      0xffffffffffffffffffffffffffffffffffffffff\n      and\n      sub\n        /* \"contracts/wallet.sol\":3088:3143  require(_to != address(0), \"Invalid recipient address\") */\n      tag_95\n      jumpi\n      mload(0x40)\n      0x08c379a000000000000000000000000000000000000000000000000000000000\n      dup2\n      mstore\n      0x04\n      add\n      tag_96\n      swap1\n      tag_97\n      jump\t// in\n    tag_96:\n      mload(0x40)\n      dup1\n      swap2\n      sub\n      swap1\n      revert\n    tag_95:\n        /* \"contracts/wallet.sol\":3173:3180  allowed */\n      0x02\n        /* \"contracts/wallet.sol\":3173:3187  allowed[_from] */\n      0x00\n        /* \"contracts/wallet.sol\":3181:3186  _from */\n      dup5\n        /* \"contracts/wallet.sol\":3173:3187  allowed[_from] */\n      0xffffffffffffffffffffffffffffffffffffffff\n      and\n      0xffffffffffffffffffffffffffffffffffffffff\n      and\n      dup2\n      mstore\n      0x20\n      add\n      swap1\n      dup2\n      mstore\n      0x20\n      add\n      0x00\n      keccak256\n        /* \"contracts/wallet.sol\":3173:3199  allowed[_from][msg.sender] */\n      0x00\n        /* \"contracts/wallet.sol\":3188:3198  msg.sender */\n      caller\n        /* \"contracts/wallet.sol\":3173:3199  allowed[_from][msg.sender] */\n      0xffffffffffffffffffffffffffffffffffffffff\n      and\n      0xffffffffffffffffffffffffffffffffffffffff\n      and\n      dup2\n      mstore\n      0x20\n      add\n      swap1\n      dup2\n      mstore\n      0x20\n      add\n      0x00\n      keccak256\n      sload\n        /* \"contracts/wallet.sol\":3162:3169  _amount */\n      dup2\n        /* \"contracts/wallet.sol\":3162:3199  _amount <= allowed[_from][msg.sender] */\n      gt\n      iszero\n        /* \"contracts/wallet.sol\":3154:3236  require(_amount <= allowed[_from][msg.sender], \"Not allowed to spend this amount\") */\n      tag_98\n      jumpi\n      mload(0x40)\n      0x08c379a000000000000000000000000000000000000000000000000000000000\n      dup2\n      mstore\n      0x04\n      add\n      tag_99\n      swap1\n      tag_100\n      jump\t// in\n    tag_99:\n      mload(0x40)\n      dup1\n      swap2\n      sub\n      swap1\n      revert\n    tag_98:\n        /* \"contracts/wallet.sol\":3266:3274  balances */\n      0x01\n        /* \"contracts/wallet.sol\":3266:3281  balances[_from] */\n      0x00\n        /* \"contracts/wallet.sol\":3275:3280  _from */\n      dup5\n        /* \"contracts/wallet.sol\":3266:3281  balances[_from] */\n      0xffffffffffffffffffffffffffffffffffffffff\n      and\n      0xffffffffffffffffffffffffffffffffffffffff\n      and\n      dup2\n      mstore\n      0x20\n      add\n      swap1\n      dup2\n      mstore\n      0x20\n      add\n      0x00\n      keccak256\n      sload\n        /* \"contracts/wallet.sol\":3255:3262  _amount */\n      dup2\n        /* \"contracts/wallet.sol\":3255:3281  _amount <= balances[_from] */\n      gt\n      iszero\n        /* \"contracts/wallet.sol\":3247:3306  require(_amount <= balances[_from], \"Insufficient balance\") */\n      tag_101\n      jumpi\n      mload(0x40)\n      0x08c379a000000000000000000000000000000000000000000000000000000000\n      dup2\n      mstore\n      0x04\n      add\n      tag_102\n      swap1\n      tag_103\n      jump\t// in\n    tag_102:\n      mload(0x40)\n      dup1\n      swap2\n      sub\n      swap1\n      revert\n    tag_101:\n        /* \"contracts/wallet.sol\":3338:3345  _amount */\n      dup1\n        /* \"contracts/wallet.sol\":3319:3327  balances */\n      0x01\n        /* \"contracts/wallet.sol\":3319:3334  balances[_from] */\n      0x00\n        /* \"contracts/wallet.sol\":3328:3333  _from */\n      dup6\n        /* \"contracts/wallet.sol\":3319:3334  balances[_from] */\n      0xffffffffffffffffffffffffffffffffffffffff\n      and\n      0xffffffffffffffffffffffffffffffffffffffff\n      and\n      dup2\n      mstore\n      0x20\n      add\n      swap1\n      dup2\n      mstore\n      0x20\n      add\n      0x00\n      keccak256\n      0x00\n        /* \"contracts/wallet.sol\":3319:3345  balances[_from] -= _amount */\n      dup3\n      dup3\n      sload\n      tag_104\n      swap2\n      swap1\n      tag_105\n      jump\t// in\n    tag_104:\n      swap3\n      pop\n      pop\n      dup2\n      swap1\n      sstore\n      pop\n        /* \"contracts/wallet.sol\":3373:3380  _amount */\n      dup1\n        /* \"contracts/wallet.sol\":3356:3364  balances */\n      0x01\n        /* \"contracts/wallet.sol\":3356:3369  balances[_to] */\n      0x00\n        /* \"contracts/wallet.sol\":3365:3368  _to */\n      dup5\n        /* \"contracts/wallet.sol\":3356:3369  balances[_to] */\n      0xffffffffffffffffffffffffffffffffffffffff\n      and\n      0xffffffffffffffffffffffffffffffffffffffff\n      and\n      dup2\n      mstore\n      0x20\n      add\n      swap1\n      dup2\n      mstore\n      0x20\n      add\n      0x00\n      keccak256\n      0x00\n        /* \"contracts/wallet.sol\":3356:3380  balances[_to] += _amount */\n      dup3\n      dup3\n      sload\n      tag_106\n      swap2\n      swap1\n      tag_107\n      jump\t// in\n    tag_106:\n      swap3\n      pop\n      pop\n      dup2\n      swap1\n      sstore\n      pop\n        /* \"contracts/wallet.sol\":3421:3428  _amount */\n      dup1\n        /* \"contracts/wallet.sol\":3391:3398  allowed */\n      0x02\n        /* \"contracts/wallet.sol\":3391:3405  allowed[_from] */\n      0x00\n        /* \"contracts/wallet.sol\":3399:3404  _from */\n      dup6\n        /* \"contracts/wallet.sol\":3391:3405  allowed[_from] */\n      0xffffffffffffffffffffffffffffffffffffffff\n      and\n      0xffffffffffffffffffffffffffffffffffffffff\n      and\n      dup2\n      mstore\n      0x20\n      add\n      swap1\n      dup2\n      mstore\n      0x20\n      add\n      0x00\n      keccak256\n        /* \"contracts/wallet.sol\":3391:3417  allowed[_from][msg.sender] */\n      0x00\n        /* \"contracts/wallet.sol\":3406:3416  msg.sender */\n      caller\n        /* \"contracts/wallet.sol\":3391:3417  allowed[_from][msg.sender] */\n      0xffffffffffffffffffffffffffffffffffffffff\n      and\n      0xffffffffffffffffffffffffffffffffffffffff\n      and\n      dup2\n      mstore\n      0x20\n      add\n      swap1\n      dup2\n      mstore\n      0x20\n      add\n      0x00\n      keccak256\n      0x00\n        /* \"contracts/wallet.sol\":3391:3428  allowed[_from][msg.sender] -= _amount */\n      dup3\n      dup3\n      sload\n      tag_108\n      swap2\n      swap1\n      tag_105\n      jump\t// in\n    tag_108:\n      swap3\n      pop\n      pop\n      dup2\n      swap1\n      sstore\n      pop\n        /* \"contracts/wallet.sol\":3462:3465  _to */\n      dup2\n        /* \"contracts/wallet.sol\":3446:3475  Transfer(_from, _to, _amount) */\n      0xffffffffffffffffffffffffffffffffffffffff\n      and\n        /* \"contracts/wallet.sol\":3455:3460  _from */\n      dup4\n        /* \"contracts/wallet.sol\":3446:3475  Transfer(_from, _to, _amount) */\n      0xffffffffffffffffffffffffffffffffffffffff\n      and\n      0xddf252ad1be2c89b69c2b068fc378daa952ba7f163c4a11628f55a4df523b3ef\n        /* \"contracts/wallet.sol\":3467:3474  _amount */\n      dup4\n        /* \"contracts/wallet.sol\":3446:3475  Transfer(_from, _to, _amount) */\n      mload(0x40)\n      tag_109\n      swap2\n      swap1\n      tag_28\n      jump\t// in\n    tag_109:\n      mload(0x40)\n      dup1\n      swap2\n      sub\n      swap1\n      log3\n        /* \"contracts/wallet.sol\":2954:3483  function transferFrom(address _from, address _to, uint256 _amount) public {... */\n      pop\n      pop\n      pop\n      jump\t// out\n        /* \"contracts/wallet.sol\":212:255  mapping(address => uint256) public balances */\n    tag_36:\n      mstore(0x20, 0x01)\n      dup1\n      0x00\n      mstore\n      keccak256(0x00, 0x40)\n      0x00\n      swap2\n      pop\n      swap1\n      pop\n      sload\n      dup2\n      jump\t// out\n        /* \"contracts/wallet.sol\":262:324  mapping(address => mapping(address => uint256)) public allowed */\n    tag_41:\n      mstore(0x20, 0x02)\n      dup2\n      0x00\n      mstore\n      mstore(0x20, keccak256(0x00, 0x40))\n      dup1\n      0x00\n      mstore\n      keccak256(0x00, 0x40)\n      0x00\n      swap2\n      pop\n      swap2\n      pop\n      pop\n      sload\n      dup2\n      jump\t// out\n        /* \"@openzeppelin/contracts/access/Ownable.sol\":2293:2394  function renounceOwnership() public virtual onlyOwner {... */\n    tag_44:\n        /* \"@openzeppelin/contracts/access/Ownable.sol\":1531:1544  _checkOwner() */\n      tag_111\n        /* \"@openzeppelin/contracts/access/Ownable.sol\":1531:1542  _checkOwner */\n      tag_112\n        /* \"@openzeppelin/contracts/access/Ownable.sol\":1531:1544  _checkOwner() */\n      jump\t// in\n    tag_111:\n        /* \"@openzeppelin/contracts/access/Ownable.sol\":2357:2387  _transferOwnership(address(0)) */\n      tag_114\n        /* \"@openzeppelin/contracts/access/Ownable.sol\":2384:2385  0 */\n      0x00\n        /* \"@openzeppelin/contracts/access/Ownable.sol\":2357:2375  _transferOwnership */\n      tag_115\n        /* \"@openzeppelin/contracts/access/Ownable.sol\":2357:2387  _transferOwnership(address(0)) */\n      jump\t// in\n    tag_114:\n        /* \"@openzeppelin/contracts/access/Ownable.sol\":2293:2394  function renounceOwnership() public virtual onlyOwner {... */\n      jump\t// out\n        /* \"@openzeppelin/contracts/access/Ownable.sol\":1638:1723  function owner() public view virtual returns (address) {... */\n    tag_46:\n        /* \"@openzeppelin/contracts/access/Ownable.sol\":1684:1691  address */\n      0x00\n        /* \"@openzeppelin/contracts/access/Ownable.sol\":1710:1716  _owner */\n      dup1\n      0x00\n      swap1\n      sload\n      swap1\n      0x0100\n      exp\n      swap1\n      div\n      0xffffffffffffffffffffffffffffffffffffffff\n      and\n        /* \"@openzeppelin/contracts/access/Ownable.sol\":1703:1716  return _owner */\n      swap1\n      pop\n        /* \"@openzeppelin/contracts/access/Ownable.sol\":1638:1723  function owner() public view virtual returns (address) {... */\n      swap1\n      jump\t// out\n        /* \"contracts/wallet.sol\":333:361  uint256 public feePercentage */\n    tag_50:\n      sload(0x03)\n      dup2\n      jump\t// out\n        /* \"contracts/wallet.sol\":2096:2480  function transfer(address _to, uint256 _amount) public {... */\n    tag_54:\n        /* \"contracts/wallet.sol\":2180:2181  0 */\n      0x00\n        /* \"contracts/wallet.sol\":2170:2177  _amount */\n      dup2\n        /* \"contracts/wallet.sol\":2170:2181  _amount > 0 */\n      gt\n        /* \"contracts/wallet.sol\":2162:2200  require(_amount > 0, \"Invalid amount\") */\n      tag_118\n      jumpi\n      mload(0x40)\n      0x08c379a000000000000000000000000000000000000000000000000000000000\n      dup2\n      mstore\n      0x04\n      add\n      tag_119\n      swap1\n      tag_94\n      jump\t// in\n    tag_119:\n      mload(0x40)\n      dup1\n      swap2\n      sub\n      swap1\n      revert\n    tag_118:\n        /* \"contracts/wallet.sol\":2230:2238  balances */\n      0x01\n        /* \"contracts/wallet.sol\":2230:2250  balances[msg.sender] */\n      0x00\n        /* \"contracts/wallet.sol\":2239:2249  msg.sender */\n      caller\n        /* \"contracts/wallet.sol\":2230:2250  balances[msg.sender] */\n      0xffffffffffffffffffffffffffffffffffffffff\n      and\n      0xffffffffffffffffffffffffffffffffffffffff\n      and\n      dup2\n      mstore\n      0x20\n      add\n      swap1\n      dup2\n      mstore\n      0x20\n      add\n      0x00\n      keccak256\n      sload\n        /* \"contracts/wallet.sol\":2219:2226  _amount */\n      dup2\n        /* \"contracts/wallet.sol\":2219:2250  _amount <= balances[msg.sender] */\n      gt\n      iszero\n        /* \"contracts/wallet.sol\":2211:2275  require(_amount <= balances[msg.sender], \"Insufficient balance\") */\n      tag_120\n      jumpi\n      mload(0x40)\n      0x08c379a000000000000000000000000000000000000000000000000000000000\n      dup2\n      mstore\n      0x04\n      add\n      tag_121\n      swap1\n      tag_103\n      jump\t// in\n    tag_121:\n      mload(0x40)\n      dup1\n      swap2\n      sub\n      swap1\n      revert\n    tag_120:\n        /* \"contracts/wallet.sol\":2309:2310  0 */\n      0x00\n        /* \"contracts/wallet.sol\":2294:2311  _to != address(0) */\n      0xffffffffffffffffffffffffffffffffffffffff\n      and\n        /* \"contracts/wallet.sol\":2294:2297  _to */\n      dup3\n        /* \"contracts/wallet.sol\":2294:2311  _to != address(0) */\n      0xffffffffffffffffffffffffffffffffffffffff\n      and\n      sub\n        /* \"contracts/wallet.sol\":2286:2341  require(_to != address(0), \"Invalid recipient address\") */\n      tag_122\n      jumpi\n      mload(0x40)\n      0x08c379a000000000000000000000000000000000000000000000000000000000\n      dup2\n      mstore\n      0x04\n      add\n      tag_123\n      swap1\n      tag_97\n      jump\t// in\n    tag_123:\n      mload(0x40)\n      dup1\n      swap2\n      sub\n      swap1\n      revert\n    tag_122:\n        /* \"contracts/wallet.sol\":2378:2385  _amount */\n      dup1\n        /* \"contracts/wallet.sol\":2354:2362  balances */\n      0x01\n        /* \"contracts/wallet.sol\":2354:2374  balances[msg.sender] */\n      0x00\n        /* \"contracts/wallet.sol\":2363:2373  msg.sender */\n      caller\n        /* \"contracts/wallet.sol\":2354:2374  balances[msg.sender] */\n      0xffffffffffffffffffffffffffffffffffffffff\n      and\n      0xffffffffffffffffffffffffffffffffffffffff\n      and\n      dup2\n      mstore\n      0x20\n      add\n      swap1\n      dup2\n      mstore\n      0x20\n      add\n      0x00\n      keccak256\n      0x00\n        /* \"contracts/wallet.sol\":2354:2385  balances[msg.sender] -= _amount */\n      dup3\n      dup3\n      sload\n      tag_124\n      swap2\n      swap1\n      tag_105\n      jump\t// in\n    tag_124:\n      swap3\n      pop\n      pop\n      dup2\n      swap1\n      sstore\n      pop\n        /* \"contracts/wallet.sol\":2413:2420  _amount */\n      dup1\n        /* \"contracts/wallet.sol\":2396:2404  balances */\n      0x01\n        /* \"contracts/wallet.sol\":2396:2409  balances[_to] */\n      0x00\n        /* \"contracts/wallet.sol\":2405:2408  _to */\n      dup5\n        /* \"contracts/wallet.sol\":2396:2409  balances[_to] */\n      0xffffffffffffffffffffffffffffffffffffffff\n      and\n      0xffffffffffffffffffffffffffffffffffffffff\n      and\n      dup2\n      mstore\n      0x20\n      add\n      swap1\n      dup2\n      mstore\n      0x20\n      add\n      0x00\n      keccak256\n      0x00\n        /* \"contracts/wallet.sol\":2396:2420  balances[_to] += _amount */\n      dup3\n      dup3\n      sload\n      tag_125\n      swap2\n      swap1\n      tag_107\n      jump\t// in\n    tag_125:\n      swap3\n      pop\n      pop\n      dup2\n      swap1\n      sstore\n      pop\n        /* \"contracts/wallet.sol\":2459:2462  _to */\n      dup2\n        /* \"contracts/wallet.sol\":2438:2472  Transfer(msg.sender, _to, _amount) */\n      0xffffffffffffffffffffffffffffffffffffffff\n      and\n        /* \"contracts/wallet.sol\":2447:2457  msg.sender */\n      caller\n        /* \"contracts/wallet.sol\":2438:2472  Transfer(msg.sender, _to, _amount) */\n      0xffffffffffffffffffffffffffffffffffffffff\n      and\n      0xddf252ad1be2c89b69c2b068fc378daa952ba7f163c4a11628f55a4df523b3ef\n        /* \"contracts/wallet.sol\":2464:2471  _amount */\n      dup4\n        /* \"contracts/wallet.sol\":2438:2472  Transfer(msg.sender, _to, _amount) */\n      mload(0x40)\n      tag_126\n      swap2\n      swap1\n      tag_28\n      jump\t// in\n    tag_126:\n      mload(0x40)\n      dup1\n      swap2\n      sub\n      swap1\n      log3\n        /* \"contracts/wallet.sol\":2096:2480  function transfer(address _to, uint256 _amount) public {... */\n      pop\n      pop\n      jump\t// out\n        /* \"contracts/wallet.sol\":3491:3613  function setFeePercentage(uint256 _newFeePercentage) public onlyOwner {... */\n    tag_58:\n        /* \"@openzeppelin/contracts/access/Ownable.sol\":1531:1544  _checkOwner() */\n      tag_128\n        /* \"@openzeppelin/contracts/access/Ownable.sol\":1531:1542  _checkOwner */\n      tag_112\n        /* \"@openzeppelin/contracts/access/Ownable.sol\":1531:1544  _checkOwner() */\n      jump\t// in\n    tag_128:\n        /* \"contracts/wallet.sol\":3588:3605  _newFeePercentage */\n      dup1\n        /* \"contracts/wallet.sol\":3572:3585  feePercentage */\n      0x03\n        /* \"contracts/wallet.sol\":3572:3605  feePercentage = _newFeePercentage */\n      dup2\n      swap1\n      sstore\n      pop\n        /* \"contracts/wallet.sol\":3491:3613  function setFeePercentage(uint256 _newFeePercentage) public onlyOwner {... */\n      pop\n      jump\t// out\n        /* \"contracts/wallet.sol\":915:1194  function deposit(uint256 _amount) public {... */\n    tag_61:\n        /* \"contracts/wallet.sol\":985:986  0 */\n      0x00\n        /* \"contracts/wallet.sol\":975:982  _amount */\n      dup2\n        /* \"contracts/wallet.sol\":975:986  _amount > 0 */\n      gt\n        /* \"contracts/wallet.sol\":967:1005  require(_amount > 0, \"Invalid amount\") */\n      tag_131\n      jumpi\n      mload(0x40)\n      0x08c379a000000000000000000000000000000000000000000000000000000000\n      dup2\n      mstore\n      0x04\n      add\n      tag_132\n      swap1\n      tag_94\n      jump\t// in\n    tag_132:\n      mload(0x40)\n      dup1\n      swap2\n      sub\n      swap1\n      revert\n    tag_131:\n        /* \"contracts/wallet.sol\":1024:1029  token */\n      0x04\n      0x00\n      swap1\n      sload\n      swap1\n      0x0100\n      exp\n      swap1\n      div\n      0xffffffffffffffffffffffffffffffffffffffff\n      and\n        /* \"contracts/wallet.sol\":1024:1042  token.transferFrom */\n      0xffffffffffffffffffffffffffffffffffffffff\n      and\n      0x23b872dd\n        /* \"contracts/wallet.sol\":1043:1053  msg.sender */\n      caller\n        /* \"contracts/wallet.sol\":1063:1067  this */\n      address\n        /* \"contracts/wallet.sol\":1070:1077  _amount */\n      dup5\n        /* \"contracts/wallet.sol\":1024:1078  token.transferFrom(msg.sender, address(this), _amount) */\n      mload(0x40)\n      dup5\n      0xffffffff\n      and\n      0xe0\n      shl\n      dup2\n      mstore\n      0x04\n      add\n      tag_133\n      swap4\n      swap3\n      swap2\n      swap1\n      tag_134\n      jump\t// in\n    tag_133:\n      0x20\n      mload(0x40)\n      dup1\n      dup4\n      sub\n      dup2\n      0x00\n      dup8\n      gas\n      call\n      iszero\n      dup1\n      iszero\n      tag_136\n      jumpi\n      returndatasize\n      0x00\n      dup1\n      returndatacopy\n      revert(0x00, returndatasize)\n    tag_136:\n      pop\n      pop\n      pop\n      pop\n      mload(0x40)\n      returndatasize\n      not(0x1f)\n      0x1f\n      dup3\n      add\n      and\n      dup3\n      add\n      dup1\n      0x40\n      mstore\n      pop\n      dup2\n      add\n      swap1\n      tag_137\n      swap2\n      swap1\n      tag_85\n      jump\t// in\n    tag_137:\n        /* \"contracts/wallet.sol\":1016:1098  require(token.transferFrom(msg.sender, address(this), _amount), \"Transfer failed\") */\n      tag_138\n      jumpi\n      mload(0x40)\n      0x08c379a000000000000000000000000000000000000000000000000000000000\n      dup2\n      mstore\n      0x04\n      add\n      tag_139\n      swap1\n      tag_140\n      jump\t// in\n    tag_139:\n      mload(0x40)\n      dup1\n      swap2\n      sub\n      swap1\n      revert\n    tag_138:\n        /* \"contracts/wallet.sol\":1135:1142  _amount */\n      dup1\n        /* \"contracts/wallet.sol\":1111:1119  balances */\n      0x01\n        /* \"contracts/wallet.sol\":1111:1131  balances[msg.sender] */\n      0x00\n        /* \"contracts/wallet.sol\":1120:1130  msg.sender */\n      caller\n        /* \"contracts/wallet.sol\":1111:1131  balances[msg.sender] */\n      0xffffffffffffffffffffffffffffffffffffffff\n      and\n      0xffffffffffffffffffffffffffffffffffffffff\n      and\n      dup2\n      mstore\n      0x20\n      add\n      swap1\n      dup2\n      mstore\n      0x20\n      add\n      0x00\n      keccak256\n      0x00\n        /* \"contracts/wallet.sol\":1111:1142  balances[msg.sender] += _amount */\n      dup3\n      dup3\n      sload\n      tag_141\n      swap2\n      swap1\n      tag_107\n      jump\t// in\n    tag_141:\n      swap3\n      pop\n      pop\n      dup2\n      swap1\n      sstore\n      pop\n        /* \"contracts/wallet.sol\":1166:1176  msg.sender */\n      caller\n        /* \"contracts/wallet.sol\":1158:1186  Deposit(msg.sender, _amount) */\n      0xffffffffffffffffffffffffffffffffffffffff\n      and\n      0xe1fffcc4923d04b559f4d29a8bfc6cda04eb5b0d3c460751c2402c5c5cc9109c\n        /* \"contracts/wallet.sol\":1178:1185  _amount */\n      dup3\n        /* \"contracts/wallet.sol\":1158:1186  Deposit(msg.sender, _amount) */\n      mload(0x40)\n      tag_142\n      swap2\n      swap1\n      tag_28\n      jump\t// in\n    tag_142:\n      mload(0x40)\n      dup1\n      swap2\n      sub\n      swap1\n      log2\n        /* \"contracts/wallet.sol\":915:1194  function deposit(uint256 _amount) public {... */\n      pop\n      jump\t// out\n        /* \"contracts/wallet.sol\":2812:2946  function allowance(address _owner, address _spender) public view returns (uint256) {... */\n    tag_64:\n        /* \"contracts/wallet.sol\":2886:2893  uint256 */\n      0x00\n        /* \"contracts/wallet.sol\":2913:2920  allowed */\n      0x02\n        /* \"contracts/wallet.sol\":2913:2928  allowed[_owner] */\n      0x00\n        /* \"contracts/wallet.sol\":2921:2927  _owner */\n      dup5\n        /* \"contracts/wallet.sol\":2913:2928  allowed[_owner] */\n      0xffffffffffffffffffffffffffffffffffffffff\n      and\n      0xffffffffffffffffffffffffffffffffffffffff\n      and\n      dup2\n      mstore\n      0x20\n      add\n      swap1\n      dup2\n      mstore\n      0x20\n      add\n      0x00\n      keccak256\n        /* \"contracts/wallet.sol\":2913:2938  allowed[_owner][_spender] */\n      0x00\n        /* \"contracts/wallet.sol\":2929:2937  _spender */\n      dup4\n        /* \"contracts/wallet.sol\":2913:2938  allowed[_owner][_spender] */\n      0xffffffffffffffffffffffffffffffffffffffff\n      and\n      0xffffffffffffffffffffffffffffffffffffffff\n      and\n      dup2\n      mstore\n      0x20\n      add\n      swap1\n      dup2\n      mstore\n      0x20\n      add\n      0x00\n      keccak256\n      sload\n        /* \"contracts/wallet.sol\":2906:2938  return allowed[_owner][_spender] */\n      swap1\n      pop\n        /* \"contracts/wallet.sol\":2812:2946  function allowance(address _owner, address _spender) public view returns (uint256) {... */\n      swap3\n      swap2\n      pop\n      pop\n      jump\t// out\n        /* \"@openzeppelin/contracts/access/Ownable.sol\":2543:2758  function transferOwnership(address newOwner) public virtual onlyOwner {... */\n    tag_68:\n        /* \"@openzeppelin/contracts/access/Ownable.sol\":1531:1544  _checkOwner() */\n      tag_145\n        /* \"@openzeppelin/contracts/access/Ownable.sol\":1531:1542  _checkOwner */\n      tag_112\n        /* \"@openzeppelin/contracts/access/Ownable.sol\":1531:1544  _checkOwner() */\n      jump\t// in\n    tag_145:\n        /* \"@openzeppelin/contracts/access/Ownable.sol\":2647:2648  0 */\n      0x00\n        /* \"@openzeppelin/contracts/access/Ownable.sol\":2627:2649  newOwner == address(0) */\n      0xffffffffffffffffffffffffffffffffffffffff\n      and\n        /* \"@openzeppelin/contracts/access/Ownable.sol\":2627:2635  newOwner */\n      dup2\n        /* \"@openzeppelin/contracts/access/Ownable.sol\":2627:2649  newOwner == address(0) */\n      0xffffffffffffffffffffffffffffffffffffffff\n      and\n      sub\n        /* \"@openzeppelin/contracts/access/Ownable.sol\":2623:2714  if (newOwner == address(0)) {... */\n      tag_147\n      jumpi\n        /* \"@openzeppelin/contracts/access/Ownable.sol\":2700:2701  0 */\n      0x00\n        /* \"@openzeppelin/contracts/access/Ownable.sol\":2672:2703  OwnableInvalidOwner(address(0)) */\n      mload(0x40)\n      0x1e4fbdf700000000000000000000000000000000000000000000000000000000\n      dup2\n      mstore\n      0x04\n      add\n      tag_148\n      swap2\n      swap1\n      tag_48\n      jump\t// in\n    tag_148:\n      mload(0x40)\n      dup1\n      swap2\n      sub\n      swap1\n      revert\n        /* \"@openzeppelin/contracts/access/Ownable.sol\":2623:2714  if (newOwner == address(0)) {... */\n    tag_147:\n        /* \"@openzeppelin/contracts/access/Ownable.sol\":2723:2751  _transferOwnership(newOwner) */\n      tag_149\n        /* \"@openzeppelin/contracts/access/Ownable.sol\":2742:2750  newOwner */\n      dup2\n        /* \"@openzeppelin/contracts/access/Ownable.sol\":2723:2741  _transferOwnership */\n      tag_115\n        /* \"@openzeppelin/contracts/access/Ownable.sol\":2723:2751  _transferOwnership(newOwner) */\n      jump\t// in\n    tag_149:\n        /* \"@openzeppelin/contracts/access/Ownable.sol\":2543:2758  function transferOwnership(address newOwner) public virtual onlyOwner {... */\n      pop\n      jump\t// out\n        /* \"contracts/wallet.sol\":1202:1982  function withdraw(address _to, uint256 _amount) public {... */\n    tag_71:\n        /* \"contracts/wallet.sol\":1286:1287  0 */\n      0x00\n        /* \"contracts/wallet.sol\":1276:1283  _amount */\n      dup2\n        /* \"contracts/wallet.sol\":1276:1287  _amount > 0 */\n      gt\n        /* \"contracts/wallet.sol\":1268:1306  require(_amount > 0, \"Invalid amount\") */\n      tag_151\n      jumpi\n      mload(0x40)\n      0x08c379a000000000000000000000000000000000000000000000000000000000\n      dup2\n      mstore\n      0x04\n      add\n      tag_152\n      swap1\n      tag_94\n      jump\t// in\n    tag_152:\n      mload(0x40)\n      dup1\n      swap2\n      sub\n      swap1\n      revert\n    tag_151:\n        /* \"contracts/wallet.sol\":1336:1344  balances */\n      0x01\n        /* \"contracts/wallet.sol\":1336:1356  balances[msg.sender] */\n      0x00\n        /* \"contracts/wallet.sol\":1345:1355  msg.sender */\n      caller\n        /* \"contracts/wallet.sol\":1336:1356  balances[msg.sender] */\n      0xffffffffffffffffffffffffffffffffffffffff\n      and\n      0xffffffffffffffffffffffffffffffffffffffff\n      and\n      dup2\n      mstore\n      0x20\n      add\n      swap1\n      dup2\n      mstore\n      0x20\n      add\n      0x00\n      keccak256\n      sload\n        /* \"contracts/wallet.sol\":1325:1332  _amount */\n      dup2\n        /* \"contracts/wallet.sol\":1325:1356  _amount <= balances[msg.sender] */\n      gt\n      iszero\n        /* \"contracts/wallet.sol\":1317:1381  require(_amount <= balances[msg.sender], \"Insufficient balance\") */\n      tag_153\n      jumpi\n      mload(0x40)\n      0x08c379a000000000000000000000000000000000000000000000000000000000\n      dup2\n      mstore\n      0x04\n      add\n      tag_154\n      swap1\n      tag_103\n      jump\t// in\n    tag_154:\n      mload(0x40)\n      dup1\n      swap2\n      sub\n      swap1\n      revert\n    tag_153:\n        /* \"contracts/wallet.sol\":1415:1416  0 */\n      0x00\n        /* \"contracts/wallet.sol\":1400:1417  _to != address(0) */\n      0xffffffffffffffffffffffffffffffffffffffff\n      and\n        /* \"contracts/wallet.sol\":1400:1403  _to */\n      dup3\n        /* \"contracts/wallet.sol\":1400:1417  _to != address(0) */\n      0xffffffffffffffffffffffffffffffffffffffff\n      and\n      sub\n        /* \"contracts/wallet.sol\":1392:1447  require(_to != address(0), \"Invalid recipient address\") */\n      tag_155\n      jumpi\n      mload(0x40)\n      0x08c379a000000000000000000000000000000000000000000000000000000000\n      dup2\n      mstore\n      0x04\n      add\n      tag_156\n      swap1\n      tag_97\n      jump\t// in\n    tag_156:\n      mload(0x40)\n      dup1\n      swap2\n      sub\n      swap1\n      revert\n    tag_155:\n        /* \"contracts/wallet.sol\":1460:1471  uint256 fee */\n      0x00\n        /* \"contracts/wallet.sol\":1502:1505  100 */\n      0x64\n        /* \"contracts/wallet.sol\":1485:1498  feePercentage */\n      sload(0x03)\n        /* \"contracts/wallet.sol\":1475:1482  _amount */\n      dup4\n        /* \"contracts/wallet.sol\":1475:1498  _amount * feePercentage */\n      tag_157\n      swap2\n      swap1\n      tag_158\n      jump\t// in\n    tag_157:\n        /* \"contracts/wallet.sol\":1474:1505  (_amount * feePercentage) / 100 */\n      tag_159\n      swap2\n      swap1\n      tag_160\n      jump\t// in\n    tag_159:\n        /* \"contracts/wallet.sol\":1460:1505  uint256 fee = (_amount * feePercentage) / 100 */\n      swap1\n      pop\n        /* \"contracts/wallet.sol\":1516:1538  uint256 amountAfterFee */\n      0x00\n        /* \"contracts/wallet.sol\":1551:1554  fee */\n      dup2\n        /* \"contracts/wallet.sol\":1541:1548  _amount */\n      dup4\n        /* \"contracts/wallet.sol\":1541:1554  _amount - fee */\n      tag_161\n      swap2\n      swap1\n      tag_105\n      jump\t// in\n    tag_161:\n        /* \"contracts/wallet.sol\":1516:1554  uint256 amountAfterFee = _amount - fee */\n      swap1\n      pop\n        /* \"contracts/wallet.sol\":1591:1598  _amount */\n      dup3\n        /* \"contracts/wallet.sol\":1567:1575  balances */\n      0x01\n        /* \"contracts/wallet.sol\":1567:1587  balances[msg.sender] */\n      0x00\n        /* \"contracts/wallet.sol\":1576:1586  msg.sender */\n      caller\n        /* \"contracts/wallet.sol\":1567:1587  balances[msg.sender] */\n      0xffffffffffffffffffffffffffffffffffffffff\n      and\n      0xffffffffffffffffffffffffffffffffffffffff\n      and\n      dup2\n      mstore\n      0x20\n      add\n      swap1\n      dup2\n      mstore\n      0x20\n      add\n      0x00\n      keccak256\n      0x00\n        /* \"contracts/wallet.sol\":1567:1598  balances[msg.sender] -= _amount */\n      dup3\n      dup3\n      sload\n      tag_162\n      swap2\n      swap1\n      tag_105\n      jump\t// in\n    tag_162:\n      swap3\n      pop\n      pop\n      dup2\n      swap1\n      sstore\n      pop\n        /* \"contracts/wallet.sol\":1626:1633  _amount */\n      dup3\n        /* \"contracts/wallet.sol\":1609:1617  balances */\n      0x01\n        /* \"contracts/wallet.sol\":1609:1622  balances[_to] */\n      0x00\n        /* \"contracts/wallet.sol\":1618:1621  _to */\n      dup7\n        /* \"contracts/wallet.sol\":1609:1622  balances[_to] */\n      0xffffffffffffffffffffffffffffffffffffffff\n      and\n      0xffffffffffffffffffffffffffffffffffffffff\n      and\n      dup2\n      mstore\n      0x20\n      add\n      swap1\n      dup2\n      mstore\n      0x20\n      add\n      0x00\n      keccak256\n      0x00\n        /* \"contracts/wallet.sol\":1609:1633  balances[_to] += _amount */\n      dup3\n      dup3\n      sload\n      tag_163\n      swap2\n      swap1\n      tag_107\n      jump\t// in\n    tag_163:\n      swap3\n      pop\n      pop\n      dup2\n      swap1\n      sstore\n      pop\n        /* \"contracts/wallet.sol\":1688:1702  amountAfterFee */\n      dup1\n        /* \"contracts/wallet.sol\":1654:1659  token */\n      0x04\n      0x00\n      swap1\n      sload\n      swap1\n      0x0100\n      exp\n      swap1\n      div\n      0xffffffffffffffffffffffffffffffffffffffff\n      and\n        /* \"contracts/wallet.sol\":1654:1669  token.balanceOf */\n      0xffffffffffffffffffffffffffffffffffffffff\n      and\n      0x70a08231\n        /* \"contracts/wallet.sol\":1678:1682  this */\n      address\n        /* \"contracts/wallet.sol\":1654:1684  token.balanceOf(address(this)) */\n      mload(0x40)\n      dup3\n      0xffffffff\n      and\n      0xe0\n      shl\n      dup2\n      mstore\n      0x04\n      add\n      tag_164\n      swap2\n      swap1\n      tag_48\n      jump\t// in\n    tag_164:\n      0x20\n      mload(0x40)\n      dup1\n      dup4\n      sub\n      dup2\n      dup7\n      gas\n      staticcall\n      iszero\n      dup1\n      iszero\n      tag_166\n      jumpi\n      returndatasize\n      0x00\n      dup1\n      returndatacopy\n      revert(0x00, returndatasize)\n    tag_166:\n      pop\n      pop\n      pop\n      pop\n      mload(0x40)\n      returndatasize\n      not(0x1f)\n      0x1f\n      dup3\n      add\n      and\n      dup3\n      add\n      dup1\n      0x40\n      mstore\n      pop\n      dup2\n      add\n      swap1\n      tag_167\n      swap2\n      swap1\n      tag_168\n      jump\t// in\n    tag_167:\n        /* \"contracts/wallet.sol\":1654:1702  token.balanceOf(address(this)) >= amountAfterFee */\n      lt\n      iszero\n        /* \"contracts/wallet.sol\":1646:1736  require(token.balanceOf(address(this)) >= amountAfterFee, \"Insufficient contract balance\") */\n      tag_169\n      jumpi\n      mload(0x40)\n      0x08c379a000000000000000000000000000000000000000000000000000000000\n      dup2\n      mstore\n      0x04\n      add\n      tag_170\n      swap1\n      tag_171\n      jump\t// in\n    tag_170:\n      mload(0x40)\n      dup1\n      swap2\n      sub\n      swap1\n      revert\n    tag_169:\n        /* \"contracts/wallet.sol\":1755:1760  token */\n      0x04\n      0x00\n      swap1\n      sload\n      swap1\n      0x0100\n      exp\n      swap1\n      div\n      0xffffffffffffffffffffffffffffffffffffffff\n      and\n        /* \"contracts/wallet.sol\":1755:1769  token.transfer */\n      0xffffffffffffffffffffffffffffffffffffffff\n      and\n      0xa9059cbb\n        /* \"contracts/wallet.sol\":1770:1780  msg.sender */\n      caller\n        /* \"contracts/wallet.sol\":1782:1796  amountAfterFee */\n      dup4\n        /* \"contracts/wallet.sol\":1755:1797  token.transfer(msg.sender, amountAfterFee) */\n      mload(0x40)\n      dup4\n      0xffffffff\n      and\n      0xe0\n      shl\n      dup2\n      mstore\n      0x04\n      add\n      tag_172\n      swap3\n      swap2\n      swap1\n      tag_81\n      jump\t// in\n    tag_172:\n      0x20\n      mload(0x40)\n      dup1\n      dup4\n      sub\n      dup2\n      0x00\n      dup8\n      gas\n      call\n      iszero\n      dup1\n      iszero\n      tag_174\n      jumpi\n      returndatasize\n      0x00\n      dup1\n      returndatacopy\n      revert(0x00, returndatasize)\n    tag_174:\n      pop\n      pop\n      pop\n      pop\n      mload(0x40)\n      returndatasize\n      not(0x1f)\n      0x1f\n      dup3\n      add\n      and\n      dup3\n      add\n      dup1\n      0x40\n      mstore\n      pop\n      dup2\n      add\n      swap1\n      tag_175\n      swap2\n      swap1\n      tag_85\n      jump\t// in\n    tag_175:\n        /* \"contracts/wallet.sol\":1747:1817  require(token.transfer(msg.sender, amountAfterFee), \"Transfer failed\") */\n      tag_176\n      jumpi\n      mload(0x40)\n      0x08c379a000000000000000000000000000000000000000000000000000000000\n      dup2\n      mstore\n      0x04\n      add\n      tag_177\n      swap1\n      tag_140\n      jump\t// in\n    tag_177:\n      mload(0x40)\n      dup1\n      swap2\n      sub\n      swap1\n      revert\n    tag_176:\n        /* \"contracts/wallet.sol\":1840:1841  0 */\n      0x00\n        /* \"contracts/wallet.sol\":1834:1837  fee */\n      dup3\n        /* \"contracts/wallet.sol\":1834:1841  fee > 0 */\n      gt\n        /* \"contracts/wallet.sol\":1830:1930  if (fee > 0) {... */\n      iszero\n      tag_178\n      jumpi\n        /* \"contracts/wallet.sol\":1866:1871  token */\n      0x04\n      0x00\n      swap1\n      sload\n      swap1\n      0x0100\n      exp\n      swap1\n      div\n      0xffffffffffffffffffffffffffffffffffffffff\n      and\n        /* \"contracts/wallet.sol\":1866:1880  token.transfer */\n      0xffffffffffffffffffffffffffffffffffffffff\n      and\n      0xa9059cbb\n        /* \"contracts/wallet.sol\":1881:1888  owner() */\n      tag_179\n        /* \"contracts/wallet.sol\":1881:1886  owner */\n      tag_46\n        /* \"contracts/wallet.sol\":1881:1888  owner() */\n      jump\t// in\n    tag_179:\n        /* \"contracts/wallet.sol\":1890:1893  fee */\n      dup5\n        /* \"contracts/wallet.sol\":1866:1894  token.transfer(owner(), fee) */\n      mload(0x40)\n      dup4\n      0xffffffff\n      and\n      0xe0\n      shl\n      dup2\n      mstore\n      0x04\n      add\n      tag_180\n      swap3\n      swap2\n      swap1\n      tag_81\n      jump\t// in\n    tag_180:\n      0x20\n      mload(0x40)\n      dup1\n      dup4\n      sub\n      dup2\n      0x00\n      dup8\n      gas\n      call\n      iszero\n      dup1\n      iszero\n      tag_182\n      jumpi\n      returndatasize\n      0x00\n      dup1\n      returndatacopy\n      revert(0x00, returndatasize)\n    tag_182:\n      pop\n      pop\n      pop\n      pop\n      mload(0x40)\n      returndatasize\n      not(0x1f)\n      0x1f\n      dup3\n      add\n      and\n      dup3\n      add\n      dup1\n      0x40\n      mstore\n      pop\n      dup2\n      add\n      swap1\n      tag_183\n      swap2\n      swap1\n      tag_85\n      jump\t// in\n    tag_183:\n        /* \"contracts/wallet.sol\":1858:1918  require(token.transfer(owner(), fee), \"Fee transfer failed\") */\n      tag_184\n      jumpi\n      mload(0x40)\n      0x08c379a000000000000000000000000000000000000000000000000000000000\n      dup2\n      mstore\n      0x04\n      add\n      tag_185\n      swap1\n      tag_186\n      jump\t// in\n    tag_185:\n      mload(0x40)\n      dup1\n      swap2\n      sub\n      swap1\n      revert\n    tag_184:\n        /* \"contracts/wallet.sol\":1830:1930  if (fee > 0) {... */\n    tag_178:\n        /* \"contracts/wallet.sol\":1956:1959  _to */\n      dup4\n        /* \"contracts/wallet.sol\":1947:1974  Withdraw(_to, _amount, fee) */\n      0xffffffffffffffffffffffffffffffffffffffff\n      and\n      0xf279e6a1f5e320cca91135676d9cb6e44ca8a08c0b88342bcdb1144f6511b568\n        /* \"contracts/wallet.sol\":1961:1968  _amount */\n      dup5\n        /* \"contracts/wallet.sol\":1970:1973  fee */\n      dup5\n        /* \"contracts/wallet.sol\":1947:1974  Withdraw(_to, _amount, fee) */\n      mload(0x40)\n      tag_187\n      swap3\n      swap2\n      swap1\n      tag_188\n      jump\t// in\n    tag_187:\n      mload(0x40)\n      dup1\n      swap2\n      sub\n      swap1\n      log2\n        /* \"contracts/wallet.sol\":1257:1982  {... */\n      pop\n      pop\n        /* \"contracts/wallet.sol\":1202:1982  function withdraw(address _to, uint256 _amount) public {... */\n      pop\n      pop\n      jump\t// out\n        /* \"contracts/wallet.sol\":368:387  IERC20 public token */\n    tag_73:\n      0x04\n      0x00\n      swap1\n      sload\n      swap1\n      0x0100\n      exp\n      swap1\n      div\n      0xffffffffffffffffffffffffffffffffffffffff\n      and\n      dup2\n      jump\t// out\n        /* \"@openzeppelin/contracts/access/Ownable.sol\":1796:1958  function _checkOwner() internal view virtual {... */\n    tag_112:\n        /* \"@openzeppelin/contracts/access/Ownable.sol\":1866:1878  _msgSender() */\n      tag_190\n        /* \"@openzeppelin/contracts/access/Ownable.sol\":1866:1876  _msgSender */\n      tag_191\n        /* \"@openzeppelin/contracts/access/Ownable.sol\":1866:1878  _msgSender() */\n      jump\t// in\n    tag_190:\n        /* \"@openzeppelin/contracts/access/Ownable.sol\":1855:1878  owner() != _msgSender() */\n      0xffffffffffffffffffffffffffffffffffffffff\n      and\n        /* \"@openzeppelin/contracts/access/Ownable.sol\":1855:1862  owner() */\n      tag_192\n        /* \"@openzeppelin/contracts/access/Ownable.sol\":1855:1860  owner */\n      tag_46\n        /* \"@openzeppelin/contracts/access/Ownable.sol\":1855:1862  owner() */\n      jump\t// in\n    tag_192:\n        /* \"@openzeppelin/contracts/access/Ownable.sol\":1855:1878  owner() != _msgSender() */\n      0xffffffffffffffffffffffffffffffffffffffff\n      and\n      eq\n        /* \"@openzeppelin/contracts/access/Ownable.sol\":1851:1952  if (owner() != _msgSender()) {... */\n      tag_193\n      jumpi\n        /* \"@openzeppelin/contracts/access/Ownable.sol\":1928:1940  _msgSender() */\n      tag_194\n        /* \"@openzeppelin/contracts/access/Ownable.sol\":1928:1938  _msgSender */\n      tag_191\n        /* \"@openzeppelin/contracts/access/Ownable.sol\":1928:1940  _msgSender() */\n      jump\t// in\n    tag_194:\n        /* \"@openzeppelin/contracts/access/Ownable.sol\":1901:1941  OwnableUnauthorizedAccount(_msgSender()) */\n      mload(0x40)\n      0x118cdaa700000000000000000000000000000000000000000000000000000000\n      dup2\n      mstore\n      0x04\n      add\n      tag_195\n      swap2\n      swap1\n      tag_48\n      jump\t// in\n    tag_195:\n      mload(0x40)\n      dup1\n      swap2\n      sub\n      swap1\n      revert\n        /* \"@openzeppelin/contracts/access/Ownable.sol\":1851:1952  if (owner() != _msgSender()) {... */\n    tag_193:\n        /* \"@openzeppelin/contracts/access/Ownable.sol\":1796:1958  function _checkOwner() internal view virtual {... */\n      jump\t// out\n        /* \"@openzeppelin/contracts/access/Ownable.sol\":2912:3099  function _transferOwnership(address newOwner) internal virtual {... */\n    tag_115:\n        /* \"@openzeppelin/contracts/access/Ownable.sol\":2985:3001  address oldOwner */\n      0x00\n        /* \"@openzeppelin/contracts/access/Ownable.sol\":3004:3010  _owner */\n      dup1\n      0x00\n      swap1\n      sload\n      swap1\n      0x0100\n      exp\n      swap1\n      div\n      0xffffffffffffffffffffffffffffffffffffffff\n      and\n        /* \"@openzeppelin/contracts/access/Ownable.sol\":2985:3010  address oldOwner = _owner */\n      swap1\n      pop\n        /* \"@openzeppelin/contracts/access/Ownable.sol\":3029:3037  newOwner */\n      dup2\n        /* \"@openzeppelin/contracts/access/Ownable.sol\":3020:3026  _owner */\n      0x00\n      dup1\n        /* \"@openzeppelin/contracts/access/Ownable.sol\":3020:3037  _owner = newOwner */\n      0x0100\n      exp\n      dup2\n      sload\n      dup2\n      0xffffffffffffffffffffffffffffffffffffffff\n      mul\n      not\n      and\n      swap1\n      dup4\n      0xffffffffffffffffffffffffffffffffffffffff\n      and\n      mul\n      or\n      swap1\n      sstore\n      pop\n        /* \"@openzeppelin/contracts/access/Ownable.sol\":3083:3091  newOwner */\n      dup2\n        /* \"@openzeppelin/contracts/access/Ownable.sol\":3052:3092  OwnershipTransferred(oldOwner, newOwner) */\n      0xffffffffffffffffffffffffffffffffffffffff\n      and\n        /* \"@openzeppelin/contracts/access/Ownable.sol\":3073:3081  oldOwner */\n      dup2\n        /* \"@openzeppelin/contracts/access/Ownable.sol\":3052:3092  OwnershipTransferred(oldOwner, newOwner) */\n      0xffffffffffffffffffffffffffffffffffffffff\n      and\n      0x8be0079c531659141344cd1fd0a4f28419497f9722a3daafe3b4186f6b6457e0\n      mload(0x40)\n      mload(0x40)\n      dup1\n      swap2\n      sub\n      swap1\n      log3\n        /* \"@openzeppelin/contracts/access/Ownable.sol\":2975:3099  {... */\n      pop\n        /* \"@openzeppelin/contracts/access/Ownable.sol\":2912:3099  function _transferOwnership(address newOwner) internal virtual {... */\n      pop\n      jump\t// out\n        /* \"@openzeppelin/contracts/utils/Context.sol\":656:752  function _msgSender() internal view virtual returns (address) {... */\n    tag_191:\n        /* \"@openzeppelin/contracts/utils/Context.sol\":709:716  address */\n      0x00\n        /* \"@openzeppelin/contracts/utils/Context.sol\":735:745  msg.sender */\n      caller\n        /* \"@openzeppelin/contracts/utils/Context.sol\":728:745  return msg.sender */\n      swap1\n      pop\n        /* \"@openzeppelin/contracts/utils/Context.sol\":656:752  function _msgSender() internal view virtual returns (address) {... */\n      swap1\n      jump\t// out\n        /* \"#utility.yul\":88:205   */\n    tag_199:\n        /* \"#utility.yul\":197:198   */\n      0x00\n        /* \"#utility.yul\":194:195   */\n      dup1\n        /* \"#utility.yul\":187:199   */\n      revert\n        /* \"#utility.yul\":334:460   */\n    tag_201:\n        /* \"#utility.yul\":371:378   */\n      0x00\n        /* \"#utility.yul\":411:453   */\n      0xffffffffffffffffffffffffffffffffffffffff\n        /* \"#utility.yul\":404:409   */\n      dup3\n        /* \"#utility.yul\":400:454   */\n      and\n        /* \"#utility.yul\":389:454   */\n      swap1\n      pop\n        /* \"#utility.yul\":334:460   */\n      swap2\n      swap1\n      pop\n      jump\t// out\n        /* \"#utility.yul\":466:562   */\n    tag_202:\n        /* \"#utility.yul\":503:510   */\n      0x00\n        /* \"#utility.yul\":532:556   */\n      tag_246\n        /* \"#utility.yul\":550:555   */\n      dup3\n        /* \"#utility.yul\":532:556   */\n      tag_201\n      jump\t// in\n    tag_246:\n        /* \"#utility.yul\":521:556   */\n      swap1\n      pop\n        /* \"#utility.yul\":466:562   */\n      swap2\n      swap1\n      pop\n      jump\t// out\n        /* \"#utility.yul\":568:690   */\n    tag_203:\n        /* \"#utility.yul\":641:665   */\n      tag_248\n        /* \"#utility.yul\":659:664   */\n      dup2\n        /* \"#utility.yul\":641:665   */\n      tag_202\n      jump\t// in\n    tag_248:\n        /* \"#utility.yul\":634:639   */\n      dup2\n        /* \"#utility.yul\":631:666   */\n      eq\n        /* \"#utility.yul\":621:684   */\n      tag_249\n      jumpi\n        /* \"#utility.yul\":680:681   */\n      0x00\n        /* \"#utility.yul\":677:678   */\n      dup1\n        /* \"#utility.yul\":670:682   */\n      revert\n        /* \"#utility.yul\":621:684   */\n    tag_249:\n        /* \"#utility.yul\":568:690   */\n      pop\n      jump\t// out\n        /* \"#utility.yul\":696:835   */\n    tag_204:\n        /* \"#utility.yul\":742:747   */\n      0x00\n        /* \"#utility.yul\":780:786   */\n      dup2\n        /* \"#utility.yul\":767:787   */\n      calldataload\n        /* \"#utility.yul\":758:787   */\n      swap1\n      pop\n        /* \"#utility.yul\":796:829   */\n      tag_251\n        /* \"#utility.yul\":823:828   */\n      dup2\n        /* \"#utility.yul\":796:829   */\n      tag_203\n      jump\t// in\n    tag_251:\n        /* \"#utility.yul\":696:835   */\n      swap3\n      swap2\n      pop\n      pop\n      jump\t// out\n        /* \"#utility.yul\":841:918   */\n    tag_205:\n        /* \"#utility.yul\":878:885   */\n      0x00\n        /* \"#utility.yul\":907:912   */\n      dup2\n        /* \"#utility.yul\":896:912   */\n      swap1\n      pop\n        /* \"#utility.yul\":841:918   */\n      swap2\n      swap1\n      pop\n      jump\t// out\n        /* \"#utility.yul\":924:1046   */\n    tag_206:\n        /* \"#utility.yul\":997:1021   */\n      tag_254\n        /* \"#utility.yul\":1015:1020   */\n      dup2\n        /* \"#utility.yul\":997:1021   */\n      tag_205\n      jump\t// in\n    tag_254:\n        /* \"#utility.yul\":990:995   */\n      dup2\n        /* \"#utility.yul\":987:1022   */\n      eq\n        /* \"#utility.yul\":977:1040   */\n      tag_255\n      jumpi\n        /* \"#utility.yul\":1036:1037   */\n      0x00\n        /* \"#utility.yul\":1033:1034   */\n      dup1\n        /* \"#utility.yul\":1026:1038   */\n      revert\n        /* \"#utility.yul\":977:1040   */\n    tag_255:\n        /* \"#utility.yul\":924:1046   */\n      pop\n      jump\t// out\n        /* \"#utility.yul\":1052:1191   */\n    tag_207:\n        /* \"#utility.yul\":1098:1103   */\n      0x00\n        /* \"#utility.yul\":1136:1142   */\n      dup2\n        /* \"#utility.yul\":1123:1143   */\n      calldataload\n        /* \"#utility.yul\":1114:1143   */\n      swap1\n      pop\n        /* \"#utility.yul\":1152:1185   */\n      tag_257\n        /* \"#utility.yul\":1179:1184   */\n      dup2\n        /* \"#utility.yul\":1152:1185   */\n      tag_206\n      jump\t// in\n    tag_257:\n        /* \"#utility.yul\":1052:1191   */\n      swap3\n      swap2\n      pop\n      pop\n      jump\t// out\n        /* \"#utility.yul\":1197:1671   */\n    tag_23:\n        /* \"#utility.yul\":1265:1271   */\n      0x00\n        /* \"#utility.yul\":1273:1279   */\n      dup1\n        /* \"#utility.yul\":1322:1324   */\n      0x40\n        /* \"#utility.yul\":1310:1319   */\n      dup4\n        /* \"#utility.yul\":1301:1308   */\n      dup6\n        /* \"#utility.yul\":1297:1320   */\n      sub\n        /* \"#utility.yul\":1293:1325   */\n      slt\n        /* \"#utility.yul\":1290:1409   */\n      iszero\n      tag_259\n      jumpi\n        /* \"#utility.yul\":1328:1407   */\n      tag_260\n      tag_199\n      jump\t// in\n    tag_260:\n        /* \"#utility.yul\":1290:1409   */\n    tag_259:\n        /* \"#utility.yul\":1448:1449   */\n      0x00\n        /* \"#utility.yul\":1473:1526   */\n      tag_261\n        /* \"#utility.yul\":1518:1525   */\n      dup6\n        /* \"#utility.yul\":1509:1515   */\n      dup3\n        /* \"#utility.yul\":1498:1507   */\n      dup7\n        /* \"#utility.yul\":1494:1516   */\n      add\n        /* \"#utility.yul\":1473:1526   */\n      tag_204\n      jump\t// in\n    tag_261:\n        /* \"#utility.yul\":1463:1526   */\n      swap3\n      pop\n        /* \"#utility.yul\":1419:1536   */\n      pop\n        /* \"#utility.yul\":1575:1577   */\n      0x20\n        /* \"#utility.yul\":1601:1654   */\n      tag_262\n        /* \"#utility.yul\":1646:1653   */\n      dup6\n        /* \"#utility.yul\":1637:1643   */\n      dup3\n        /* \"#utility.yul\":1626:1635   */\n      dup7\n        /* \"#utility.yul\":1622:1644   */\n      add\n        /* \"#utility.yul\":1601:1654   */\n      tag_207\n      jump\t// in\n    tag_262:\n        /* \"#utility.yul\":1591:1654   */\n      swap2\n      pop\n        /* \"#utility.yul\":1546:1664   */\n      pop\n        /* \"#utility.yul\":1197:1671   */\n      swap3\n      pop\n      swap3\n      swap1\n      pop\n      jump\t// out\n        /* \"#utility.yul\":1677:1795   */\n    tag_208:\n        /* \"#utility.yul\":1764:1788   */\n      tag_264\n        /* \"#utility.yul\":1782:1787   */\n      dup2\n        /* \"#utility.yul\":1764:1788   */\n      tag_205\n      jump\t// in\n    tag_264:\n        /* \"#utility.yul\":1759:1762   */\n      dup3\n        /* \"#utility.yul\":1752:1789   */\n      mstore\n        /* \"#utility.yul\":1677:1795   */\n      pop\n      pop\n      jump\t// out\n        /* \"#utility.yul\":1801:2023   */\n    tag_28:\n        /* \"#utility.yul\":1894:1898   */\n      0x00\n        /* \"#utility.yul\":1932:1934   */\n      0x20\n        /* \"#utility.yul\":1921:1930   */\n      dup3\n        /* \"#utility.yul\":1917:1935   */\n      add\n        /* \"#utility.yul\":1909:1935   */\n      swap1\n      pop\n        /* \"#utility.yul\":1945:2016   */\n      tag_266\n        /* \"#utility.yul\":2013:2014   */\n      0x00\n        /* \"#utility.yul\":2002:2011   */\n      dup4\n        /* \"#utility.yul\":1998:2015   */\n      add\n        /* \"#utility.yul\":1989:1995   */\n      dup5\n        /* \"#utility.yul\":1945:2016   */\n      tag_208\n      jump\t// in\n    tag_266:\n        /* \"#utility.yul\":1801:2023   */\n      swap3\n      swap2\n      pop\n      pop\n      jump\t// out\n        /* \"#utility.yul\":2029:2648   */\n    tag_31:\n        /* \"#utility.yul\":2106:2112   */\n      0x00\n        /* \"#utility.yul\":2114:2120   */\n      dup1\n        /* \"#utility.yul\":2122:2128   */\n      0x00\n        /* \"#utility.yul\":2171:2173   */\n      0x60\n        /* \"#utility.yul\":2159:2168   */\n      dup5\n        /* \"#utility.yul\":2150:2157   */\n      dup7\n        /* \"#utility.yul\":2146:2169   */\n      sub\n        /* \"#utility.yul\":2142:2174   */\n      slt\n        /* \"#utility.yul\":2139:2258   */\n      iszero\n      tag_268\n      jumpi\n        /* \"#utility.yul\":2177:2256   */\n      tag_269\n      tag_199\n      jump\t// in\n    tag_269:\n        /* \"#utility.yul\":2139:2258   */\n    tag_268:\n        /* \"#utility.yul\":2297:2298   */\n      0x00\n        /* \"#utility.yul\":2322:2375   */\n      tag_270\n        /* \"#utility.yul\":2367:2374   */\n      dup7\n        /* \"#utility.yul\":2358:2364   */\n      dup3\n        /* \"#utility.yul\":2347:2356   */\n      dup8\n        /* \"#utility.yul\":2343:2365   */\n      add\n        /* \"#utility.yul\":2322:2375   */\n      tag_204\n      jump\t// in\n    tag_270:\n        /* \"#utility.yul\":2312:2375   */\n      swap4\n      pop\n        /* \"#utility.yul\":2268:2385   */\n      pop\n        /* \"#utility.yul\":2424:2426   */\n      0x20\n        /* \"#utility.yul\":2450:2503   */\n      tag_271\n        /* \"#utility.yul\":2495:2502   */\n      dup7\n        /* \"#utility.yul\":2486:2492   */\n      dup3\n        /* \"#utility.yul\":2475:2484   */\n      dup8\n        /* \"#utility.yul\":2471:2493   */\n      add\n        /* \"#utility.yul\":2450:2503   */\n      tag_204\n      jump\t// in\n    tag_271:\n        /* \"#utility.yul\":2440:2503   */\n      swap3\n      pop\n        /* \"#utility.yul\":2395:2513   */\n      pop\n        /* \"#utility.yul\":2552:2554   */\n      0x40\n        /* \"#utility.yul\":2578:2631   */\n      tag_272\n        /* \"#utility.yul\":2623:2630   */\n      dup7\n        /* \"#utility.yul\":2614:2620   */\n      dup3\n        /* \"#utility.yul\":2603:2612   */\n      dup8\n        /* \"#utility.yul\":2599:2621   */\n      add\n        /* \"#utility.yul\":2578:2631   */\n      tag_207\n      jump\t// in\n    tag_272:\n        /* \"#utility.yul\":2568:2631   */\n      swap2\n      pop\n        /* \"#utility.yul\":2523:2641   */\n      pop\n        /* \"#utility.yul\":2029:2648   */\n      swap3\n      pop\n      swap3\n      pop\n      swap3\n      jump\t// out\n        /* \"#utility.yul\":2654:2983   */\n    tag_35:\n        /* \"#utility.yul\":2713:2719   */\n      0x00\n        /* \"#utility.yul\":2762:2764   */\n      0x20\n        /* \"#utility.yul\":2750:2759   */\n      dup3\n        /* \"#utility.yul\":2741:2748   */\n      dup5\n        /* \"#utility.yul\":2737:2760   */\n      sub\n        /* \"#utility.yul\":2733:2765   */\n      slt\n        /* \"#utility.yul\":2730:2849   */\n      iszero\n      tag_274\n      jumpi\n        /* \"#utility.yul\":2768:2847   */\n      tag_275\n      tag_199\n      jump\t// in\n    tag_275:\n        /* \"#utility.yul\":2730:2849   */\n    tag_274:\n        /* \"#utility.yul\":2888:2889   */\n      0x00\n        /* \"#utility.yul\":2913:2966   */\n      tag_276\n        /* \"#utility.yul\":2958:2965   */\n      dup5\n        /* \"#utility.yul\":2949:2955   */\n      dup3\n        /* \"#utility.yul\":2938:2947   */\n      dup6\n        /* \"#utility.yul\":2934:2956   */\n      add\n        /* \"#utility.yul\":2913:2966   */\n      tag_204\n      jump\t// in\n    tag_276:\n        /* \"#utility.yul\":2903:2966   */\n      swap2\n      pop\n        /* \"#utility.yul\":2859:2976   */\n      pop\n        /* \"#utility.yul\":2654:2983   */\n      swap3\n      swap2\n      pop\n      pop\n      jump\t// out\n        /* \"#utility.yul\":2989:3463   */\n    tag_40:\n        /* \"#utility.yul\":3057:3063   */\n      0x00\n        /* \"#utility.yul\":3065:3071   */\n      dup1\n        /* \"#utility.yul\":3114:3116   */\n      0x40\n        /* \"#utility.yul\":3102:3111   */\n      dup4\n        /* \"#utility.yul\":3093:3100   */\n      dup6\n        /* \"#utility.yul\":3089:3112   */\n      sub\n        /* \"#utility.yul\":3085:3117   */\n      slt\n        /* \"#utility.yul\":3082:3201   */\n      iszero\n      tag_278\n      jumpi\n        /* \"#utility.yul\":3120:3199   */\n      tag_279\n      tag_199\n      jump\t// in\n    tag_279:\n        /* \"#utility.yul\":3082:3201   */\n    tag_278:\n        /* \"#utility.yul\":3240:3241   */\n      0x00\n        /* \"#utility.yul\":3265:3318   */\n      tag_280\n        /* \"#utility.yul\":3310:3317   */\n      dup6\n        /* \"#utility.yul\":3301:3307   */\n      dup3\n        /* \"#utility.yul\":3290:3299   */\n      dup7\n        /* \"#utility.yul\":3286:3308   */\n      add\n        /* \"#utility.yul\":3265:3318   */\n      tag_204\n      jump\t// in\n    tag_280:\n        /* \"#utility.yul\":3255:3318   */\n      swap3\n      pop\n        /* \"#utility.yul\":3211:3328   */\n      pop\n        /* \"#utility.yul\":3367:3369   */\n      0x20\n        /* \"#utility.yul\":3393:3446   */\n      tag_281\n        /* \"#utility.yul\":3438:3445   */\n      dup6\n        /* \"#utility.yul\":3429:3435   */\n      dup3\n        /* \"#utility.yul\":3418:3427   */\n      dup7\n        /* \"#utility.yul\":3414:3436   */\n      add\n        /* \"#utility.yul\":3393:3446   */\n      tag_204\n      jump\t// in\n    tag_281:\n        /* \"#utility.yul\":3383:3446   */\n      swap2\n      pop\n        /* \"#utility.yul\":3338:3456   */\n      pop\n        /* \"#utility.yul\":2989:3463   */\n      swap3\n      pop\n      swap3\n      swap1\n      pop\n      jump\t// out\n        /* \"#utility.yul\":3469:3587   */\n    tag_209:\n        /* \"#utility.yul\":3556:3580   */\n      tag_283\n        /* \"#utility.yul\":3574:3579   */\n      dup2\n        /* \"#utility.yul\":3556:3580   */\n      tag_202\n      jump\t// in\n    tag_283:\n        /* \"#utility.yul\":3551:3554   */\n      dup3\n        /* \"#utility.yul\":3544:3581   */\n      mstore\n        /* \"#utility.yul\":3469:3587   */\n      pop\n      pop\n      jump\t// out\n        /* \"#utility.yul\":3593:3815   */\n    tag_48:\n        /* \"#utility.yul\":3686:3690   */\n      0x00\n        /* \"#utility.yul\":3724:3726   */\n      0x20\n        /* \"#utility.yul\":3713:3722   */\n      dup3\n        /* \"#utility.yul\":3709:3727   */\n      add\n        /* \"#utility.yul\":3701:3727   */\n      swap1\n      pop\n        /* \"#utility.yul\":3737:3808   */\n      tag_285\n        /* \"#utility.yul\":3805:3806   */\n      0x00\n        /* \"#utility.yul\":3794:3803   */\n      dup4\n        /* \"#utility.yul\":3790:3807   */\n      add\n        /* \"#utility.yul\":3781:3787   */\n      dup5\n        /* \"#utility.yul\":3737:3808   */\n      tag_209\n      jump\t// in\n    tag_285:\n        /* \"#utility.yul\":3593:3815   */\n      swap3\n      swap2\n      pop\n      pop\n      jump\t// out\n        /* \"#utility.yul\":3821:4150   */\n    tag_57:\n        /* \"#utility.yul\":3880:3886   */\n      0x00\n        /* \"#utility.yul\":3929:3931   */\n      0x20\n        /* \"#utility.yul\":3917:3926   */\n      dup3\n        /* \"#utility.yul\":3908:3915   */\n      dup5\n        /* \"#utility.yul\":3904:3927   */\n      sub\n        /* \"#utility.yul\":3900:3932   */\n      slt\n        /* \"#utility.yul\":3897:4016   */\n      iszero\n      tag_287\n      jumpi\n        /* \"#utility.yul\":3935:4014   */\n      tag_288\n      tag_199\n      jump\t// in\n    tag_288:\n        /* \"#utility.yul\":3897:4016   */\n    tag_287:\n        /* \"#utility.yul\":4055:4056   */\n      0x00\n        /* \"#utility.yul\":4080:4133   */\n      tag_289\n        /* \"#utility.yul\":4125:4132   */\n      dup5\n        /* \"#utility.yul\":4116:4122   */\n      dup3\n        /* \"#utility.yul\":4105:4114   */\n      dup6\n        /* \"#utility.yul\":4101:4123   */\n      add\n        /* \"#utility.yul\":4080:4133   */\n      tag_207\n      jump\t// in\n    tag_289:\n        /* \"#utility.yul\":4070:4133   */\n      swap2\n      pop\n        /* \"#utility.yul\":4026:4143   */\n      pop\n        /* \"#utility.yul\":3821:4150   */\n      swap3\n      swap2\n      pop\n      pop\n      jump\t// out\n        /* \"#utility.yul\":4156:4216   */\n    tag_210:\n        /* \"#utility.yul\":4184:4187   */\n      0x00\n        /* \"#utility.yul\":4205:4210   */\n      dup2\n        /* \"#utility.yul\":4198:4210   */\n      swap1\n      pop\n        /* \"#utility.yul\":4156:4216   */\n      swap2\n      swap1\n      pop\n      jump\t// out\n        /* \"#utility.yul\":4222:4364   */\n    tag_211:\n        /* \"#utility.yul\":4272:4281   */\n      0x00\n        /* \"#utility.yul\":4305:4358   */\n      tag_292\n        /* \"#utility.yul\":4323:4357   */\n      tag_293\n        /* \"#utility.yul\":4332:4356   */\n      tag_294\n        /* \"#utility.yul\":4350:4355   */\n      dup5\n        /* \"#utility.yul\":4332:4356   */\n      tag_201\n      jump\t// in\n    tag_294:\n        /* \"#utility.yul\":4323:4357   */\n      tag_210\n      jump\t// in\n    tag_293:\n        /* \"#utility.yul\":4305:4358   */\n      tag_201\n      jump\t// in\n    tag_292:\n        /* \"#utility.yul\":4292:4358   */\n      swap1\n      pop\n        /* \"#utility.yul\":4222:4364   */\n      swap2\n      swap1\n      pop\n      jump\t// out\n        /* \"#utility.yul\":4370:4496   */\n    tag_212:\n        /* \"#utility.yul\":4420:4429   */\n      0x00\n        /* \"#utility.yul\":4453:4490   */\n      tag_296\n        /* \"#utility.yul\":4484:4489   */\n      dup3\n        /* \"#utility.yul\":4453:4490   */\n      tag_211\n      jump\t// in\n    tag_296:\n        /* \"#utility.yul\":4440:4490   */\n      swap1\n      pop\n        /* \"#utility.yul\":4370:4496   */\n      swap2\n      swap1\n      pop\n      jump\t// out\n        /* \"#utility.yul\":4502:4642   */\n    tag_213:\n        /* \"#utility.yul\":4566:4575   */\n      0x00\n        /* \"#utility.yul\":4599:4636   */\n      tag_298\n        /* \"#utility.yul\":4630:4635   */\n      dup3\n        /* \"#utility.yul\":4599:4636   */\n      tag_212\n      jump\t// in\n    tag_298:\n        /* \"#utility.yul\":4586:4636   */\n      swap1\n      pop\n        /* \"#utility.yul\":4502:4642   */\n      swap2\n      swap1\n      pop\n      jump\t// out\n        /* \"#utility.yul\":4648:4807   */\n    tag_214:\n        /* \"#utility.yul\":4749:4800   */\n      tag_300\n        /* \"#utility.yul\":4794:4799   */\n      dup2\n        /* \"#utility.yul\":4749:4800   */\n      tag_213\n      jump\t// in\n    tag_300:\n        /* \"#utility.yul\":4744:4747   */\n      dup3\n        /* \"#utility.yul\":4737:4801   */\n      mstore\n        /* \"#utility.yul\":4648:4807   */\n      pop\n      pop\n      jump\t// out\n        /* \"#utility.yul\":4813:5063   */\n    tag_75:\n        /* \"#utility.yul\":4920:4924   */\n      0x00\n        /* \"#utility.yul\":4958:4960   */\n      0x20\n        /* \"#utility.yul\":4947:4956   */\n      dup3\n        /* \"#utility.yul\":4943:4961   */\n      add\n        /* \"#utility.yul\":4935:4961   */\n      swap1\n      pop\n        /* \"#utility.yul\":4971:5056   */\n      tag_302\n        /* \"#utility.yul\":5053:5054   */\n      0x00\n        /* \"#utility.yul\":5042:5051   */\n      dup4\n        /* \"#utility.yul\":5038:5055   */\n      add\n        /* \"#utility.yul\":5029:5035   */\n      dup5\n        /* \"#utility.yul\":4971:5056   */\n      tag_214\n      jump\t// in\n    tag_302:\n        /* \"#utility.yul\":4813:5063   */\n      swap3\n      swap2\n      pop\n      pop\n      jump\t// out\n        /* \"#utility.yul\":5069:5238   */\n    tag_215:\n        /* \"#utility.yul\":5153:5164   */\n      0x00\n        /* \"#utility.yul\":5187:5193   */\n      dup3\n        /* \"#utility.yul\":5182:5185   */\n      dup3\n        /* \"#utility.yul\":5175:5194   */\n      mstore\n        /* \"#utility.yul\":5227:5231   */\n      0x20\n        /* \"#utility.yul\":5222:5225   */\n      dup3\n        /* \"#utility.yul\":5218:5232   */\n      add\n        /* \"#utility.yul\":5203:5232   */\n      swap1\n      pop\n        /* \"#utility.yul\":5069:5238   */\n      swap3\n      swap2\n      pop\n      pop\n      jump\t// out\n        /* \"#utility.yul\":5244:5417   */\n    tag_216:\n        /* \"#utility.yul\":5384:5409   */\n      0x496e76616c6964207370656e6465722061646472657373000000000000000000\n        /* \"#utility.yul\":5380:5381   */\n      0x00\n        /* \"#utility.yul\":5372:5378   */\n      dup3\n        /* \"#utility.yul\":5368:5382   */\n      add\n        /* \"#utility.yul\":5361:5410   */\n      mstore\n        /* \"#utility.yul\":5244:5417   */\n      pop\n      jump\t// out\n        /* \"#utility.yul\":5423:5789   */\n    tag_217:\n        /* \"#utility.yul\":5565:5568   */\n      0x00\n        /* \"#utility.yul\":5586:5653   */\n      tag_306\n        /* \"#utility.yul\":5650:5652   */\n      0x17\n        /* \"#utility.yul\":5645:5648   */\n      dup4\n        /* \"#utility.yul\":5586:5653   */\n      tag_215\n      jump\t// in\n    tag_306:\n        /* \"#utility.yul\":5579:5653   */\n      swap2\n      pop\n        /* \"#utility.yul\":5662:5755   */\n      tag_307\n        /* \"#utility.yul\":5751:5754   */\n      dup3\n        /* \"#utility.yul\":5662:5755   */\n      tag_216\n      jump\t// in\n    tag_307:\n        /* \"#utility.yul\":5780:5782   */\n      0x20\n        /* \"#utility.yul\":5775:5778   */\n      dup3\n        /* \"#utility.yul\":5771:5783   */\n      add\n        /* \"#utility.yul\":5764:5783   */\n      swap1\n      pop\n        /* \"#utility.yul\":5423:5789   */\n      swap2\n      swap1\n      pop\n      jump\t// out\n        /* \"#utility.yul\":5795:6214   */\n    tag_79:\n        /* \"#utility.yul\":5961:5965   */\n      0x00\n        /* \"#utility.yul\":5999:6001   */\n      0x20\n        /* \"#utility.yul\":5988:5997   */\n      dup3\n        /* \"#utility.yul\":5984:6002   */\n      add\n        /* \"#utility.yul\":5976:6002   */\n      swap1\n      pop\n        /* \"#utility.yul\":6048:6057   */\n      dup2\n        /* \"#utility.yul\":6042:6046   */\n      dup2\n        /* \"#utility.yul\":6038:6058   */\n      sub\n        /* \"#utility.yul\":6034:6035   */\n      0x00\n        /* \"#utility.yul\":6023:6032   */\n      dup4\n        /* \"#utility.yul\":6019:6036   */\n      add\n        /* \"#utility.yul\":6012:6059   */\n      mstore\n        /* \"#utility.yul\":6076:6207   */\n      tag_309\n        /* \"#utility.yul\":6202:6206   */\n      dup2\n        /* \"#utility.yul\":6076:6207   */\n      tag_217\n      jump\t// in\n    tag_309:\n        /* \"#utility.yul\":6068:6207   */\n      swap1\n      pop\n        /* \"#utility.yul\":5795:6214   */\n      swap2\n      swap1\n      pop\n      jump\t// out\n        /* \"#utility.yul\":6220:6552   */\n    tag_81:\n        /* \"#utility.yul\":6341:6345   */\n      0x00\n        /* \"#utility.yul\":6379:6381   */\n      0x40\n        /* \"#utility.yul\":6368:6377   */\n      dup3\n        /* \"#utility.yul\":6364:6382   */\n      add\n        /* \"#utility.yul\":6356:6382   */\n      swap1\n      pop\n        /* \"#utility.yul\":6392:6463   */\n      tag_311\n        /* \"#utility.yul\":6460:6461   */\n      0x00\n        /* \"#utility.yul\":6449:6458   */\n      dup4\n        /* \"#utility.yul\":6445:6462   */\n      add\n        /* \"#utility.yul\":6436:6442   */\n      dup6\n        /* \"#utility.yul\":6392:6463   */\n      tag_209\n      jump\t// in\n    tag_311:\n        /* \"#utility.yul\":6473:6545   */\n      tag_312\n        /* \"#utility.yul\":6541:6543   */\n      0x20\n        /* \"#utility.yul\":6530:6539   */\n      dup4\n        /* \"#utility.yul\":6526:6544   */\n      add\n        /* \"#utility.yul\":6517:6523   */\n      dup5\n        /* \"#utility.yul\":6473:6545   */\n      tag_208\n      jump\t// in\n    tag_312:\n        /* \"#utility.yul\":6220:6552   */\n      swap4\n      swap3\n      pop\n      pop\n      pop\n      jump\t// out\n        /* \"#utility.yul\":6558:6648   */\n    tag_218:\n        /* \"#utility.yul\":6592:6599   */\n      0x00\n        /* \"#utility.yul\":6635:6640   */\n      dup2\n        /* \"#utility.yul\":6628:6641   */\n      iszero\n        /* \"#utility.yul\":6621:6642   */\n      iszero\n        /* \"#utility.yul\":6610:6642   */\n      swap1\n      pop\n        /* \"#utility.yul\":6558:6648   */\n      swap2\n      swap1\n      pop\n      jump\t// out\n        /* \"#utility.yul\":6654:6770   */\n    tag_219:\n        /* \"#utility.yul\":6724:6745   */\n      tag_315\n        /* \"#utility.yul\":6739:6744   */\n      dup2\n        /* \"#utility.yul\":6724:6745   */\n      tag_218\n      jump\t// in\n    tag_315:\n        /* \"#utility.yul\":6717:6722   */\n      dup2\n        /* \"#utility.yul\":6714:6746   */\n      eq\n        /* \"#utility.yul\":6704:6764   */\n      tag_316\n      jumpi\n        /* \"#utility.yul\":6760:6761   */\n      0x00\n        /* \"#utility.yul\":6757:6758   */\n      dup1\n        /* \"#utility.yul\":6750:6762   */\n      revert\n        /* \"#utility.yul\":6704:6764   */\n    tag_316:\n        /* \"#utility.yul\":6654:6770   */\n      pop\n      jump\t// out\n        /* \"#utility.yul\":6776:6913   */\n    tag_220:\n        /* \"#utility.yul\":6830:6835   */\n      0x00\n        /* \"#utility.yul\":6861:6867   */\n      dup2\n        /* \"#utility.yul\":6855:6868   */\n      mload\n        /* \"#utility.yul\":6846:6868   */\n      swap1\n      pop\n        /* \"#utility.yul\":6877:6907   */\n      tag_318\n        /* \"#utility.yul\":6901:6906   */\n      dup2\n        /* \"#utility.yul\":6877:6907   */\n      tag_219\n      jump\t// in\n    tag_318:\n        /* \"#utility.yul\":6776:6913   */\n      swap3\n      swap2\n      pop\n      pop\n      jump\t// out\n        /* \"#utility.yul\":6919:7264   */\n    tag_85:\n        /* \"#utility.yul\":6986:6992   */\n      0x00\n        /* \"#utility.yul\":7035:7037   */\n      0x20\n        /* \"#utility.yul\":7023:7032   */\n      dup3\n        /* \"#utility.yul\":7014:7021   */\n      dup5\n        /* \"#utility.yul\":7010:7033   */\n      sub\n        /* \"#utility.yul\":7006:7038   */\n      slt\n        /* \"#utility.yul\":7003:7122   */\n      iszero\n      tag_320\n      jumpi\n        /* \"#utility.yul\":7041:7120   */\n      tag_321\n      tag_199\n      jump\t// in\n    tag_321:\n        /* \"#utility.yul\":7003:7122   */\n    tag_320:\n        /* \"#utility.yul\":7161:7162   */\n      0x00\n        /* \"#utility.yul\":7186:7247   */\n      tag_322\n        /* \"#utility.yul\":7239:7246   */\n      dup5\n        /* \"#utility.yul\":7230:7236   */\n      dup3\n        /* \"#utility.yul\":7219:7228   */\n      dup6\n        /* \"#utility.yul\":7215:7237   */\n      add\n        /* \"#utility.yul\":7186:7247   */\n      tag_220\n      jump\t// in\n    tag_322:\n        /* \"#utility.yul\":7176:7247   */\n      swap2\n      pop\n        /* \"#utility.yul\":7132:7257   */\n      pop\n        /* \"#utility.yul\":6919:7264   */\n      swap3\n      swap2\n      pop\n      pop\n      jump\t// out\n        /* \"#utility.yul\":7270:7435   */\n    tag_221:\n        /* \"#utility.yul\":7410:7427   */\n      0x417070726f76616c206661696c65640000000000000000000000000000000000\n        /* \"#utility.yul\":7406:7407   */\n      0x00\n        /* \"#utility.yul\":7398:7404   */\n      dup3\n        /* \"#utility.yul\":7394:7408   */\n      add\n        /* \"#utility.yul\":7387:7428   */\n      mstore\n        /* \"#utility.yul\":7270:7435   */\n      pop\n      jump\t// out\n        /* \"#utility.yul\":7441:7807   */\n    tag_222:\n        /* \"#utility.yul\":7583:7586   */\n      0x00\n        /* \"#utility.yul\":7604:7671   */\n      tag_325\n        /* \"#utility.yul\":7668:7670   */\n      0x0f\n        /* \"#utility.yul\":7663:7666   */\n      dup4\n        /* \"#utility.yul\":7604:7671   */\n      tag_215\n      jump\t// in\n    tag_325:\n        /* \"#utility.yul\":7597:7671   */\n      swap2\n      pop\n        /* \"#utility.yul\":7680:7773   */\n      tag_326\n        /* \"#utility.yul\":7769:7772   */\n      dup3\n        /* \"#utility.yul\":7680:7773   */\n      tag_221\n      jump\t// in\n    tag_326:\n        /* \"#utility.yul\":7798:7800   */\n      0x20\n        /* \"#utility.yul\":7793:7796   */\n      dup3\n        /* \"#utility.yul\":7789:7801   */\n      add\n        /* \"#utility.yul\":7782:7801   */\n      swap1\n      pop\n        /* \"#utility.yul\":7441:7807   */\n      swap2\n      swap1\n      pop\n      jump\t// out\n        /* \"#utility.yul\":7813:8232   */\n    tag_88:\n        /* \"#utility.yul\":7979:7983   */\n      0x00\n        /* \"#utility.yul\":8017:8019   */\n      0x20\n        /* \"#utility.yul\":8006:8015   */\n      dup3\n        /* \"#utility.yul\":8002:8020   */\n      add\n        /* \"#utility.yul\":7994:8020   */\n      swap1\n      pop\n        /* \"#utility.yul\":8066:8075   */\n      dup2\n        /* \"#utility.yul\":8060:8064   */\n      dup2\n        /* \"#utility.yul\":8056:8076   */\n      sub\n        /* \"#utility.yul\":8052:8053   */\n      0x00\n        /* \"#utility.yul\":8041:8050   */\n      dup4\n        /* \"#utility.yul\":8037:8054   */\n      add\n        /* \"#utility.yul\":8030:8077   */\n      mstore\n        /* \"#utility.yul\":8094:8225   */\n      tag_328\n        /* \"#utility.yul\":8220:8224   */\n      dup2\n        /* \"#utility.yul\":8094:8225   */\n      tag_222\n      jump\t// in\n    tag_328:\n        /* \"#utility.yul\":8086:8225   */\n      swap1\n      pop\n        /* \"#utility.yul\":7813:8232   */\n      swap2\n      swap1\n      pop\n      jump\t// out\n        /* \"#utility.yul\":8238:8402   */\n    tag_223:\n        /* \"#utility.yul\":8378:8394   */\n      0x496e76616c696420616d6f756e74000000000000000000000000000000000000\n        /* \"#utility.yul\":8374:8375   */\n      0x00\n        /* \"#utility.yul\":8366:8372   */\n      dup3\n        /* \"#utility.yul\":8362:8376   */\n      add\n        /* \"#utility.yul\":8355:8395   */\n      mstore\n        /* \"#utility.yul\":8238:8402   */\n      pop\n      jump\t// out\n        /* \"#utility.yul\":8408:8774   */\n    tag_224:\n        /* \"#utility.yul\":8550:8553   */\n      0x00\n        /* \"#utility.yul\":8571:8638   */\n      tag_331\n        /* \"#utility.yul\":8635:8637   */\n      0x0e\n        /* \"#utility.yul\":8630:8633   */\n      dup4\n        /* \"#utility.yul\":8571:8638   */\n      tag_215\n      jump\t// in\n    tag_331:\n        /* \"#utility.yul\":8564:8638   */\n      swap2\n      pop\n        /* \"#utility.yul\":8647:8740   */\n      tag_332\n        /* \"#utility.yul\":8736:8739   */\n      dup3\n        /* \"#utility.yul\":8647:8740   */\n      tag_223\n      jump\t// in\n    tag_332:\n        /* \"#utility.yul\":8765:8767   */\n      0x20\n        /* \"#utility.yul\":8760:8763   */\n      dup3\n        /* \"#utility.yul\":8756:8768   */\n      add\n        /* \"#utility.yul\":8749:8768   */\n      swap1\n      pop\n        /* \"#utility.yul\":8408:8774   */\n      swap2\n      swap1\n      pop\n      jump\t// out\n        /* \"#utility.yul\":8780:9199   */\n    tag_94:\n        /* \"#utility.yul\":8946:8950   */\n      0x00\n        /* \"#utility.yul\":8984:8986   */\n      0x20\n        /* \"#utility.yul\":8973:8982   */\n      dup3\n        /* \"#utility.yul\":8969:8987   */\n      add\n        /* \"#utility.yul\":8961:8987   */\n      swap1\n      pop\n        /* \"#utility.yul\":9033:9042   */\n      dup2\n        /* \"#utility.yul\":9027:9031   */\n      dup2\n        /* \"#utility.yul\":9023:9043   */\n      sub\n        /* \"#utility.yul\":9019:9020   */\n      0x00\n        /* \"#utility.yul\":9008:9017   */\n      dup4\n        /* \"#utility.yul\":9004:9021   */\n      add\n        /* \"#utility.yul\":8997:9044   */\n      mstore\n        /* \"#utility.yul\":9061:9192   */\n      tag_334\n        /* \"#utility.yul\":9187:9191   */\n      dup2\n        /* \"#utility.yul\":9061:9192   */\n      tag_224\n      jump\t// in\n    tag_334:\n        /* \"#utility.yul\":9053:9192   */\n      swap1\n      pop\n        /* \"#utility.yul\":8780:9199   */\n      swap2\n      swap1\n      pop\n      jump\t// out\n        /* \"#utility.yul\":9205:9380   */\n    tag_225:\n        /* \"#utility.yul\":9345:9372   */\n      0x496e76616c696420726563697069656e74206164647265737300000000000000\n        /* \"#utility.yul\":9341:9342   */\n      0x00\n        /* \"#utility.yul\":9333:9339   */\n      dup3\n        /* \"#utility.yul\":9329:9343   */\n      add\n        /* \"#utility.yul\":9322:9373   */\n      mstore\n        /* \"#utility.yul\":9205:9380   */\n      pop\n      jump\t// out\n        /* \"#utility.yul\":9386:9752   */\n    tag_226:\n        /* \"#utility.yul\":9528:9531   */\n      0x00\n        /* \"#utility.yul\":9549:9616   */\n      tag_337\n        /* \"#utility.yul\":9613:9615   */\n      0x19\n        /* \"#utility.yul\":9608:9611   */\n      dup4\n        /* \"#utility.yul\":9549:9616   */\n      tag_215\n      jump\t// in\n    tag_337:\n        /* \"#utility.yul\":9542:9616   */\n      swap2\n      pop\n        /* \"#utility.yul\":9625:9718   */\n      tag_338\n        /* \"#utility.yul\":9714:9717   */\n      dup3\n        /* \"#utility.yul\":9625:9718   */\n      tag_225\n      jump\t// in\n    tag_338:\n        /* \"#utility.yul\":9743:9745   */\n      0x20\n        /* \"#utility.yul\":9738:9741   */\n      dup3\n        /* \"#utility.yul\":9734:9746   */\n      add\n        /* \"#utility.yul\":9727:9746   */\n      swap1\n      pop\n        /* \"#utility.yul\":9386:9752   */\n      swap2\n      swap1\n      pop\n      jump\t// out\n        /* \"#utility.yul\":9758:10177   */\n    tag_97:\n        /* \"#utility.yul\":9924:9928   */\n      0x00\n        /* \"#utility.yul\":9962:9964   */\n      0x20\n        /* \"#utility.yul\":9951:9960   */\n      dup3\n        /* \"#utility.yul\":9947:9965   */\n      add\n        /* \"#utility.yul\":9939:9965   */\n      swap1\n      pop\n        /* \"#utility.yul\":10011:10020   */\n      dup2\n        /* \"#utility.yul\":10005:10009   */\n      dup2\n        /* \"#utility.yul\":10001:10021   */\n      sub\n        /* \"#utility.yul\":9997:9998   */\n      0x00\n        /* \"#utility.yul\":9986:9995   */\n      dup4\n        /* \"#utility.yul\":9982:9999   */\n      add\n        /* \"#utility.yul\":9975:10022   */\n      mstore\n        /* \"#utility.yul\":10039:10170   */\n      tag_340\n        /* \"#utility.yul\":10165:10169   */\n      dup2\n        /* \"#utility.yul\":10039:10170   */\n      tag_226\n      jump\t// in\n    tag_340:\n        /* \"#utility.yul\":10031:10170   */\n      swap1\n      pop\n        /* \"#utility.yul\":9758:10177   */\n      swap2\n      swap1\n      pop\n      jump\t// out\n        /* \"#utility.yul\":10183:10365   */\n    tag_227:\n        /* \"#utility.yul\":10323:10357   */\n      0x4e6f7420616c6c6f77656420746f207370656e64207468697320616d6f756e74\n        /* \"#utility.yul\":10319:10320   */\n      0x00\n        /* \"#utility.yul\":10311:10317   */\n      dup3\n        /* \"#utility.yul\":10307:10321   */\n      add\n        /* \"#utility.yul\":10300:10358   */\n      mstore\n        /* \"#utility.yul\":10183:10365   */\n      pop\n      jump\t// out\n        /* \"#utility.yul\":10371:10737   */\n    tag_228:\n        /* \"#utility.yul\":10513:10516   */\n      0x00\n        /* \"#utility.yul\":10534:10601   */\n      tag_343\n        /* \"#utility.yul\":10598:10600   */\n      0x20\n        /* \"#utility.yul\":10593:10596   */\n      dup4\n        /* \"#utility.yul\":10534:10601   */\n      tag_215\n      jump\t// in\n    tag_343:\n        /* \"#utility.yul\":10527:10601   */\n      swap2\n      pop\n        /* \"#utility.yul\":10610:10703   */\n      tag_344\n        /* \"#utility.yul\":10699:10702   */\n      dup3\n        /* \"#utility.yul\":10610:10703   */\n      tag_227\n      jump\t// in\n    tag_344:\n        /* \"#utility.yul\":10728:10730   */\n      0x20\n        /* \"#utility.yul\":10723:10726   */\n      dup3\n        /* \"#utility.yul\":10719:10731   */\n      add\n        /* \"#utility.yul\":10712:10731   */\n      swap1\n      pop\n        /* \"#utility.yul\":10371:10737   */\n      swap2\n      swap1\n      pop\n      jump\t// out\n        /* \"#utility.yul\":10743:11162   */\n    tag_100:\n        /* \"#utility.yul\":10909:10913   */\n      0x00\n        /* \"#utility.yul\":10947:10949   */\n      0x20\n        /* \"#utility.yul\":10936:10945   */\n      dup3\n        /* \"#utility.yul\":10932:10950   */\n      add\n        /* \"#utility.yul\":10924:10950   */\n      swap1\n      pop\n        /* \"#utility.yul\":10996:11005   */\n      dup2\n        /* \"#utility.yul\":10990:10994   */\n      dup2\n        /* \"#utility.yul\":10986:11006   */\n      sub\n        /* \"#utility.yul\":10982:10983   */\n      0x00\n        /* \"#utility.yul\":10971:10980   */\n      dup4\n        /* \"#utility.yul\":10967:10984   */\n      add\n        /* \"#utility.yul\":10960:11007   */\n      mstore\n        /* \"#utility.yul\":11024:11155   */\n      tag_346\n        /* \"#utility.yul\":11150:11154   */\n      dup2\n        /* \"#utility.yul\":11024:11155   */\n      tag_228\n      jump\t// in\n    tag_346:\n        /* \"#utility.yul\":11016:11155   */\n      swap1\n      pop\n        /* \"#utility.yul\":10743:11162   */\n      swap2\n      swap1\n      pop\n      jump\t// out\n        /* \"#utility.yul\":11168:11338   */\n    tag_229:\n        /* \"#utility.yul\":11308:11330   */\n      0x496e73756666696369656e742062616c616e6365000000000000000000000000\n        /* \"#utility.yul\":11304:11305   */\n      0x00\n        /* \"#utility.yul\":11296:11302   */\n      dup3\n        /* \"#utility.yul\":11292:11306   */\n      add\n        /* \"#utility.yul\":11285:11331   */\n      mstore\n        /* \"#utility.yul\":11168:11338   */\n      pop\n      jump\t// out\n        /* \"#utility.yul\":11344:11710   */\n    tag_230:\n        /* \"#utility.yul\":11486:11489   */\n      0x00\n        /* \"#utility.yul\":11507:11574   */\n      tag_349\n        /* \"#utility.yul\":11571:11573   */\n      0x14\n        /* \"#utility.yul\":11566:11569   */\n      dup4\n        /* \"#utility.yul\":11507:11574   */\n      tag_215\n      jump\t// in\n    tag_349:\n        /* \"#utility.yul\":11500:11574   */\n      swap2\n      pop\n        /* \"#utility.yul\":11583:11676   */\n      tag_350\n        /* \"#utility.yul\":11672:11675   */\n      dup3\n        /* \"#utility.yul\":11583:11676   */\n      tag_229\n      jump\t// in\n    tag_350:\n        /* \"#utility.yul\":11701:11703   */\n      0x20\n        /* \"#utility.yul\":11696:11699   */\n      dup3\n        /* \"#utility.yul\":11692:11704   */\n      add\n        /* \"#utility.yul\":11685:11704   */\n      swap1\n      pop\n        /* \"#utility.yul\":11344:11710   */\n      swap2\n      swap1\n      pop\n      jump\t// out\n        /* \"#utility.yul\":11716:12135   */\n    tag_103:\n        /* \"#utility.yul\":11882:11886   */\n      0x00\n        /* \"#utility.yul\":11920:11922   */\n      0x20\n        /* \"#utility.yul\":11909:11918   */\n      dup3\n        /* \"#utility.yul\":11905:11923   */\n      add\n        /* \"#utility.yul\":11897:11923   */\n      swap1\n      pop\n        /* \"#utility.yul\":11969:11978   */\n      dup2\n        /* \"#utility.yul\":11963:11967   */\n      dup2\n        /* \"#utility.yul\":11959:11979   */\n      sub\n        /* \"#utility.yul\":11955:11956   */\n      0x00\n        /* \"#utility.yul\":11944:11953   */\n      dup4\n        /* \"#utility.yul\":11940:11957   */\n      add\n        /* \"#utility.yul\":11933:11980   */\n      mstore\n        /* \"#utility.yul\":11997:12128   */\n      tag_352\n        /* \"#utility.yul\":12123:12127   */\n      dup2\n        /* \"#utility.yul\":11997:12128   */\n      tag_230\n      jump\t// in\n    tag_352:\n        /* \"#utility.yul\":11989:12128   */\n      swap1\n      pop\n        /* \"#utility.yul\":11716:12135   */\n      swap2\n      swap1\n      pop\n      jump\t// out\n        /* \"#utility.yul\":12141:12321   */\n    tag_231:\n        /* \"#utility.yul\":12189:12266   */\n      0x4e487b7100000000000000000000000000000000000000000000000000000000\n        /* \"#utility.yul\":12186:12187   */\n      0x00\n        /* \"#utility.yul\":12179:12267   */\n      mstore\n        /* \"#utility.yul\":12286:12290   */\n      0x11\n        /* \"#utility.yul\":12283:12284   */\n      0x04\n        /* \"#utility.yul\":12276:12291   */\n      mstore\n        /* \"#utility.yul\":12310:12314   */\n      0x24\n        /* \"#utility.yul\":12307:12308   */\n      0x00\n        /* \"#utility.yul\":12300:12315   */\n      revert\n        /* \"#utility.yul\":12327:12521   */\n    tag_105:\n        /* \"#utility.yul\":12367:12371   */\n      0x00\n        /* \"#utility.yul\":12387:12407   */\n      tag_355\n        /* \"#utility.yul\":12405:12406   */\n      dup3\n        /* \"#utility.yul\":12387:12407   */\n      tag_205\n      jump\t// in\n    tag_355:\n        /* \"#utility.yul\":12382:12407   */\n      swap2\n      pop\n        /* \"#utility.yul\":12421:12441   */\n      tag_356\n        /* \"#utility.yul\":12439:12440   */\n      dup4\n        /* \"#utility.yul\":12421:12441   */\n      tag_205\n      jump\t// in\n    tag_356:\n        /* \"#utility.yul\":12416:12441   */\n      swap3\n      pop\n        /* \"#utility.yul\":12465:12466   */\n      dup3\n        /* \"#utility.yul\":12462:12463   */\n      dup3\n        /* \"#utility.yul\":12458:12467   */\n      sub\n        /* \"#utility.yul\":12450:12467   */\n      swap1\n      pop\n        /* \"#utility.yul\":12489:12490   */\n      dup2\n        /* \"#utility.yul\":12483:12487   */\n      dup2\n        /* \"#utility.yul\":12480:12491   */\n      gt\n        /* \"#utility.yul\":12477:12514   */\n      iszero\n      tag_357\n      jumpi\n        /* \"#utility.yul\":12494:12512   */\n      tag_358\n      tag_231\n      jump\t// in\n    tag_358:\n        /* \"#utility.yul\":12477:12514   */\n    tag_357:\n        /* \"#utility.yul\":12327:12521   */\n      swap3\n      swap2\n      pop\n      pop\n      jump\t// out\n        /* \"#utility.yul\":12527:12718   */\n    tag_107:\n        /* \"#utility.yul\":12567:12570   */\n      0x00\n        /* \"#utility.yul\":12586:12606   */\n      tag_360\n        /* \"#utility.yul\":12604:12605   */\n      dup3\n        /* \"#utility.yul\":12586:12606   */\n      tag_205\n      jump\t// in\n    tag_360:\n        /* \"#utility.yul\":12581:12606   */\n      swap2\n      pop\n        /* \"#utility.yul\":12620:12640   */\n      tag_361\n        /* \"#utility.yul\":12638:12639   */\n      dup4\n        /* \"#utility.yul\":12620:12640   */\n      tag_205\n      jump\t// in\n    tag_361:\n        /* \"#utility.yul\":12615:12640   */\n      swap3\n      pop\n        /* \"#utility.yul\":12663:12664   */\n      dup3\n        /* \"#utility.yul\":12660:12661   */\n      dup3\n        /* \"#utility.yul\":12656:12665   */\n      add\n        /* \"#utility.yul\":12649:12665   */\n      swap1\n      pop\n        /* \"#utility.yul\":12684:12687   */\n      dup1\n        /* \"#utility.yul\":12681:12682   */\n      dup3\n        /* \"#utility.yul\":12678:12688   */\n      gt\n        /* \"#utility.yul\":12675:12711   */\n      iszero\n      tag_362\n      jumpi\n        /* \"#utility.yul\":12691:12709   */\n      tag_363\n      tag_231\n      jump\t// in\n    tag_363:\n        /* \"#utility.yul\":12675:12711   */\n    tag_362:\n        /* \"#utility.yul\":12527:12718   */\n      swap3\n      swap2\n      pop\n      pop\n      jump\t// out\n        /* \"#utility.yul\":12724:13166   */\n    tag_134:\n        /* \"#utility.yul\":12873:12877   */\n      0x00\n        /* \"#utility.yul\":12911:12913   */\n      0x60\n        /* \"#utility.yul\":12900:12909   */\n      dup3\n        /* \"#utility.yul\":12896:12914   */\n      add\n        /* \"#utility.yul\":12888:12914   */\n      swap1\n      pop\n        /* \"#utility.yul\":12924:12995   */\n      tag_365\n        /* \"#utility.yul\":12992:12993   */\n      0x00\n        /* \"#utility.yul\":12981:12990   */\n      dup4\n        /* \"#utility.yul\":12977:12994   */\n      add\n        /* \"#utility.yul\":12968:12974   */\n      dup7\n        /* \"#utility.yul\":12924:12995   */\n      tag_209\n      jump\t// in\n    tag_365:\n        /* \"#utility.yul\":13005:13077   */\n      tag_366\n        /* \"#utility.yul\":13073:13075   */\n      0x20\n        /* \"#utility.yul\":13062:13071   */\n      dup4\n        /* \"#utility.yul\":13058:13076   */\n      add\n        /* \"#utility.yul\":13049:13055   */\n      dup6\n        /* \"#utility.yul\":13005:13077   */\n      tag_209\n      jump\t// in\n    tag_366:\n        /* \"#utility.yul\":13087:13159   */\n      tag_367\n        /* \"#utility.yul\":13155:13157   */\n      0x40\n        /* \"#utility.yul\":13144:13153   */\n      dup4\n        /* \"#utility.yul\":13140:13158   */\n      add\n        /* \"#utility.yul\":13131:13137   */\n      dup5\n        /* \"#utility.yul\":13087:13159   */\n      tag_208\n      jump\t// in\n    tag_367:\n        /* \"#utility.yul\":12724:13166   */\n      swap5\n      swap4\n      pop\n      pop\n      pop\n      pop\n      jump\t// out\n        /* \"#utility.yul\":13172:13337   */\n    tag_232:\n        /* \"#utility.yul\":13312:13329   */\n      0x5472616e73666572206661696c65640000000000000000000000000000000000\n        /* \"#utility.yul\":13308:13309   */\n      0x00\n        /* \"#utility.yul\":13300:13306   */\n      dup3\n        /* \"#utility.yul\":13296:13310   */\n      add\n        /* \"#utility.yul\":13289:13330   */\n      mstore\n        /* \"#utility.yul\":13172:13337   */\n      pop\n      jump\t// out\n        /* \"#utility.yul\":13343:13709   */\n    tag_233:\n        /* \"#utility.yul\":13485:13488   */\n      0x00\n        /* \"#utility.yul\":13506:13573   */\n      tag_370\n        /* \"#utility.yul\":13570:13572   */\n      0x0f\n        /* \"#utility.yul\":13565:13568   */\n      dup4\n        /* \"#utility.yul\":13506:13573   */\n      tag_215\n      jump\t// in\n    tag_370:\n        /* \"#utility.yul\":13499:13573   */\n      swap2\n      pop\n        /* \"#utility.yul\":13582:13675   */\n      tag_371\n        /* \"#utility.yul\":13671:13674   */\n      dup3\n        /* \"#utility.yul\":13582:13675   */\n      tag_232\n      jump\t// in\n    tag_371:\n        /* \"#utility.yul\":13700:13702   */\n      0x20\n        /* \"#utility.yul\":13695:13698   */\n      dup3\n        /* \"#utility.yul\":13691:13703   */\n      add\n        /* \"#utility.yul\":13684:13703   */\n      swap1\n      pop\n        /* \"#utility.yul\":13343:13709   */\n      swap2\n      swap1\n      pop\n      jump\t// out\n        /* \"#utility.yul\":13715:14134   */\n    tag_140:\n        /* \"#utility.yul\":13881:13885   */\n      0x00\n        /* \"#utility.yul\":13919:13921   */\n      0x20\n        /* \"#utility.yul\":13908:13917   */\n      dup3\n        /* \"#utility.yul\":13904:13922   */\n      add\n        /* \"#utility.yul\":13896:13922   */\n      swap1\n      pop\n        /* \"#utility.yul\":13968:13977   */\n      dup2\n        /* \"#utility.yul\":13962:13966   */\n      dup2\n        /* \"#utility.yul\":13958:13978   */\n      sub\n        /* \"#utility.yul\":13954:13955   */\n      0x00\n        /* \"#utility.yul\":13943:13952   */\n      dup4\n        /* \"#utility.yul\":13939:13956   */\n      add\n        /* \"#utility.yul\":13932:13979   */\n      mstore\n        /* \"#utility.yul\":13996:14127   */\n      tag_373\n        /* \"#utility.yul\":14122:14126   */\n      dup2\n        /* \"#utility.yul\":13996:14127   */\n      tag_233\n      jump\t// in\n    tag_373:\n        /* \"#utility.yul\":13988:14127   */\n      swap1\n      pop\n        /* \"#utility.yul\":13715:14134   */\n      swap2\n      swap1\n      pop\n      jump\t// out\n        /* \"#utility.yul\":14140:14550   */\n    tag_158:\n        /* \"#utility.yul\":14180:14187   */\n      0x00\n        /* \"#utility.yul\":14203:14223   */\n      tag_375\n        /* \"#utility.yul\":14221:14222   */\n      dup3\n        /* \"#utility.yul\":14203:14223   */\n      tag_205\n      jump\t// in\n    tag_375:\n        /* \"#utility.yul\":14198:14223   */\n      swap2\n      pop\n        /* \"#utility.yul\":14237:14257   */\n      tag_376\n        /* \"#utility.yul\":14255:14256   */\n      dup4\n        /* \"#utility.yul\":14237:14257   */\n      tag_205\n      jump\t// in\n    tag_376:\n        /* \"#utility.yul\":14232:14257   */\n      swap3\n      pop\n        /* \"#utility.yul\":14292:14293   */\n      dup3\n        /* \"#utility.yul\":14289:14290   */\n      dup3\n        /* \"#utility.yul\":14285:14294   */\n      mul\n        /* \"#utility.yul\":14314:14344   */\n      tag_377\n        /* \"#utility.yul\":14332:14343   */\n      dup2\n        /* \"#utility.yul\":14314:14344   */\n      tag_205\n      jump\t// in\n    tag_377:\n        /* \"#utility.yul\":14303:14344   */\n      swap2\n      pop\n        /* \"#utility.yul\":14493:14494   */\n      dup3\n        /* \"#utility.yul\":14484:14491   */\n      dup3\n        /* \"#utility.yul\":14480:14495   */\n      div\n        /* \"#utility.yul\":14477:14478   */\n      dup5\n        /* \"#utility.yul\":14474:14496   */\n      eq\n        /* \"#utility.yul\":14454:14455   */\n      dup4\n        /* \"#utility.yul\":14447:14456   */\n      iszero\n        /* \"#utility.yul\":14427:14510   */\n      or\n        /* \"#utility.yul\":14404:14543   */\n      tag_378\n      jumpi\n        /* \"#utility.yul\":14523:14541   */\n      tag_379\n      tag_231\n      jump\t// in\n    tag_379:\n        /* \"#utility.yul\":14404:14543   */\n    tag_378:\n        /* \"#utility.yul\":14188:14550   */\n      pop\n        /* \"#utility.yul\":14140:14550   */\n      swap3\n      swap2\n      pop\n      pop\n      jump\t// out\n        /* \"#utility.yul\":14556:14736   */\n    tag_234:\n        /* \"#utility.yul\":14604:14681   */\n      0x4e487b7100000000000000000000000000000000000000000000000000000000\n        /* \"#utility.yul\":14601:14602   */\n      0x00\n        /* \"#utility.yul\":14594:14682   */\n      mstore\n        /* \"#utility.yul\":14701:14705   */\n      0x12\n        /* \"#utility.yul\":14698:14699   */\n      0x04\n        /* \"#utility.yul\":14691:14706   */\n      mstore\n        /* \"#utility.yul\":14725:14729   */\n      0x24\n        /* \"#utility.yul\":14722:14723   */\n      0x00\n        /* \"#utility.yul\":14715:14730   */\n      revert\n        /* \"#utility.yul\":14742:14927   */\n    tag_160:\n        /* \"#utility.yul\":14782:14783   */\n      0x00\n        /* \"#utility.yul\":14799:14819   */\n      tag_382\n        /* \"#utility.yul\":14817:14818   */\n      dup3\n        /* \"#utility.yul\":14799:14819   */\n      tag_205\n      jump\t// in\n    tag_382:\n        /* \"#utility.yul\":14794:14819   */\n      swap2\n      pop\n        /* \"#utility.yul\":14833:14853   */\n      tag_383\n        /* \"#utility.yul\":14851:14852   */\n      dup4\n        /* \"#utility.yul\":14833:14853   */\n      tag_205\n      jump\t// in\n    tag_383:\n        /* \"#utility.yul\":14828:14853   */\n      swap3\n      pop\n        /* \"#utility.yul\":14872:14873   */\n      dup3\n        /* \"#utility.yul\":14862:14897   */\n      tag_384\n      jumpi\n        /* \"#utility.yul\":14877:14895   */\n      tag_385\n      tag_234\n      jump\t// in\n    tag_385:\n        /* \"#utility.yul\":14862:14897   */\n    tag_384:\n        /* \"#utility.yul\":14919:14920   */\n      dup3\n        /* \"#utility.yul\":14916:14917   */\n      dup3\n        /* \"#utility.yul\":14912:14921   */\n      div\n        /* \"#utility.yul\":14907:14921   */\n      swap1\n      pop\n        /* \"#utility.yul\":14742:14927   */\n      swap3\n      swap2\n      pop\n      pop\n      jump\t// out\n        /* \"#utility.yul\":14933:15076   */\n    tag_235:\n        /* \"#utility.yul\":14990:14995   */\n      0x00\n        /* \"#utility.yul\":15021:15027   */\n      dup2\n        /* \"#utility.yul\":15015:15028   */\n      mload\n        /* \"#utility.yul\":15006:15028   */\n      swap1\n      pop\n        /* \"#utility.yul\":15037:15070   */\n      tag_387\n        /* \"#utility.yul\":15064:15069   */\n      dup2\n        /* \"#utility.yul\":15037:15070   */\n      tag_206\n      jump\t// in\n    tag_387:\n        /* \"#utility.yul\":14933:15076   */\n      swap3\n      swap2\n      pop\n      pop\n      jump\t// out\n        /* \"#utility.yul\":15082:15433   */\n    tag_168:\n        /* \"#utility.yul\":15152:15158   */\n      0x00\n        /* \"#utility.yul\":15201:15203   */\n      0x20\n        /* \"#utility.yul\":15189:15198   */\n      dup3\n        /* \"#utility.yul\":15180:15187   */\n      dup5\n        /* \"#utility.yul\":15176:15199   */\n      sub\n        /* \"#utility.yul\":15172:15204   */\n      slt\n        /* \"#utility.yul\":15169:15288   */\n      iszero\n      tag_389\n      jumpi\n        /* \"#utility.yul\":15207:15286   */\n      tag_390\n      tag_199\n      jump\t// in\n    tag_390:\n        /* \"#utility.yul\":15169:15288   */\n    tag_389:\n        /* \"#utility.yul\":15327:15328   */\n      0x00\n        /* \"#utility.yul\":15352:15416   */\n      tag_391\n        /* \"#utility.yul\":15408:15415   */\n      dup5\n        /* \"#utility.yul\":15399:15405   */\n      dup3\n        /* \"#utility.yul\":15388:15397   */\n      dup6\n        /* \"#utility.yul\":15384:15406   */\n      add\n        /* \"#utility.yul\":15352:15416   */\n      tag_235\n      jump\t// in\n    tag_391:\n        /* \"#utility.yul\":15342:15416   */\n      swap2\n      pop\n        /* \"#utility.yul\":15298:15426   */\n      pop\n        /* \"#utility.yul\":15082:15433   */\n      swap3\n      swap2\n      pop\n      pop\n      jump\t// out\n        /* \"#utility.yul\":15439:15618   */\n    tag_236:\n        /* \"#utility.yul\":15579:15610   */\n      0x496e73756666696369656e7420636f6e74726163742062616c616e6365000000\n        /* \"#utility.yul\":15575:15576   */\n      0x00\n        /* \"#utility.yul\":15567:15573   */\n      dup3\n        /* \"#utility.yul\":15563:15577   */\n      add\n        /* \"#utility.yul\":15556:15611   */\n      mstore\n        /* \"#utility.yul\":15439:15618   */\n      pop\n      jump\t// out\n        /* \"#utility.yul\":15624:15990   */\n    tag_237:\n        /* \"#utility.yul\":15766:15769   */\n      0x00\n        /* \"#utility.yul\":15787:15854   */\n      tag_394\n        /* \"#utility.yul\":15851:15853   */\n      0x1d\n        /* \"#utility.yul\":15846:15849   */\n      dup4\n        /* \"#utility.yul\":15787:15854   */\n      tag_215\n      jump\t// in\n    tag_394:\n        /* \"#utility.yul\":15780:15854   */\n      swap2\n      pop\n        /* \"#utility.yul\":15863:15956   */\n      tag_395\n        /* \"#utility.yul\":15952:15955   */\n      dup3\n        /* \"#utility.yul\":15863:15956   */\n      tag_236\n      jump\t// in\n    tag_395:\n        /* \"#utility.yul\":15981:15983   */\n      0x20\n        /* \"#utility.yul\":15976:15979   */\n      dup3\n        /* \"#utility.yul\":15972:15984   */\n      add\n        /* \"#utility.yul\":15965:15984   */\n      swap1\n      pop\n        /* \"#utility.yul\":15624:15990   */\n      swap2\n      swap1\n      pop\n      jump\t// out\n        /* \"#utility.yul\":15996:16415   */\n    tag_171:\n        /* \"#utility.yul\":16162:16166   */\n      0x00\n        /* \"#utility.yul\":16200:16202   */\n      0x20\n        /* \"#utility.yul\":16189:16198   */\n      dup3\n        /* \"#utility.yul\":16185:16203   */\n      add\n        /* \"#utility.yul\":16177:16203   */\n      swap1\n      pop\n        /* \"#utility.yul\":16249:16258   */\n      dup2\n        /* \"#utility.yul\":16243:16247   */\n      dup2\n        /* \"#utility.yul\":16239:16259   */\n      sub\n        /* \"#utility.yul\":16235:16236   */\n      0x00\n        /* \"#utility.yul\":16224:16233   */\n      dup4\n        /* \"#utility.yul\":16220:16237   */\n      add\n        /* \"#utility.yul\":16213:16260   */\n      mstore\n        /* \"#utility.yul\":16277:16408   */\n      tag_397\n        /* \"#utility.yul\":16403:16407   */\n      dup2\n        /* \"#utility.yul\":16277:16408   */\n      tag_237\n      jump\t// in\n    tag_397:\n        /* \"#utility.yul\":16269:16408   */\n      swap1\n      pop\n        /* \"#utility.yul\":15996:16415   */\n      swap2\n      swap1\n      pop\n      jump\t// out\n        /* \"#utility.yul\":16421:16590   */\n    tag_238:\n        /* \"#utility.yul\":16561:16582   */\n      0x466565207472616e73666572206661696c656400000000000000000000000000\n        /* \"#utility.yul\":16557:16558   */\n      0x00\n        /* \"#utility.yul\":16549:16555   */\n      dup3\n        /* \"#utility.yul\":16545:16559   */\n      add\n        /* \"#utility.yul\":16538:16583   */\n      mstore\n        /* \"#utility.yul\":16421:16590   */\n      pop\n      jump\t// out\n        /* \"#utility.yul\":16596:16962   */\n    tag_239:\n        /* \"#utility.yul\":16738:16741   */\n      0x00\n        /* \"#utility.yul\":16759:16826   */\n      tag_400\n        /* \"#utility.yul\":16823:16825   */\n      0x13\n        /* \"#utility.yul\":16818:16821   */\n      dup4\n        /* \"#utility.yul\":16759:16826   */\n      tag_215\n      jump\t// in\n    tag_400:\n        /* \"#utility.yul\":16752:16826   */\n      swap2\n      pop\n        /* \"#utility.yul\":16835:16928   */\n      tag_401\n        /* \"#utility.yul\":16924:16927   */\n      dup3\n        /* \"#utility.yul\":16835:16928   */\n      tag_238\n      jump\t// in\n    tag_401:\n        /* \"#utility.yul\":16953:16955   */\n      0x20\n        /* \"#utility.yul\":16948:16951   */\n      dup3\n        /* \"#utility.yul\":16944:16956   */\n      add\n        /* \"#utility.yul\":16937:16956   */\n      swap1\n      pop\n        /* \"#utility.yul\":16596:16962   */\n      swap2\n      swap1\n      pop\n      jump\t// out\n        /* \"#utility.yul\":16968:17387   */\n    tag_186:\n        /* \"#utility.yul\":17134:17138   */\n      0x00\n        /* \"#utility.yul\":17172:17174   */\n      0x20\n        /* \"#utility.yul\":17161:17170   */\n      dup3\n        /* \"#utility.yul\":17157:17175   */\n      add\n        /* \"#utility.yul\":17149:17175   */\n      swap1\n      pop\n        /* \"#utility.yul\":17221:17230   */\n      dup2\n        /* \"#utility.yul\":17215:17219   */\n      dup2\n        /* \"#utility.yul\":17211:17231   */\n      sub\n        /* \"#utility.yul\":17207:17208   */\n      0x00\n        /* \"#utility.yul\":17196:17205   */\n      dup4\n        /* \"#utility.yul\":17192:17209   */\n      add\n        /* \"#utility.yul\":17185:17232   */\n      mstore\n        /* \"#utility.yul\":17249:17380   */\n      tag_403\n        /* \"#utility.yul\":17375:17379   */\n      dup2\n        /* \"#utility.yul\":17249:17380   */\n      tag_239\n      jump\t// in\n    tag_403:\n        /* \"#utility.yul\":17241:17380   */\n      swap1\n      pop\n        /* \"#utility.yul\":16968:17387   */\n      swap2\n      swap1\n      pop\n      jump\t// out\n        /* \"#utility.yul\":17393:17725   */\n    tag_188:\n        /* \"#utility.yul\":17514:17518   */\n      0x00\n        /* \"#utility.yul\":17552:17554   */\n      0x40\n        /* \"#utility.yul\":17541:17550   */\n      dup3\n        /* \"#utility.yul\":17537:17555   */\n      add\n        /* \"#utility.yul\":17529:17555   */\n      swap1\n      pop\n        /* \"#utility.yul\":17565:17636   */\n      tag_405\n        /* \"#utility.yul\":17633:17634   */\n      0x00\n        /* \"#utility.yul\":17622:17631   */\n      dup4\n        /* \"#utility.yul\":17618:17635   */\n      add\n        /* \"#utility.yul\":17609:17615   */\n      dup6\n        /* \"#utility.yul\":17565:17636   */\n      tag_208\n      jump\t// in\n    tag_405:\n        /* \"#utility.yul\":17646:17718   */\n      tag_406\n        /* \"#utility.yul\":17714:17716   */\n      0x20\n        /* \"#utility.yul\":17703:17712   */\n      dup4\n        /* \"#utility.yul\":17699:17717   */\n      add\n        /* \"#utility.yul\":17690:17696   */\n      dup5\n        /* \"#utility.yul\":17646:17718   */\n      tag_208\n      jump\t// in\n    tag_406:\n        /* \"#utility.yul\":17393:17725   */\n      swap4\n      swap3\n      pop\n      pop\n      pop\n      jump\t// out\n\n    auxdata: 0xa2646970667358221220435f14339e0072339650493843174a26e140f703f87ea746cb2e35cad2b24c1d64736f6c63430008160033\n}\n",
				"bytecode": {
					"linkReferences": {},
					"object": "608060405234801562000010575f80fd5b5060405162002154380380620021548339818101604052810190620000369190620002da565b335f73ffffffffffffffffffffffffffffffffffffffff168173ffffffffffffffffffffffffffffffffffffffff1603620000aa575f6040517f1e4fbdf7000000000000000000000000000000000000000000000000000000008152600401620000a1919062000330565b60405180910390fd5b620000bb816200017c60201b60201c565b505f73ffffffffffffffffffffffffffffffffffffffff168273ffffffffffffffffffffffffffffffffffffffff16036200012d576040517f08c379a00000000000000000000000000000000000000000000000000000000081526004016200012490620003a9565b60405180910390fd5b806003819055508160045f6101000a81548173ffffffffffffffffffffffffffffffffffffffff021916908373ffffffffffffffffffffffffffffffffffffffff1602179055505050620003c9565b5f805f9054906101000a900473ffffffffffffffffffffffffffffffffffffffff169050815f806101000a81548173ffffffffffffffffffffffffffffffffffffffff021916908373ffffffffffffffffffffffffffffffffffffffff1602179055508173ffffffffffffffffffffffffffffffffffffffff168173ffffffffffffffffffffffffffffffffffffffff167f8be0079c531659141344cd1fd0a4f28419497f9722a3daafe3b4186f6b6457e060405160405180910390a35050565b5f80fd5b5f73ffffffffffffffffffffffffffffffffffffffff82169050919050565b5f6200026c8262000241565b9050919050565b6200027e8162000260565b811462000289575f80fd5b50565b5f815190506200029c8162000273565b92915050565b5f819050919050565b620002b681620002a2565b8114620002c1575f80fd5b50565b5f81519050620002d481620002ab565b92915050565b5f8060408385031215620002f357620002f26200023d565b5b5f62000302858286016200028c565b92505060206200031585828601620002c4565b9150509250929050565b6200032a8162000260565b82525050565b5f602082019050620003455f8301846200031f565b92915050565b5f82825260208201905092915050565b7f496e76616c696420746f6b656e206164647265737300000000000000000000005f82015250565b5f620003916015836200034b565b91506200039e826200035b565b602082019050919050565b5f6020820190508181035f830152620003c28162000383565b9050919050565b611d7d80620003d75f395ff3fe608060405234801561000f575f80fd5b50600436106100f3575f3560e01c8063a001ecdd11610095578063dd62ed3e11610064578063dd62ed3e14610247578063f2fde38b14610277578063f3fef3a314610293578063fc0c546a146102af576100f3565b8063a001ecdd146101d5578063a9059cbb146101f3578063ae06c1b71461020f578063b6b55f251461022b576100f3565b806327e235e3116100d157806327e235e31461014d5780635c6581651461017d578063715018a6146101ad5780638da5cb5b146101b7576100f3565b8063095ea7b3146100f757806312065fe01461011357806323b872dd14610131575b5f80fd5b610111600480360381019061010c9190611556565b6102cd565b005b61011b6104fc565b60405161012891906115a3565b60405180910390f35b61014b600480360381019061014691906115bc565b610540565b005b6101676004803603810190610162919061160c565b6108c9565b60405161017491906115a3565b60405180910390f35b61019760048036038101906101929190611637565b6108de565b6040516101a491906115a3565b60405180910390f35b6101b56108fe565b005b6101bf610911565b6040516101cc9190611684565b60405180910390f35b6101dd610938565b6040516101ea91906115a3565b60405180910390f35b61020d60048036038101906102089190611556565b61093e565b005b6102296004803603810190610224919061169d565b610b7d565b005b6102456004803603810190610240919061169d565b610b8f565b005b610261600480360381019061025c9190611637565b610d52565b60405161026e91906115a3565b60405180910390f35b610291600480360381019061028c919061160c565b610dd4565b005b6102ad60048036038101906102a89190611556565b610e58565b005b6102b7611351565b6040516102c49190611723565b60405180910390f35b5f73ffffffffffffffffffffffffffffffffffffffff168273ffffffffffffffffffffffffffffffffffffffff160361033b576040517f08c379a000000000000000000000000000000000000000000000000000000000815260040161033290611796565b60405180910390fd5b8060025f3373ffffffffffffffffffffffffffffffffffffffff1673ffffffffffffffffffffffffffffffffffffffff1681526020019081526020015f205f8473ffffffffffffffffffffffffffffffffffffffff1673ffffffffffffffffffffffffffffffffffffffff1681526020019081526020015f208190555060045f9054906101000a900473ffffffffffffffffffffffffffffffffffffffff1673ffffffffffffffffffffffffffffffffffffffff1663095ea7b383836040518363ffffffff1660e01b81526004016104149291906117b4565b6020604051808303815f875af1158015610430573d5f803e3d5ffd5b505050506040513d601f19601f820116820180604052508101906104549190611810565b610493576040517f08c379a000000000000000000000000000000000000000000000000000000000815260040161048a90611885565b60405180910390fd5b8173ffffffffffffffffffffffffffffffffffffffff163373ffffffffffffffffffffffffffffffffffffffff167f8c5be1e5ebec7d5bd14f71427d1e84f3dd0314c0f7b2291e5b200ac8c7c3b925836040516104f091906115a3565b60405180910390a35050565b5f60015f3373ffffffffffffffffffffffffffffffffffffffff1673ffffffffffffffffffffffffffffffffffffffff1681526020019081526020015f2054905090565b5f8111610582576040517f08c379a0000000000000000000000000000000000000000000000000000000008152600401610579906118ed565b60405180910390fd5b5f73ffffffffffffffffffffffffffffffffffffffff168273ffffffffffffffffffffffffffffffffffffffff16036105f0576040517f08c379a00000000000000000000000000000000000000000000000000000000081526004016105e790611955565b60405180910390fd5b60025f8473ffffffffffffffffffffffffffffffffffffffff1673ffffffffffffffffffffffffffffffffffffffff1681526020019081526020015f205f3373ffffffffffffffffffffffffffffffffffffffff1673ffffffffffffffffffffffffffffffffffffffff1681526020019081526020015f20548111156106ab576040517f08c379a00000000000000000000000000000000000000000000000000000000081526004016106a2906119bd565b60405180910390fd5b60015f8473ffffffffffffffffffffffffffffffffffffffff1673ffffffffffffffffffffffffffffffffffffffff1681526020019081526020015f205481111561072b576040517f08c379a000000000000000000000000000000000000000000000000000000000815260040161072290611a25565b60405180910390fd5b8060015f8573ffffffffffffffffffffffffffffffffffffffff1673ffffffffffffffffffffffffffffffffffffffff1681526020019081526020015f205f8282546107779190611a70565b925050819055508060015f8473ffffffffffffffffffffffffffffffffffffffff1673ffffffffffffffffffffffffffffffffffffffff1681526020019081526020015f205f8282546107ca9190611aa3565b925050819055508060025f8573ffffffffffffffffffffffffffffffffffffffff1673ffffffffffffffffffffffffffffffffffffffff1681526020019081526020015f205f3373ffffffffffffffffffffffffffffffffffffffff1673ffffffffffffffffffffffffffffffffffffffff1681526020019081526020015f205f8282546108589190611a70565b925050819055508173ffffffffffffffffffffffffffffffffffffffff168373ffffffffffffffffffffffffffffffffffffffff167fddf252ad1be2c89b69c2b068fc378daa952ba7f163c4a11628f55a4df523b3ef836040516108bc91906115a3565b60405180910390a3505050565b6001602052805f5260405f205f915090505481565b6002602052815f5260405f20602052805f5260405f205f91509150505481565b610906611376565b61090f5f6113fd565b565b5f805f9054906101000a900473ffffffffffffffffffffffffffffffffffffffff16905090565b60035481565b5f8111610980576040517f08c379a0000000000000000000000000000000000000000000000000000000008152600401610977906118ed565b60405180910390fd5b60015f3373ffffffffffffffffffffffffffffffffffffffff1673ffffffffffffffffffffffffffffffffffffffff1681526020019081526020015f2054811115610a00576040517f08c379a00000000000000000000000000000000000000000000000000000000081526004016109f790611a25565b60405180910390fd5b5f73ffffffffffffffffffffffffffffffffffffffff168273ffffffffffffffffffffffffffffffffffffffff1603610a6e576040517f08c379a0000000000000000000000000000000000000000000000000000000008152600401610a6590611955565b60405180910390fd5b8060015f3373ffffffffffffffffffffffffffffffffffffffff1673ffffffffffffffffffffffffffffffffffffffff1681526020019081526020015f205f828254610aba9190611a70565b925050819055508060015f8473ffffffffffffffffffffffffffffffffffffffff1673ffffffffffffffffffffffffffffffffffffffff1681526020019081526020015f205f828254610b0d9190611aa3565b925050819055508173ffffffffffffffffffffffffffffffffffffffff163373ffffffffffffffffffffffffffffffffffffffff167fddf252ad1be2c89b69c2b068fc378daa952ba7f163c4a11628f55a4df523b3ef83604051610b7191906115a3565b60405180910390a35050565b610b85611376565b8060038190555050565b5f8111610bd1576040517f08c379a0000000000000000000000000000000000000000000000000000000008152600401610bc8906118ed565b60405180910390fd5b60045f9054906101000a900473ffffffffffffffffffffffffffffffffffffffff1673ffffffffffffffffffffffffffffffffffffffff166323b872dd3330846040518463ffffffff1660e01b8152600401610c2f93929190611ad6565b6020604051808303815f875af1158015610c4b573d5f803e3d5ffd5b505050506040513d601f19601f82011682018060405250810190610c6f9190611810565b610cae576040517f08c379a0000000000000000000000000000000000000000000000000000000008152600401610ca590611b55565b60405180910390fd5b8060015f3373ffffffffffffffffffffffffffffffffffffffff1673ffffffffffffffffffffffffffffffffffffffff1681526020019081526020015f205f828254610cfa9190611aa3565b925050819055503373ffffffffffffffffffffffffffffffffffffffff167fe1fffcc4923d04b559f4d29a8bfc6cda04eb5b0d3c460751c2402c5c5cc9109c82604051610d4791906115a3565b60405180910390a250565b5f60025f8473ffffffffffffffffffffffffffffffffffffffff1673ffffffffffffffffffffffffffffffffffffffff1681526020019081526020015f205f8373ffffffffffffffffffffffffffffffffffffffff1673ffffffffffffffffffffffffffffffffffffffff1681526020019081526020015f2054905092915050565b610ddc611376565b5f73ffffffffffffffffffffffffffffffffffffffff168173ffffffffffffffffffffffffffffffffffffffff1603610e4c575f6040517f1e4fbdf7000000000000000000000000000000000000000000000000000000008152600401610e439190611684565b60405180910390fd5b610e55816113fd565b50565b5f8111610e9a576040517f08c379a0000000000000000000000000000000000000000000000000000000008152600401610e91906118ed565b60405180910390fd5b60015f3373ffffffffffffffffffffffffffffffffffffffff1673ffffffffffffffffffffffffffffffffffffffff1681526020019081526020015f2054811115610f1a576040517f08c379a0000000000000000000000000000000000000000000000000000000008152600401610f1190611a25565b60405180910390fd5b5f73ffffffffffffffffffffffffffffffffffffffff168273ffffffffffffffffffffffffffffffffffffffff1603610f88576040517f08c379a0000000000000000000000000000000000000000000000000000000008152600401610f7f90611955565b60405180910390fd5b5f606460035483610f999190611b73565b610fa39190611be1565b90505f8183610fb29190611a70565b90508260015f3373ffffffffffffffffffffffffffffffffffffffff1673ffffffffffffffffffffffffffffffffffffffff1681526020019081526020015f205f8282546110009190611a70565b925050819055508260015f8673ffffffffffffffffffffffffffffffffffffffff1673ffffffffffffffffffffffffffffffffffffffff1681526020019081526020015f205f8282546110539190611aa3565b925050819055508060045f9054906101000a900473ffffffffffffffffffffffffffffffffffffffff1673ffffffffffffffffffffffffffffffffffffffff166370a08231306040518263ffffffff1660e01b81526004016110b59190611684565b602060405180830381865afa1580156110d0573d5f803e3d5ffd5b505050506040513d601f19601f820116820180604052508101906110f49190611c25565b1015611135576040517f08c379a000000000000000000000000000000000000000000000000000000000815260040161112c90611c9a565b60405180910390fd5b60045f9054906101000a900473ffffffffffffffffffffffffffffffffffffffff1673ffffffffffffffffffffffffffffffffffffffff1663a9059cbb33836040518363ffffffff1660e01b81526004016111919291906117b4565b6020604051808303815f875af11580156111ad573d5f803e3d5ffd5b505050506040513d601f19601f820116820180604052508101906111d19190611810565b611210576040517f08c379a000000000000000000000000000000000000000000000000000000000815260040161120790611b55565b60405180910390fd5b5f8211156112fb5760045f9054906101000a900473ffffffffffffffffffffffffffffffffffffffff1673ffffffffffffffffffffffffffffffffffffffff1663a9059cbb61125d610911565b846040518363ffffffff1660e01b815260040161127b9291906117b4565b6020604051808303815f875af1158015611297573d5f803e3d5ffd5b505050506040513d601f19601f820116820180604052508101906112bb9190611810565b6112fa576040517f08c379a00000000000000000000000000000000000000000000000000000000081526004016112f190611d02565b60405180910390fd5b5b8373ffffffffffffffffffffffffffffffffffffffff167ff279e6a1f5e320cca91135676d9cb6e44ca8a08c0b88342bcdb1144f6511b5688484604051611343929190611d20565b60405180910390a250505050565b60045f9054906101000a900473ffffffffffffffffffffffffffffffffffffffff1681565b61137e6114be565b73ffffffffffffffffffffffffffffffffffffffff1661139c610911565b73ffffffffffffffffffffffffffffffffffffffff16146113fb576113bf6114be565b6040517f118cdaa70000000000000000000000000000000000000000000000000000000081526004016113f29190611684565b60405180910390fd5b565b5f805f9054906101000a900473ffffffffffffffffffffffffffffffffffffffff169050815f806101000a81548173ffffffffffffffffffffffffffffffffffffffff021916908373ffffffffffffffffffffffffffffffffffffffff1602179055508173ffffffffffffffffffffffffffffffffffffffff168173ffffffffffffffffffffffffffffffffffffffff167f8be0079c531659141344cd1fd0a4f28419497f9722a3daafe3b4186f6b6457e060405160405180910390a35050565b5f33905090565b5f80fd5b5f73ffffffffffffffffffffffffffffffffffffffff82169050919050565b5f6114f2826114c9565b9050919050565b611502816114e8565b811461150c575f80fd5b50565b5f8135905061151d816114f9565b92915050565b5f819050919050565b61153581611523565b811461153f575f80fd5b50565b5f813590506115508161152c565b92915050565b5f806040838503121561156c5761156b6114c5565b5b5f6115798582860161150f565b925050602061158a85828601611542565b9150509250929050565b61159d81611523565b82525050565b5f6020820190506115b65f830184611594565b92915050565b5f805f606084860312156115d3576115d26114c5565b5b5f6115e08682870161150f565b93505060206115f18682870161150f565b925050604061160286828701611542565b9150509250925092565b5f60208284031215611621576116206114c5565b5b5f61162e8482850161150f565b91505092915050565b5f806040838503121561164d5761164c6114c5565b5b5f61165a8582860161150f565b925050602061166b8582860161150f565b9150509250929050565b61167e816114e8565b82525050565b5f6020820190506116975f830184611675565b92915050565b5f602082840312156116b2576116b16114c5565b5b5f6116bf84828501611542565b91505092915050565b5f819050919050565b5f6116eb6116e66116e1846114c9565b6116c8565b6114c9565b9050919050565b5f6116fc826116d1565b9050919050565b5f61170d826116f2565b9050919050565b61171d81611703565b82525050565b5f6020820190506117365f830184611714565b92915050565b5f82825260208201905092915050565b7f496e76616c6964207370656e64657220616464726573730000000000000000005f82015250565b5f61178060178361173c565b915061178b8261174c565b602082019050919050565b5f6020820190508181035f8301526117ad81611774565b9050919050565b5f6040820190506117c75f830185611675565b6117d46020830184611594565b9392505050565b5f8115159050919050565b6117ef816117db565b81146117f9575f80fd5b50565b5f8151905061180a816117e6565b92915050565b5f60208284031215611825576118246114c5565b5b5f611832848285016117fc565b91505092915050565b7f417070726f76616c206661696c656400000000000000000000000000000000005f82015250565b5f61186f600f8361173c565b915061187a8261183b565b602082019050919050565b5f6020820190508181035f83015261189c81611863565b9050919050565b7f496e76616c696420616d6f756e740000000000000000000000000000000000005f82015250565b5f6118d7600e8361173c565b91506118e2826118a3565b602082019050919050565b5f6020820190508181035f830152611904816118cb565b9050919050565b7f496e76616c696420726563697069656e742061646472657373000000000000005f82015250565b5f61193f60198361173c565b915061194a8261190b565b602082019050919050565b5f6020820190508181035f83015261196c81611933565b9050919050565b7f4e6f7420616c6c6f77656420746f207370656e64207468697320616d6f756e745f82015250565b5f6119a760208361173c565b91506119b282611973565b602082019050919050565b5f6020820190508181035f8301526119d48161199b565b9050919050565b7f496e73756666696369656e742062616c616e63650000000000000000000000005f82015250565b5f611a0f60148361173c565b9150611a1a826119db565b602082019050919050565b5f6020820190508181035f830152611a3c81611a03565b9050919050565b7f4e487b71000000000000000000000000000000000000000000000000000000005f52601160045260245ffd5b5f611a7a82611523565b9150611a8583611523565b9250828203905081811115611a9d57611a9c611a43565b5b92915050565b5f611aad82611523565b9150611ab883611523565b9250828201905080821115611ad057611acf611a43565b5b92915050565b5f606082019050611ae95f830186611675565b611af66020830185611675565b611b036040830184611594565b949350505050565b7f5472616e73666572206661696c656400000000000000000000000000000000005f82015250565b5f611b3f600f8361173c565b9150611b4a82611b0b565b602082019050919050565b5f6020820190508181035f830152611b6c81611b33565b9050919050565b5f611b7d82611523565b9150611b8883611523565b9250828202611b9681611523565b91508282048414831517611bad57611bac611a43565b5b5092915050565b7f4e487b71000000000000000000000000000000000000000000000000000000005f52601260045260245ffd5b5f611beb82611523565b9150611bf683611523565b925082611c0657611c05611bb4565b5b828204905092915050565b5f81519050611c1f8161152c565b92915050565b5f60208284031215611c3a57611c396114c5565b5b5f611c4784828501611c11565b91505092915050565b7f496e73756666696369656e7420636f6e74726163742062616c616e63650000005f82015250565b5f611c84601d8361173c565b9150611c8f82611c50565b602082019050919050565b5f6020820190508181035f830152611cb181611c78565b9050919050565b7f466565207472616e73666572206661696c6564000000000000000000000000005f82015250565b5f611cec60138361173c565b9150611cf782611cb8565b602082019050919050565b5f6020820190508181035f830152611d1981611ce0565b9050919050565b5f604082019050611d335f830185611594565b611d406020830184611594565b939250505056fea2646970667358221220435f14339e0072339650493843174a26e140f703f87ea746cb2e35cad2b24c1d64736f6c63430008160033",
					"opcodes": "PUSH1 0x80 PUSH1 0x40 MSTORE CALLVALUE DUP1 ISZERO PUSH3 0x10 JUMPI PUSH0 DUP1 REVERT JUMPDEST POP PUSH1 0x40 MLOAD PUSH3 0x2154 CODESIZE SUB DUP1 PUSH3 0x2154 DUP4 CODECOPY DUP2 DUP2 ADD PUSH1 0x40 MSTORE DUP2 ADD SWAP1 PUSH3 0x36 SWAP2 SWAP1 PUSH3 0x2DA JUMP JUMPDEST CALLER PUSH0 PUSH20 0xFFFFFFFFFFFFFFFFFFFFFFFFFFFFFFFFFFFFFFFF AND DUP2 PUSH20 0xFFFFFFFFFFFFFFFFFFFFFFFFFFFFFFFFFFFFFFFF AND SUB PUSH3 0xAA JUMPI PUSH0 PUSH1 0x40 MLOAD PUSH32 0x1E4FBDF700000000000000000000000000000000000000000000000000000000 DUP2 MSTORE PUSH1 0x4 ADD PUSH3 0xA1 SWAP2 SWAP1 PUSH3 0x330 JUMP JUMPDEST PUSH1 0x40 MLOAD DUP1 SWAP2 SUB SWAP1 REVERT JUMPDEST PUSH3 0xBB DUP2 PUSH3 0x17C PUSH1 0x20 SHL PUSH1 0x20 SHR JUMP JUMPDEST POP PUSH0 PUSH20 0xFFFFFFFFFFFFFFFFFFFFFFFFFFFFFFFFFFFFFFFF AND DUP3 PUSH20 0xFFFFFFFFFFFFFFFFFFFFFFFFFFFFFFFFFFFFFFFF AND SUB PUSH3 0x12D JUMPI PUSH1 0x40 MLOAD PUSH32 0x8C379A000000000000000000000000000000000000000000000000000000000 DUP2 MSTORE PUSH1 0x4 ADD PUSH3 0x124 SWAP1 PUSH3 0x3A9 JUMP JUMPDEST PUSH1 0x40 MLOAD DUP1 SWAP2 SUB SWAP1 REVERT JUMPDEST DUP1 PUSH1 0x3 DUP2 SWAP1 SSTORE POP DUP2 PUSH1 0x4 PUSH0 PUSH2 0x100 EXP DUP2 SLOAD DUP2 PUSH20 0xFFFFFFFFFFFFFFFFFFFFFFFFFFFFFFFFFFFFFFFF MUL NOT AND SWAP1 DUP4 PUSH20 0xFFFFFFFFFFFFFFFFFFFFFFFFFFFFFFFFFFFFFFFF AND MUL OR SWAP1 SSTORE POP POP POP PUSH3 0x3C9 JUMP JUMPDEST PUSH0 DUP1 PUSH0 SWAP1 SLOAD SWAP1 PUSH2 0x100 EXP SWAP1 DIV PUSH20 0xFFFFFFFFFFFFFFFFFFFFFFFFFFFFFFFFFFFFFFFF AND SWAP1 POP DUP2 PUSH0 DUP1 PUSH2 0x100 EXP DUP2 SLOAD DUP2 PUSH20 0xFFFFFFFFFFFFFFFFFFFFFFFFFFFFFFFFFFFFFFFF MUL NOT AND SWAP1 DUP4 PUSH20 0xFFFFFFFFFFFFFFFFFFFFFFFFFFFFFFFFFFFFFFFF AND MUL OR SWAP1 SSTORE POP DUP2 PUSH20 0xFFFFFFFFFFFFFFFFFFFFFFFFFFFFFFFFFFFFFFFF AND DUP2 PUSH20 0xFFFFFFFFFFFFFFFFFFFFFFFFFFFFFFFFFFFFFFFF AND PUSH32 0x8BE0079C531659141344CD1FD0A4F28419497F9722A3DAAFE3B4186F6B6457E0 PUSH1 0x40 MLOAD PUSH1 0x40 MLOAD DUP1 SWAP2 SUB SWAP1 LOG3 POP POP JUMP JUMPDEST PUSH0 DUP1 REVERT JUMPDEST PUSH0 PUSH20 0xFFFFFFFFFFFFFFFFFFFFFFFFFFFFFFFFFFFFFFFF DUP3 AND SWAP1 POP SWAP2 SWAP1 POP JUMP JUMPDEST PUSH0 PUSH3 0x26C DUP3 PUSH3 0x241 JUMP JUMPDEST SWAP1 POP SWAP2 SWAP1 POP JUMP JUMPDEST PUSH3 0x27E DUP2 PUSH3 0x260 JUMP JUMPDEST DUP2 EQ PUSH3 0x289 JUMPI PUSH0 DUP1 REVERT JUMPDEST POP JUMP JUMPDEST PUSH0 DUP2 MLOAD SWAP1 POP PUSH3 0x29C DUP2 PUSH3 0x273 JUMP JUMPDEST SWAP3 SWAP2 POP POP JUMP JUMPDEST PUSH0 DUP2 SWAP1 POP SWAP2 SWAP1 POP JUMP JUMPDEST PUSH3 0x2B6 DUP2 PUSH3 0x2A2 JUMP JUMPDEST DUP2 EQ PUSH3 0x2C1 JUMPI PUSH0 DUP1 REVERT JUMPDEST POP JUMP JUMPDEST PUSH0 DUP2 MLOAD SWAP1 POP PUSH3 0x2D4 DUP2 PUSH3 0x2AB JUMP JUMPDEST SWAP3 SWAP2 POP POP JUMP JUMPDEST PUSH0 DUP1 PUSH1 0x40 DUP4 DUP6 SUB SLT ISZERO PUSH3 0x2F3 JUMPI PUSH3 0x2F2 PUSH3 0x23D JUMP JUMPDEST JUMPDEST PUSH0 PUSH3 0x302 DUP6 DUP3 DUP7 ADD PUSH3 0x28C JUMP JUMPDEST SWAP3 POP POP PUSH1 0x20 PUSH3 0x315 DUP6 DUP3 DUP7 ADD PUSH3 0x2C4 JUMP JUMPDEST SWAP2 POP POP SWAP3 POP SWAP3 SWAP1 POP JUMP JUMPDEST PUSH3 0x32A DUP2 PUSH3 0x260 JUMP JUMPDEST DUP3 MSTORE POP POP JUMP JUMPDEST PUSH0 PUSH1 0x20 DUP3 ADD SWAP1 POP PUSH3 0x345 PUSH0 DUP4 ADD DUP5 PUSH3 0x31F JUMP JUMPDEST SWAP3 SWAP2 POP POP JUMP JUMPDEST PUSH0 DUP3 DUP3 MSTORE PUSH1 0x20 DUP3 ADD SWAP1 POP SWAP3 SWAP2 POP POP JUMP JUMPDEST PUSH32 0x496E76616C696420746F6B656E20616464726573730000000000000000000000 PUSH0 DUP3 ADD MSTORE POP JUMP JUMPDEST PUSH0 PUSH3 0x391 PUSH1 0x15 DUP4 PUSH3 0x34B JUMP JUMPDEST SWAP2 POP PUSH3 0x39E DUP3 PUSH3 0x35B JUMP JUMPDEST PUSH1 0x20 DUP3 ADD SWAP1 POP SWAP2 SWAP1 POP JUMP JUMPDEST PUSH0 PUSH1 0x20 DUP3 ADD SWAP1 POP DUP2 DUP2 SUB PUSH0 DUP4 ADD MSTORE PUSH3 0x3C2 DUP2 PUSH3 0x383 JUMP JUMPDEST SWAP1 POP SWAP2 SWAP1 POP JUMP JUMPDEST PUSH2 0x1D7D DUP1 PUSH3 0x3D7 PUSH0 CODECOPY PUSH0 RETURN INVALID PUSH1 0x80 PUSH1 0x40 MSTORE CALLVALUE DUP1 ISZERO PUSH2 0xF JUMPI PUSH0 DUP1 REVERT JUMPDEST POP PUSH1 0x4 CALLDATASIZE LT PUSH2 0xF3 JUMPI PUSH0 CALLDATALOAD PUSH1 0xE0 SHR DUP1 PUSH4 0xA001ECDD GT PUSH2 0x95 JUMPI DUP1 PUSH4 0xDD62ED3E GT PUSH2 0x64 JUMPI DUP1 PUSH4 0xDD62ED3E EQ PUSH2 0x247 JUMPI DUP1 PUSH4 0xF2FDE38B EQ PUSH2 0x277 JUMPI DUP1 PUSH4 0xF3FEF3A3 EQ PUSH2 0x293 JUMPI DUP1 PUSH4 0xFC0C546A EQ PUSH2 0x2AF JUMPI PUSH2 0xF3 JUMP JUMPDEST DUP1 PUSH4 0xA001ECDD EQ PUSH2 0x1D5 JUMPI DUP1 PUSH4 0xA9059CBB EQ PUSH2 0x1F3 JUMPI DUP1 PUSH4 0xAE06C1B7 EQ PUSH2 0x20F JUMPI DUP1 PUSH4 0xB6B55F25 EQ PUSH2 0x22B JUMPI PUSH2 0xF3 JUMP JUMPDEST DUP1 PUSH4 0x27E235E3 GT PUSH2 0xD1 JUMPI DUP1 PUSH4 0x27E235E3 EQ PUSH2 0x14D JUMPI DUP1 PUSH4 0x5C658165 EQ PUSH2 0x17D JUMPI DUP1 PUSH4 0x715018A6 EQ PUSH2 0x1AD JUMPI DUP1 PUSH4 0x8DA5CB5B EQ PUSH2 0x1B7 JUMPI PUSH2 0xF3 JUMP JUMPDEST DUP1 PUSH4 0x95EA7B3 EQ PUSH2 0xF7 JUMPI DUP1 PUSH4 0x12065FE0 EQ PUSH2 0x113 JUMPI DUP1 PUSH4 0x23B872DD EQ PUSH2 0x131 JUMPI JUMPDEST PUSH0 DUP1 REVERT JUMPDEST PUSH2 0x111 PUSH1 0x4 DUP1 CALLDATASIZE SUB DUP2 ADD SWAP1 PUSH2 0x10C SWAP2 SWAP1 PUSH2 0x1556 JUMP JUMPDEST PUSH2 0x2CD JUMP JUMPDEST STOP JUMPDEST PUSH2 0x11B PUSH2 0x4FC JUMP JUMPDEST PUSH1 0x40 MLOAD PUSH2 0x128 SWAP2 SWAP1 PUSH2 0x15A3 JUMP JUMPDEST PUSH1 0x40 MLOAD DUP1 SWAP2 SUB SWAP1 RETURN JUMPDEST PUSH2 0x14B PUSH1 0x4 DUP1 CALLDATASIZE SUB DUP2 ADD SWAP1 PUSH2 0x146 SWAP2 SWAP1 PUSH2 0x15BC JUMP JUMPDEST PUSH2 0x540 JUMP JUMPDEST STOP JUMPDEST PUSH2 0x167 PUSH1 0x4 DUP1 CALLDATASIZE SUB DUP2 ADD SWAP1 PUSH2 0x162 SWAP2 SWAP1 PUSH2 0x160C JUMP JUMPDEST PUSH2 0x8C9 JUMP JUMPDEST PUSH1 0x40 MLOAD PUSH2 0x174 SWAP2 SWAP1 PUSH2 0x15A3 JUMP JUMPDEST PUSH1 0x40 MLOAD DUP1 SWAP2 SUB SWAP1 RETURN JUMPDEST PUSH2 0x197 PUSH1 0x4 DUP1 CALLDATASIZE SUB DUP2 ADD SWAP1 PUSH2 0x192 SWAP2 SWAP1 PUSH2 0x1637 JUMP JUMPDEST PUSH2 0x8DE JUMP JUMPDEST PUSH1 0x40 MLOAD PUSH2 0x1A4 SWAP2 SWAP1 PUSH2 0x15A3 JUMP JUMPDEST PUSH1 0x40 MLOAD DUP1 SWAP2 SUB SWAP1 RETURN JUMPDEST PUSH2 0x1B5 PUSH2 0x8FE JUMP JUMPDEST STOP JUMPDEST PUSH2 0x1BF PUSH2 0x911 JUMP JUMPDEST PUSH1 0x40 MLOAD PUSH2 0x1CC SWAP2 SWAP1 PUSH2 0x1684 JUMP JUMPDEST PUSH1 0x40 MLOAD DUP1 SWAP2 SUB SWAP1 RETURN JUMPDEST PUSH2 0x1DD PUSH2 0x938 JUMP JUMPDEST PUSH1 0x40 MLOAD PUSH2 0x1EA SWAP2 SWAP1 PUSH2 0x15A3 JUMP JUMPDEST PUSH1 0x40 MLOAD DUP1 SWAP2 SUB SWAP1 RETURN JUMPDEST PUSH2 0x20D PUSH1 0x4 DUP1 CALLDATASIZE SUB DUP2 ADD SWAP1 PUSH2 0x208 SWAP2 SWAP1 PUSH2 0x1556 JUMP JUMPDEST PUSH2 0x93E JUMP JUMPDEST STOP JUMPDEST PUSH2 0x229 PUSH1 0x4 DUP1 CALLDATASIZE SUB DUP2 ADD SWAP1 PUSH2 0x224 SWAP2 SWAP1 PUSH2 0x169D JUMP JUMPDEST PUSH2 0xB7D JUMP JUMPDEST STOP JUMPDEST PUSH2 0x245 PUSH1 0x4 DUP1 CALLDATASIZE SUB DUP2 ADD SWAP1 PUSH2 0x240 SWAP2 SWAP1 PUSH2 0x169D JUMP JUMPDEST PUSH2 0xB8F JUMP JUMPDEST STOP JUMPDEST PUSH2 0x261 PUSH1 0x4 DUP1 CALLDATASIZE SUB DUP2 ADD SWAP1 PUSH2 0x25C SWAP2 SWAP1 PUSH2 0x1637 JUMP JUMPDEST PUSH2 0xD52 JUMP JUMPDEST PUSH1 0x40 MLOAD PUSH2 0x26E SWAP2 SWAP1 PUSH2 0x15A3 JUMP JUMPDEST PUSH1 0x40 MLOAD DUP1 SWAP2 SUB SWAP1 RETURN JUMPDEST PUSH2 0x291 PUSH1 0x4 DUP1 CALLDATASIZE SUB DUP2 ADD SWAP1 PUSH2 0x28C SWAP2 SWAP1 PUSH2 0x160C JUMP JUMPDEST PUSH2 0xDD4 JUMP JUMPDEST STOP JUMPDEST PUSH2 0x2AD PUSH1 0x4 DUP1 CALLDATASIZE SUB DUP2 ADD SWAP1 PUSH2 0x2A8 SWAP2 SWAP1 PUSH2 0x1556 JUMP JUMPDEST PUSH2 0xE58 JUMP JUMPDEST STOP JUMPDEST PUSH2 0x2B7 PUSH2 0x1351 JUMP JUMPDEST PUSH1 0x40 MLOAD PUSH2 0x2C4 SWAP2 SWAP1 PUSH2 0x1723 JUMP JUMPDEST PUSH1 0x40 MLOAD DUP1 SWAP2 SUB SWAP1 RETURN JUMPDEST PUSH0 PUSH20 0xFFFFFFFFFFFFFFFFFFFFFFFFFFFFFFFFFFFFFFFF AND DUP3 PUSH20 0xFFFFFFFFFFFFFFFFFFFFFFFFFFFFFFFFFFFFFFFF AND SUB PUSH2 0x33B JUMPI PUSH1 0x40 MLOAD PUSH32 0x8C379A000000000000000000000000000000000000000000000000000000000 DUP2 MSTORE PUSH1 0x4 ADD PUSH2 0x332 SWAP1 PUSH2 0x1796 JUMP JUMPDEST PUSH1 0x40 MLOAD DUP1 SWAP2 SUB SWAP1 REVERT JUMPDEST DUP1 PUSH1 0x2 PUSH0 CALLER PUSH20 0xFFFFFFFFFFFFFFFFFFFFFFFFFFFFFFFFFFFFFFFF AND PUSH20 0xFFFFFFFFFFFFFFFFFFFFFFFFFFFFFFFFFFFFFFFF AND DUP2 MSTORE PUSH1 0x20 ADD SWAP1 DUP2 MSTORE PUSH1 0x20 ADD PUSH0 KECCAK256 PUSH0 DUP5 PUSH20 0xFFFFFFFFFFFFFFFFFFFFFFFFFFFFFFFFFFFFFFFF AND PUSH20 0xFFFFFFFFFFFFFFFFFFFFFFFFFFFFFFFFFFFFFFFF AND DUP2 MSTORE PUSH1 0x20 ADD SWAP1 DUP2 MSTORE PUSH1 0x20 ADD PUSH0 KECCAK256 DUP2 SWAP1 SSTORE POP PUSH1 0x4 PUSH0 SWAP1 SLOAD SWAP1 PUSH2 0x100 EXP SWAP1 DIV PUSH20 0xFFFFFFFFFFFFFFFFFFFFFFFFFFFFFFFFFFFFFFFF AND PUSH20 0xFFFFFFFFFFFFFFFFFFFFFFFFFFFFFFFFFFFFFFFF AND PUSH4 0x95EA7B3 DUP4 DUP4 PUSH1 0x40 MLOAD DUP4 PUSH4 0xFFFFFFFF AND PUSH1 0xE0 SHL DUP2 MSTORE PUSH1 0x4 ADD PUSH2 0x414 SWAP3 SWAP2 SWAP1 PUSH2 0x17B4 JUMP JUMPDEST PUSH1 0x20 PUSH1 0x40 MLOAD DUP1 DUP4 SUB DUP2 PUSH0 DUP8 GAS CALL ISZERO DUP1 ISZERO PUSH2 0x430 JUMPI RETURNDATASIZE PUSH0 DUP1 RETURNDATACOPY RETURNDATASIZE PUSH0 REVERT JUMPDEST POP POP POP POP PUSH1 0x40 MLOAD RETURNDATASIZE PUSH1 0x1F NOT PUSH1 0x1F DUP3 ADD AND DUP3 ADD DUP1 PUSH1 0x40 MSTORE POP DUP2 ADD SWAP1 PUSH2 0x454 SWAP2 SWAP1 PUSH2 0x1810 JUMP JUMPDEST PUSH2 0x493 JUMPI PUSH1 0x40 MLOAD PUSH32 0x8C379A000000000000000000000000000000000000000000000000000000000 DUP2 MSTORE PUSH1 0x4 ADD PUSH2 0x48A SWAP1 PUSH2 0x1885 JUMP JUMPDEST PUSH1 0x40 MLOAD DUP1 SWAP2 SUB SWAP1 REVERT JUMPDEST DUP2 PUSH20 0xFFFFFFFFFFFFFFFFFFFFFFFFFFFFFFFFFFFFFFFF AND CALLER PUSH20 0xFFFFFFFFFFFFFFFFFFFFFFFFFFFFFFFFFFFFFFFF AND PUSH32 0x8C5BE1E5EBEC7D5BD14F71427D1E84F3DD0314C0F7B2291E5B200AC8C7C3B925 DUP4 PUSH1 0x40 MLOAD PUSH2 0x4F0 SWAP2 SWAP1 PUSH2 0x15A3 JUMP JUMPDEST PUSH1 0x40 MLOAD DUP1 SWAP2 SUB SWAP1 LOG3 POP POP JUMP JUMPDEST PUSH0 PUSH1 0x1 PUSH0 CALLER PUSH20 0xFFFFFFFFFFFFFFFFFFFFFFFFFFFFFFFFFFFFFFFF AND PUSH20 0xFFFFFFFFFFFFFFFFFFFFFFFFFFFFFFFFFFFFFFFF AND DUP2 MSTORE PUSH1 0x20 ADD SWAP1 DUP2 MSTORE PUSH1 0x20 ADD PUSH0 KECCAK256 SLOAD SWAP1 POP SWAP1 JUMP JUMPDEST PUSH0 DUP2 GT PUSH2 0x582 JUMPI PUSH1 0x40 MLOAD PUSH32 0x8C379A000000000000000000000000000000000000000000000000000000000 DUP2 MSTORE PUSH1 0x4 ADD PUSH2 0x579 SWAP1 PUSH2 0x18ED JUMP JUMPDEST PUSH1 0x40 MLOAD DUP1 SWAP2 SUB SWAP1 REVERT JUMPDEST PUSH0 PUSH20 0xFFFFFFFFFFFFFFFFFFFFFFFFFFFFFFFFFFFFFFFF AND DUP3 PUSH20 0xFFFFFFFFFFFFFFFFFFFFFFFFFFFFFFFFFFFFFFFF AND SUB PUSH2 0x5F0 JUMPI PUSH1 0x40 MLOAD PUSH32 0x8C379A000000000000000000000000000000000000000000000000000000000 DUP2 MSTORE PUSH1 0x4 ADD PUSH2 0x5E7 SWAP1 PUSH2 0x1955 JUMP JUMPDEST PUSH1 0x40 MLOAD DUP1 SWAP2 SUB SWAP1 REVERT JUMPDEST PUSH1 0x2 PUSH0 DUP5 PUSH20 0xFFFFFFFFFFFFFFFFFFFFFFFFFFFFFFFFFFFFFFFF AND PUSH20 0xFFFFFFFFFFFFFFFFFFFFFFFFFFFFFFFFFFFFFFFF AND DUP2 MSTORE PUSH1 0x20 ADD SWAP1 DUP2 MSTORE PUSH1 0x20 ADD PUSH0 KECCAK256 PUSH0 CALLER PUSH20 0xFFFFFFFFFFFFFFFFFFFFFFFFFFFFFFFFFFFFFFFF AND PUSH20 0xFFFFFFFFFFFFFFFFFFFFFFFFFFFFFFFFFFFFFFFF AND DUP2 MSTORE PUSH1 0x20 ADD SWAP1 DUP2 MSTORE PUSH1 0x20 ADD PUSH0 KECCAK256 SLOAD DUP2 GT ISZERO PUSH2 0x6AB JUMPI PUSH1 0x40 MLOAD PUSH32 0x8C379A000000000000000000000000000000000000000000000000000000000 DUP2 MSTORE PUSH1 0x4 ADD PUSH2 0x6A2 SWAP1 PUSH2 0x19BD JUMP JUMPDEST PUSH1 0x40 MLOAD DUP1 SWAP2 SUB SWAP1 REVERT JUMPDEST PUSH1 0x1 PUSH0 DUP5 PUSH20 0xFFFFFFFFFFFFFFFFFFFFFFFFFFFFFFFFFFFFFFFF AND PUSH20 0xFFFFFFFFFFFFFFFFFFFFFFFFFFFFFFFFFFFFFFFF AND DUP2 MSTORE PUSH1 0x20 ADD SWAP1 DUP2 MSTORE PUSH1 0x20 ADD PUSH0 KECCAK256 SLOAD DUP2 GT ISZERO PUSH2 0x72B JUMPI PUSH1 0x40 MLOAD PUSH32 0x8C379A000000000000000000000000000000000000000000000000000000000 DUP2 MSTORE PUSH1 0x4 ADD PUSH2 0x722 SWAP1 PUSH2 0x1A25 JUMP JUMPDEST PUSH1 0x40 MLOAD DUP1 SWAP2 SUB SWAP1 REVERT JUMPDEST DUP1 PUSH1 0x1 PUSH0 DUP6 PUSH20 0xFFFFFFFFFFFFFFFFFFFFFFFFFFFFFFFFFFFFFFFF AND PUSH20 0xFFFFFFFFFFFFFFFFFFFFFFFFFFFFFFFFFFFFFFFF AND DUP2 MSTORE PUSH1 0x20 ADD SWAP1 DUP2 MSTORE PUSH1 0x20 ADD PUSH0 KECCAK256 PUSH0 DUP3 DUP3 SLOAD PUSH2 0x777 SWAP2 SWAP1 PUSH2 0x1A70 JUMP JUMPDEST SWAP3 POP POP DUP2 SWAP1 SSTORE POP DUP1 PUSH1 0x1 PUSH0 DUP5 PUSH20 0xFFFFFFFFFFFFFFFFFFFFFFFFFFFFFFFFFFFFFFFF AND PUSH20 0xFFFFFFFFFFFFFFFFFFFFFFFFFFFFFFFFFFFFFFFF AND DUP2 MSTORE PUSH1 0x20 ADD SWAP1 DUP2 MSTORE PUSH1 0x20 ADD PUSH0 KECCAK256 PUSH0 DUP3 DUP3 SLOAD PUSH2 0x7CA SWAP2 SWAP1 PUSH2 0x1AA3 JUMP JUMPDEST SWAP3 POP POP DUP2 SWAP1 SSTORE POP DUP1 PUSH1 0x2 PUSH0 DUP6 PUSH20 0xFFFFFFFFFFFFFFFFFFFFFFFFFFFFFFFFFFFFFFFF AND PUSH20 0xFFFFFFFFFFFFFFFFFFFFFFFFFFFFFFFFFFFFFFFF AND DUP2 MSTORE PUSH1 0x20 ADD SWAP1 DUP2 MSTORE PUSH1 0x20 ADD PUSH0 KECCAK256 PUSH0 CALLER PUSH20 0xFFFFFFFFFFFFFFFFFFFFFFFFFFFFFFFFFFFFFFFF AND PUSH20 0xFFFFFFFFFFFFFFFFFFFFFFFFFFFFFFFFFFFFFFFF AND DUP2 MSTORE PUSH1 0x20 ADD SWAP1 DUP2 MSTORE PUSH1 0x20 ADD PUSH0 KECCAK256 PUSH0 DUP3 DUP3 SLOAD PUSH2 0x858 SWAP2 SWAP1 PUSH2 0x1A70 JUMP JUMPDEST SWAP3 POP POP DUP2 SWAP1 SSTORE POP DUP2 PUSH20 0xFFFFFFFFFFFFFFFFFFFFFFFFFFFFFFFFFFFFFFFF AND DUP4 PUSH20 0xFFFFFFFFFFFFFFFFFFFFFFFFFFFFFFFFFFFFFFFF AND PUSH32 0xDDF252AD1BE2C89B69C2B068FC378DAA952BA7F163C4A11628F55A4DF523B3EF DUP4 PUSH1 0x40 MLOAD PUSH2 0x8BC SWAP2 SWAP1 PUSH2 0x15A3 JUMP JUMPDEST PUSH1 0x40 MLOAD DUP1 SWAP2 SUB SWAP1 LOG3 POP POP POP JUMP JUMPDEST PUSH1 0x1 PUSH1 0x20 MSTORE DUP1 PUSH0 MSTORE PUSH1 0x40 PUSH0 KECCAK256 PUSH0 SWAP2 POP SWAP1 POP SLOAD DUP2 JUMP JUMPDEST PUSH1 0x2 PUSH1 0x20 MSTORE DUP2 PUSH0 MSTORE PUSH1 0x40 PUSH0 KECCAK256 PUSH1 0x20 MSTORE DUP1 PUSH0 MSTORE PUSH1 0x40 PUSH0 KECCAK256 PUSH0 SWAP2 POP SWAP2 POP POP SLOAD DUP2 JUMP JUMPDEST PUSH2 0x906 PUSH2 0x1376 JUMP JUMPDEST PUSH2 0x90F PUSH0 PUSH2 0x13FD JUMP JUMPDEST JUMP JUMPDEST PUSH0 DUP1 PUSH0 SWAP1 SLOAD SWAP1 PUSH2 0x100 EXP SWAP1 DIV PUSH20 0xFFFFFFFFFFFFFFFFFFFFFFFFFFFFFFFFFFFFFFFF AND SWAP1 POP SWAP1 JUMP JUMPDEST PUSH1 0x3 SLOAD DUP2 JUMP JUMPDEST PUSH0 DUP2 GT PUSH2 0x980 JUMPI PUSH1 0x40 MLOAD PUSH32 0x8C379A000000000000000000000000000000000000000000000000000000000 DUP2 MSTORE PUSH1 0x4 ADD PUSH2 0x977 SWAP1 PUSH2 0x18ED JUMP JUMPDEST PUSH1 0x40 MLOAD DUP1 SWAP2 SUB SWAP1 REVERT JUMPDEST PUSH1 0x1 PUSH0 CALLER PUSH20 0xFFFFFFFFFFFFFFFFFFFFFFFFFFFFFFFFFFFFFFFF AND PUSH20 0xFFFFFFFFFFFFFFFFFFFFFFFFFFFFFFFFFFFFFFFF AND DUP2 MSTORE PUSH1 0x20 ADD SWAP1 DUP2 MSTORE PUSH1 0x20 ADD PUSH0 KECCAK256 SLOAD DUP2 GT ISZERO PUSH2 0xA00 JUMPI PUSH1 0x40 MLOAD PUSH32 0x8C379A000000000000000000000000000000000000000000000000000000000 DUP2 MSTORE PUSH1 0x4 ADD PUSH2 0x9F7 SWAP1 PUSH2 0x1A25 JUMP JUMPDEST PUSH1 0x40 MLOAD DUP1 SWAP2 SUB SWAP1 REVERT JUMPDEST PUSH0 PUSH20 0xFFFFFFFFFFFFFFFFFFFFFFFFFFFFFFFFFFFFFFFF AND DUP3 PUSH20 0xFFFFFFFFFFFFFFFFFFFFFFFFFFFFFFFFFFFFFFFF AND SUB PUSH2 0xA6E JUMPI PUSH1 0x40 MLOAD PUSH32 0x8C379A000000000000000000000000000000000000000000000000000000000 DUP2 MSTORE PUSH1 0x4 ADD PUSH2 0xA65 SWAP1 PUSH2 0x1955 JUMP JUMPDEST PUSH1 0x40 MLOAD DUP1 SWAP2 SUB SWAP1 REVERT JUMPDEST DUP1 PUSH1 0x1 PUSH0 CALLER PUSH20 0xFFFFFFFFFFFFFFFFFFFFFFFFFFFFFFFFFFFFFFFF AND PUSH20 0xFFFFFFFFFFFFFFFFFFFFFFFFFFFFFFFFFFFFFFFF AND DUP2 MSTORE PUSH1 0x20 ADD SWAP1 DUP2 MSTORE PUSH1 0x20 ADD PUSH0 KECCAK256 PUSH0 DUP3 DUP3 SLOAD PUSH2 0xABA SWAP2 SWAP1 PUSH2 0x1A70 JUMP JUMPDEST SWAP3 POP POP DUP2 SWAP1 SSTORE POP DUP1 PUSH1 0x1 PUSH0 DUP5 PUSH20 0xFFFFFFFFFFFFFFFFFFFFFFFFFFFFFFFFFFFFFFFF AND PUSH20 0xFFFFFFFFFFFFFFFFFFFFFFFFFFFFFFFFFFFFFFFF AND DUP2 MSTORE PUSH1 0x20 ADD SWAP1 DUP2 MSTORE PUSH1 0x20 ADD PUSH0 KECCAK256 PUSH0 DUP3 DUP3 SLOAD PUSH2 0xB0D SWAP2 SWAP1 PUSH2 0x1AA3 JUMP JUMPDEST SWAP3 POP POP DUP2 SWAP1 SSTORE POP DUP2 PUSH20 0xFFFFFFFFFFFFFFFFFFFFFFFFFFFFFFFFFFFFFFFF AND CALLER PUSH20 0xFFFFFFFFFFFFFFFFFFFFFFFFFFFFFFFFFFFFFFFF AND PUSH32 0xDDF252AD1BE2C89B69C2B068FC378DAA952BA7F163C4A11628F55A4DF523B3EF DUP4 PUSH1 0x40 MLOAD PUSH2 0xB71 SWAP2 SWAP1 PUSH2 0x15A3 JUMP JUMPDEST PUSH1 0x40 MLOAD DUP1 SWAP2 SUB SWAP1 LOG3 POP POP JUMP JUMPDEST PUSH2 0xB85 PUSH2 0x1376 JUMP JUMPDEST DUP1 PUSH1 0x3 DUP2 SWAP1 SSTORE POP POP JUMP JUMPDEST PUSH0 DUP2 GT PUSH2 0xBD1 JUMPI PUSH1 0x40 MLOAD PUSH32 0x8C379A000000000000000000000000000000000000000000000000000000000 DUP2 MSTORE PUSH1 0x4 ADD PUSH2 0xBC8 SWAP1 PUSH2 0x18ED JUMP JUMPDEST PUSH1 0x40 MLOAD DUP1 SWAP2 SUB SWAP1 REVERT JUMPDEST PUSH1 0x4 PUSH0 SWAP1 SLOAD SWAP1 PUSH2 0x100 EXP SWAP1 DIV PUSH20 0xFFFFFFFFFFFFFFFFFFFFFFFFFFFFFFFFFFFFFFFF AND PUSH20 0xFFFFFFFFFFFFFFFFFFFFFFFFFFFFFFFFFFFFFFFF AND PUSH4 0x23B872DD CALLER ADDRESS DUP5 PUSH1 0x40 MLOAD DUP5 PUSH4 0xFFFFFFFF AND PUSH1 0xE0 SHL DUP2 MSTORE PUSH1 0x4 ADD PUSH2 0xC2F SWAP4 SWAP3 SWAP2 SWAP1 PUSH2 0x1AD6 JUMP JUMPDEST PUSH1 0x20 PUSH1 0x40 MLOAD DUP1 DUP4 SUB DUP2 PUSH0 DUP8 GAS CALL ISZERO DUP1 ISZERO PUSH2 0xC4B JUMPI RETURNDATASIZE PUSH0 DUP1 RETURNDATACOPY RETURNDATASIZE PUSH0 REVERT JUMPDEST POP POP POP POP PUSH1 0x40 MLOAD RETURNDATASIZE PUSH1 0x1F NOT PUSH1 0x1F DUP3 ADD AND DUP3 ADD DUP1 PUSH1 0x40 MSTORE POP DUP2 ADD SWAP1 PUSH2 0xC6F SWAP2 SWAP1 PUSH2 0x1810 JUMP JUMPDEST PUSH2 0xCAE JUMPI PUSH1 0x40 MLOAD PUSH32 0x8C379A000000000000000000000000000000000000000000000000000000000 DUP2 MSTORE PUSH1 0x4 ADD PUSH2 0xCA5 SWAP1 PUSH2 0x1B55 JUMP JUMPDEST PUSH1 0x40 MLOAD DUP1 SWAP2 SUB SWAP1 REVERT JUMPDEST DUP1 PUSH1 0x1 PUSH0 CALLER PUSH20 0xFFFFFFFFFFFFFFFFFFFFFFFFFFFFFFFFFFFFFFFF AND PUSH20 0xFFFFFFFFFFFFFFFFFFFFFFFFFFFFFFFFFFFFFFFF AND DUP2 MSTORE PUSH1 0x20 ADD SWAP1 DUP2 MSTORE PUSH1 0x20 ADD PUSH0 KECCAK256 PUSH0 DUP3 DUP3 SLOAD PUSH2 0xCFA SWAP2 SWAP1 PUSH2 0x1AA3 JUMP JUMPDEST SWAP3 POP POP DUP2 SWAP1 SSTORE POP CALLER PUSH20 0xFFFFFFFFFFFFFFFFFFFFFFFFFFFFFFFFFFFFFFFF AND PUSH32 0xE1FFFCC4923D04B559F4D29A8BFC6CDA04EB5B0D3C460751C2402C5C5CC9109C DUP3 PUSH1 0x40 MLOAD PUSH2 0xD47 SWAP2 SWAP1 PUSH2 0x15A3 JUMP JUMPDEST PUSH1 0x40 MLOAD DUP1 SWAP2 SUB SWAP1 LOG2 POP JUMP JUMPDEST PUSH0 PUSH1 0x2 PUSH0 DUP5 PUSH20 0xFFFFFFFFFFFFFFFFFFFFFFFFFFFFFFFFFFFFFFFF AND PUSH20 0xFFFFFFFFFFFFFFFFFFFFFFFFFFFFFFFFFFFFFFFF AND DUP2 MSTORE PUSH1 0x20 ADD SWAP1 DUP2 MSTORE PUSH1 0x20 ADD PUSH0 KECCAK256 PUSH0 DUP4 PUSH20 0xFFFFFFFFFFFFFFFFFFFFFFFFFFFFFFFFFFFFFFFF AND PUSH20 0xFFFFFFFFFFFFFFFFFFFFFFFFFFFFFFFFFFFFFFFF AND DUP2 MSTORE PUSH1 0x20 ADD SWAP1 DUP2 MSTORE PUSH1 0x20 ADD PUSH0 KECCAK256 SLOAD SWAP1 POP SWAP3 SWAP2 POP POP JUMP JUMPDEST PUSH2 0xDDC PUSH2 0x1376 JUMP JUMPDEST PUSH0 PUSH20 0xFFFFFFFFFFFFFFFFFFFFFFFFFFFFFFFFFFFFFFFF AND DUP2 PUSH20 0xFFFFFFFFFFFFFFFFFFFFFFFFFFFFFFFFFFFFFFFF AND SUB PUSH2 0xE4C JUMPI PUSH0 PUSH1 0x40 MLOAD PUSH32 0x1E4FBDF700000000000000000000000000000000000000000000000000000000 DUP2 MSTORE PUSH1 0x4 ADD PUSH2 0xE43 SWAP2 SWAP1 PUSH2 0x1684 JUMP JUMPDEST PUSH1 0x40 MLOAD DUP1 SWAP2 SUB SWAP1 REVERT JUMPDEST PUSH2 0xE55 DUP2 PUSH2 0x13FD JUMP JUMPDEST POP JUMP JUMPDEST PUSH0 DUP2 GT PUSH2 0xE9A JUMPI PUSH1 0x40 MLOAD PUSH32 0x8C379A000000000000000000000000000000000000000000000000000000000 DUP2 MSTORE PUSH1 0x4 ADD PUSH2 0xE91 SWAP1 PUSH2 0x18ED JUMP JUMPDEST PUSH1 0x40 MLOAD DUP1 SWAP2 SUB SWAP1 REVERT JUMPDEST PUSH1 0x1 PUSH0 CALLER PUSH20 0xFFFFFFFFFFFFFFFFFFFFFFFFFFFFFFFFFFFFFFFF AND PUSH20 0xFFFFFFFFFFFFFFFFFFFFFFFFFFFFFFFFFFFFFFFF AND DUP2 MSTORE PUSH1 0x20 ADD SWAP1 DUP2 MSTORE PUSH1 0x20 ADD PUSH0 KECCAK256 SLOAD DUP2 GT ISZERO PUSH2 0xF1A JUMPI PUSH1 0x40 MLOAD PUSH32 0x8C379A000000000000000000000000000000000000000000000000000000000 DUP2 MSTORE PUSH1 0x4 ADD PUSH2 0xF11 SWAP1 PUSH2 0x1A25 JUMP JUMPDEST PUSH1 0x40 MLOAD DUP1 SWAP2 SUB SWAP1 REVERT JUMPDEST PUSH0 PUSH20 0xFFFFFFFFFFFFFFFFFFFFFFFFFFFFFFFFFFFFFFFF AND DUP3 PUSH20 0xFFFFFFFFFFFFFFFFFFFFFFFFFFFFFFFFFFFFFFFF AND SUB PUSH2 0xF88 JUMPI PUSH1 0x40 MLOAD PUSH32 0x8C379A000000000000000000000000000000000000000000000000000000000 DUP2 MSTORE PUSH1 0x4 ADD PUSH2 0xF7F SWAP1 PUSH2 0x1955 JUMP JUMPDEST PUSH1 0x40 MLOAD DUP1 SWAP2 SUB SWAP1 REVERT JUMPDEST PUSH0 PUSH1 0x64 PUSH1 0x3 SLOAD DUP4 PUSH2 0xF99 SWAP2 SWAP1 PUSH2 0x1B73 JUMP JUMPDEST PUSH2 0xFA3 SWAP2 SWAP1 PUSH2 0x1BE1 JUMP JUMPDEST SWAP1 POP PUSH0 DUP2 DUP4 PUSH2 0xFB2 SWAP2 SWAP1 PUSH2 0x1A70 JUMP JUMPDEST SWAP1 POP DUP3 PUSH1 0x1 PUSH0 CALLER PUSH20 0xFFFFFFFFFFFFFFFFFFFFFFFFFFFFFFFFFFFFFFFF AND PUSH20 0xFFFFFFFFFFFFFFFFFFFFFFFFFFFFFFFFFFFFFFFF AND DUP2 MSTORE PUSH1 0x20 ADD SWAP1 DUP2 MSTORE PUSH1 0x20 ADD PUSH0 KECCAK256 PUSH0 DUP3 DUP3 SLOAD PUSH2 0x1000 SWAP2 SWAP1 PUSH2 0x1A70 JUMP JUMPDEST SWAP3 POP POP DUP2 SWAP1 SSTORE POP DUP3 PUSH1 0x1 PUSH0 DUP7 PUSH20 0xFFFFFFFFFFFFFFFFFFFFFFFFFFFFFFFFFFFFFFFF AND PUSH20 0xFFFFFFFFFFFFFFFFFFFFFFFFFFFFFFFFFFFFFFFF AND DUP2 MSTORE PUSH1 0x20 ADD SWAP1 DUP2 MSTORE PUSH1 0x20 ADD PUSH0 KECCAK256 PUSH0 DUP3 DUP3 SLOAD PUSH2 0x1053 SWAP2 SWAP1 PUSH2 0x1AA3 JUMP JUMPDEST SWAP3 POP POP DUP2 SWAP1 SSTORE POP DUP1 PUSH1 0x4 PUSH0 SWAP1 SLOAD SWAP1 PUSH2 0x100 EXP SWAP1 DIV PUSH20 0xFFFFFFFFFFFFFFFFFFFFFFFFFFFFFFFFFFFFFFFF AND PUSH20 0xFFFFFFFFFFFFFFFFFFFFFFFFFFFFFFFFFFFFFFFF AND PUSH4 0x70A08231 ADDRESS PUSH1 0x40 MLOAD DUP3 PUSH4 0xFFFFFFFF AND PUSH1 0xE0 SHL DUP2 MSTORE PUSH1 0x4 ADD PUSH2 0x10B5 SWAP2 SWAP1 PUSH2 0x1684 JUMP JUMPDEST PUSH1 0x20 PUSH1 0x40 MLOAD DUP1 DUP4 SUB DUP2 DUP7 GAS STATICCALL ISZERO DUP1 ISZERO PUSH2 0x10D0 JUMPI RETURNDATASIZE PUSH0 DUP1 RETURNDATACOPY RETURNDATASIZE PUSH0 REVERT JUMPDEST POP POP POP POP PUSH1 0x40 MLOAD RETURNDATASIZE PUSH1 0x1F NOT PUSH1 0x1F DUP3 ADD AND DUP3 ADD DUP1 PUSH1 0x40 MSTORE POP DUP2 ADD SWAP1 PUSH2 0x10F4 SWAP2 SWAP1 PUSH2 0x1C25 JUMP JUMPDEST LT ISZERO PUSH2 0x1135 JUMPI PUSH1 0x40 MLOAD PUSH32 0x8C379A000000000000000000000000000000000000000000000000000000000 DUP2 MSTORE PUSH1 0x4 ADD PUSH2 0x112C SWAP1 PUSH2 0x1C9A JUMP JUMPDEST PUSH1 0x40 MLOAD DUP1 SWAP2 SUB SWAP1 REVERT JUMPDEST PUSH1 0x4 PUSH0 SWAP1 SLOAD SWAP1 PUSH2 0x100 EXP SWAP1 DIV PUSH20 0xFFFFFFFFFFFFFFFFFFFFFFFFFFFFFFFFFFFFFFFF AND PUSH20 0xFFFFFFFFFFFFFFFFFFFFFFFFFFFFFFFFFFFFFFFF AND PUSH4 0xA9059CBB CALLER DUP4 PUSH1 0x40 MLOAD DUP4 PUSH4 0xFFFFFFFF AND PUSH1 0xE0 SHL DUP2 MSTORE PUSH1 0x4 ADD PUSH2 0x1191 SWAP3 SWAP2 SWAP1 PUSH2 0x17B4 JUMP JUMPDEST PUSH1 0x20 PUSH1 0x40 MLOAD DUP1 DUP4 SUB DUP2 PUSH0 DUP8 GAS CALL ISZERO DUP1 ISZERO PUSH2 0x11AD JUMPI RETURNDATASIZE PUSH0 DUP1 RETURNDATACOPY RETURNDATASIZE PUSH0 REVERT JUMPDEST POP POP POP POP PUSH1 0x40 MLOAD RETURNDATASIZE PUSH1 0x1F NOT PUSH1 0x1F DUP3 ADD AND DUP3 ADD DUP1 PUSH1 0x40 MSTORE POP DUP2 ADD SWAP1 PUSH2 0x11D1 SWAP2 SWAP1 PUSH2 0x1810 JUMP JUMPDEST PUSH2 0x1210 JUMPI PUSH1 0x40 MLOAD PUSH32 0x8C379A000000000000000000000000000000000000000000000000000000000 DUP2 MSTORE PUSH1 0x4 ADD PUSH2 0x1207 SWAP1 PUSH2 0x1B55 JUMP JUMPDEST PUSH1 0x40 MLOAD DUP1 SWAP2 SUB SWAP1 REVERT JUMPDEST PUSH0 DUP3 GT ISZERO PUSH2 0x12FB JUMPI PUSH1 0x4 PUSH0 SWAP1 SLOAD SWAP1 PUSH2 0x100 EXP SWAP1 DIV PUSH20 0xFFFFFFFFFFFFFFFFFFFFFFFFFFFFFFFFFFFFFFFF AND PUSH20 0xFFFFFFFFFFFFFFFFFFFFFFFFFFFFFFFFFFFFFFFF AND PUSH4 0xA9059CBB PUSH2 0x125D PUSH2 0x911 JUMP JUMPDEST DUP5 PUSH1 0x40 MLOAD DUP4 PUSH4 0xFFFFFFFF AND PUSH1 0xE0 SHL DUP2 MSTORE PUSH1 0x4 ADD PUSH2 0x127B SWAP3 SWAP2 SWAP1 PUSH2 0x17B4 JUMP JUMPDEST PUSH1 0x20 PUSH1 0x40 MLOAD DUP1 DUP4 SUB DUP2 PUSH0 DUP8 GAS CALL ISZERO DUP1 ISZERO PUSH2 0x1297 JUMPI RETURNDATASIZE PUSH0 DUP1 RETURNDATACOPY RETURNDATASIZE PUSH0 REVERT JUMPDEST POP POP POP POP PUSH1 0x40 MLOAD RETURNDATASIZE PUSH1 0x1F NOT PUSH1 0x1F DUP3 ADD AND DUP3 ADD DUP1 PUSH1 0x40 MSTORE POP DUP2 ADD SWAP1 PUSH2 0x12BB SWAP2 SWAP1 PUSH2 0x1810 JUMP JUMPDEST PUSH2 0x12FA JUMPI PUSH1 0x40 MLOAD PUSH32 0x8C379A000000000000000000000000000000000000000000000000000000000 DUP2 MSTORE PUSH1 0x4 ADD PUSH2 0x12F1 SWAP1 PUSH2 0x1D02 JUMP JUMPDEST PUSH1 0x40 MLOAD DUP1 SWAP2 SUB SWAP1 REVERT JUMPDEST JUMPDEST DUP4 PUSH20 0xFFFFFFFFFFFFFFFFFFFFFFFFFFFFFFFFFFFFFFFF AND PUSH32 0xF279E6A1F5E320CCA91135676D9CB6E44CA8A08C0B88342BCDB1144F6511B568 DUP5 DUP5 PUSH1 0x40 MLOAD PUSH2 0x1343 SWAP3 SWAP2 SWAP1 PUSH2 0x1D20 JUMP JUMPDEST PUSH1 0x40 MLOAD DUP1 SWAP2 SUB SWAP1 LOG2 POP POP POP POP JUMP JUMPDEST PUSH1 0x4 PUSH0 SWAP1 SLOAD SWAP1 PUSH2 0x100 EXP SWAP1 DIV PUSH20 0xFFFFFFFFFFFFFFFFFFFFFFFFFFFFFFFFFFFFFFFF AND DUP2 JUMP JUMPDEST PUSH2 0x137E PUSH2 0x14BE JUMP JUMPDEST PUSH20 0xFFFFFFFFFFFFFFFFFFFFFFFFFFFFFFFFFFFFFFFF AND PUSH2 0x139C PUSH2 0x911 JUMP JUMPDEST PUSH20 0xFFFFFFFFFFFFFFFFFFFFFFFFFFFFFFFFFFFFFFFF AND EQ PUSH2 0x13FB JUMPI PUSH2 0x13BF PUSH2 0x14BE JUMP JUMPDEST PUSH1 0x40 MLOAD PUSH32 0x118CDAA700000000000000000000000000000000000000000000000000000000 DUP2 MSTORE PUSH1 0x4 ADD PUSH2 0x13F2 SWAP2 SWAP1 PUSH2 0x1684 JUMP JUMPDEST PUSH1 0x40 MLOAD DUP1 SWAP2 SUB SWAP1 REVERT JUMPDEST JUMP JUMPDEST PUSH0 DUP1 PUSH0 SWAP1 SLOAD SWAP1 PUSH2 0x100 EXP SWAP1 DIV PUSH20 0xFFFFFFFFFFFFFFFFFFFFFFFFFFFFFFFFFFFFFFFF AND SWAP1 POP DUP2 PUSH0 DUP1 PUSH2 0x100 EXP DUP2 SLOAD DUP2 PUSH20 0xFFFFFFFFFFFFFFFFFFFFFFFFFFFFFFFFFFFFFFFF MUL NOT AND SWAP1 DUP4 PUSH20 0xFFFFFFFFFFFFFFFFFFFFFFFFFFFFFFFFFFFFFFFF AND MUL OR SWAP1 SSTORE POP DUP2 PUSH20 0xFFFFFFFFFFFFFFFFFFFFFFFFFFFFFFFFFFFFFFFF AND DUP2 PUSH20 0xFFFFFFFFFFFFFFFFFFFFFFFFFFFFFFFFFFFFFFFF AND PUSH32 0x8BE0079C531659141344CD1FD0A4F28419497F9722A3DAAFE3B4186F6B6457E0 PUSH1 0x40 MLOAD PUSH1 0x40 MLOAD DUP1 SWAP2 SUB SWAP1 LOG3 POP POP JUMP JUMPDEST PUSH0 CALLER SWAP1 POP SWAP1 JUMP JUMPDEST PUSH0 DUP1 REVERT JUMPDEST PUSH0 PUSH20 0xFFFFFFFFFFFFFFFFFFFFFFFFFFFFFFFFFFFFFFFF DUP3 AND SWAP1 POP SWAP2 SWAP1 POP JUMP JUMPDEST PUSH0 PUSH2 0x14F2 DUP3 PUSH2 0x14C9 JUMP JUMPDEST SWAP1 POP SWAP2 SWAP1 POP JUMP JUMPDEST PUSH2 0x1502 DUP2 PUSH2 0x14E8 JUMP JUMPDEST DUP2 EQ PUSH2 0x150C JUMPI PUSH0 DUP1 REVERT JUMPDEST POP JUMP JUMPDEST PUSH0 DUP2 CALLDATALOAD SWAP1 POP PUSH2 0x151D DUP2 PUSH2 0x14F9 JUMP JUMPDEST SWAP3 SWAP2 POP POP JUMP JUMPDEST PUSH0 DUP2 SWAP1 POP SWAP2 SWAP1 POP JUMP JUMPDEST PUSH2 0x1535 DUP2 PUSH2 0x1523 JUMP JUMPDEST DUP2 EQ PUSH2 0x153F JUMPI PUSH0 DUP1 REVERT JUMPDEST POP JUMP JUMPDEST PUSH0 DUP2 CALLDATALOAD SWAP1 POP PUSH2 0x1550 DUP2 PUSH2 0x152C JUMP JUMPDEST SWAP3 SWAP2 POP POP JUMP JUMPDEST PUSH0 DUP1 PUSH1 0x40 DUP4 DUP6 SUB SLT ISZERO PUSH2 0x156C JUMPI PUSH2 0x156B PUSH2 0x14C5 JUMP JUMPDEST JUMPDEST PUSH0 PUSH2 0x1579 DUP6 DUP3 DUP7 ADD PUSH2 0x150F JUMP JUMPDEST SWAP3 POP POP PUSH1 0x20 PUSH2 0x158A DUP6 DUP3 DUP7 ADD PUSH2 0x1542 JUMP JUMPDEST SWAP2 POP POP SWAP3 POP SWAP3 SWAP1 POP JUMP JUMPDEST PUSH2 0x159D DUP2 PUSH2 0x1523 JUMP JUMPDEST DUP3 MSTORE POP POP JUMP JUMPDEST PUSH0 PUSH1 0x20 DUP3 ADD SWAP1 POP PUSH2 0x15B6 PUSH0 DUP4 ADD DUP5 PUSH2 0x1594 JUMP JUMPDEST SWAP3 SWAP2 POP POP JUMP JUMPDEST PUSH0 DUP1 PUSH0 PUSH1 0x60 DUP5 DUP7 SUB SLT ISZERO PUSH2 0x15D3 JUMPI PUSH2 0x15D2 PUSH2 0x14C5 JUMP JUMPDEST JUMPDEST PUSH0 PUSH2 0x15E0 DUP7 DUP3 DUP8 ADD PUSH2 0x150F JUMP JUMPDEST SWAP4 POP POP PUSH1 0x20 PUSH2 0x15F1 DUP7 DUP3 DUP8 ADD PUSH2 0x150F JUMP JUMPDEST SWAP3 POP POP PUSH1 0x40 PUSH2 0x1602 DUP7 DUP3 DUP8 ADD PUSH2 0x1542 JUMP JUMPDEST SWAP2 POP POP SWAP3 POP SWAP3 POP SWAP3 JUMP JUMPDEST PUSH0 PUSH1 0x20 DUP3 DUP5 SUB SLT ISZERO PUSH2 0x1621 JUMPI PUSH2 0x1620 PUSH2 0x14C5 JUMP JUMPDEST JUMPDEST PUSH0 PUSH2 0x162E DUP5 DUP3 DUP6 ADD PUSH2 0x150F JUMP JUMPDEST SWAP2 POP POP SWAP3 SWAP2 POP POP JUMP JUMPDEST PUSH0 DUP1 PUSH1 0x40 DUP4 DUP6 SUB SLT ISZERO PUSH2 0x164D JUMPI PUSH2 0x164C PUSH2 0x14C5 JUMP JUMPDEST JUMPDEST PUSH0 PUSH2 0x165A DUP6 DUP3 DUP7 ADD PUSH2 0x150F JUMP JUMPDEST SWAP3 POP POP PUSH1 0x20 PUSH2 0x166B DUP6 DUP3 DUP7 ADD PUSH2 0x150F JUMP JUMPDEST SWAP2 POP POP SWAP3 POP SWAP3 SWAP1 POP JUMP JUMPDEST PUSH2 0x167E DUP2 PUSH2 0x14E8 JUMP JUMPDEST DUP3 MSTORE POP POP JUMP JUMPDEST PUSH0 PUSH1 0x20 DUP3 ADD SWAP1 POP PUSH2 0x1697 PUSH0 DUP4 ADD DUP5 PUSH2 0x1675 JUMP JUMPDEST SWAP3 SWAP2 POP POP JUMP JUMPDEST PUSH0 PUSH1 0x20 DUP3 DUP5 SUB SLT ISZERO PUSH2 0x16B2 JUMPI PUSH2 0x16B1 PUSH2 0x14C5 JUMP JUMPDEST JUMPDEST PUSH0 PUSH2 0x16BF DUP5 DUP3 DUP6 ADD PUSH2 0x1542 JUMP JUMPDEST SWAP2 POP POP SWAP3 SWAP2 POP POP JUMP JUMPDEST PUSH0 DUP2 SWAP1 POP SWAP2 SWAP1 POP JUMP JUMPDEST PUSH0 PUSH2 0x16EB PUSH2 0x16E6 PUSH2 0x16E1 DUP5 PUSH2 0x14C9 JUMP JUMPDEST PUSH2 0x16C8 JUMP JUMPDEST PUSH2 0x14C9 JUMP JUMPDEST SWAP1 POP SWAP2 SWAP1 POP JUMP JUMPDEST PUSH0 PUSH2 0x16FC DUP3 PUSH2 0x16D1 JUMP JUMPDEST SWAP1 POP SWAP2 SWAP1 POP JUMP JUMPDEST PUSH0 PUSH2 0x170D DUP3 PUSH2 0x16F2 JUMP JUMPDEST SWAP1 POP SWAP2 SWAP1 POP JUMP JUMPDEST PUSH2 0x171D DUP2 PUSH2 0x1703 JUMP JUMPDEST DUP3 MSTORE POP POP JUMP JUMPDEST PUSH0 PUSH1 0x20 DUP3 ADD SWAP1 POP PUSH2 0x1736 PUSH0 DUP4 ADD DUP5 PUSH2 0x1714 JUMP JUMPDEST SWAP3 SWAP2 POP POP JUMP JUMPDEST PUSH0 DUP3 DUP3 MSTORE PUSH1 0x20 DUP3 ADD SWAP1 POP SWAP3 SWAP2 POP POP JUMP JUMPDEST PUSH32 0x496E76616C6964207370656E6465722061646472657373000000000000000000 PUSH0 DUP3 ADD MSTORE POP JUMP JUMPDEST PUSH0 PUSH2 0x1780 PUSH1 0x17 DUP4 PUSH2 0x173C JUMP JUMPDEST SWAP2 POP PUSH2 0x178B DUP3 PUSH2 0x174C JUMP JUMPDEST PUSH1 0x20 DUP3 ADD SWAP1 POP SWAP2 SWAP1 POP JUMP JUMPDEST PUSH0 PUSH1 0x20 DUP3 ADD SWAP1 POP DUP2 DUP2 SUB PUSH0 DUP4 ADD MSTORE PUSH2 0x17AD DUP2 PUSH2 0x1774 JUMP JUMPDEST SWAP1 POP SWAP2 SWAP1 POP JUMP JUMPDEST PUSH0 PUSH1 0x40 DUP3 ADD SWAP1 POP PUSH2 0x17C7 PUSH0 DUP4 ADD DUP6 PUSH2 0x1675 JUMP JUMPDEST PUSH2 0x17D4 PUSH1 0x20 DUP4 ADD DUP5 PUSH2 0x1594 JUMP JUMPDEST SWAP4 SWAP3 POP POP POP JUMP JUMPDEST PUSH0 DUP2 ISZERO ISZERO SWAP1 POP SWAP2 SWAP1 POP JUMP JUMPDEST PUSH2 0x17EF DUP2 PUSH2 0x17DB JUMP JUMPDEST DUP2 EQ PUSH2 0x17F9 JUMPI PUSH0 DUP1 REVERT JUMPDEST POP JUMP JUMPDEST PUSH0 DUP2 MLOAD SWAP1 POP PUSH2 0x180A DUP2 PUSH2 0x17E6 JUMP JUMPDEST SWAP3 SWAP2 POP POP JUMP JUMPDEST PUSH0 PUSH1 0x20 DUP3 DUP5 SUB SLT ISZERO PUSH2 0x1825 JUMPI PUSH2 0x1824 PUSH2 0x14C5 JUMP JUMPDEST JUMPDEST PUSH0 PUSH2 0x1832 DUP5 DUP3 DUP6 ADD PUSH2 0x17FC JUMP JUMPDEST SWAP2 POP POP SWAP3 SWAP2 POP POP JUMP JUMPDEST PUSH32 0x417070726F76616C206661696C65640000000000000000000000000000000000 PUSH0 DUP3 ADD MSTORE POP JUMP JUMPDEST PUSH0 PUSH2 0x186F PUSH1 0xF DUP4 PUSH2 0x173C JUMP JUMPDEST SWAP2 POP PUSH2 0x187A DUP3 PUSH2 0x183B JUMP JUMPDEST PUSH1 0x20 DUP3 ADD SWAP1 POP SWAP2 SWAP1 POP JUMP JUMPDEST PUSH0 PUSH1 0x20 DUP3 ADD SWAP1 POP DUP2 DUP2 SUB PUSH0 DUP4 ADD MSTORE PUSH2 0x189C DUP2 PUSH2 0x1863 JUMP JUMPDEST SWAP1 POP SWAP2 SWAP1 POP JUMP JUMPDEST PUSH32 0x496E76616C696420616D6F756E74000000000000000000000000000000000000 PUSH0 DUP3 ADD MSTORE POP JUMP JUMPDEST PUSH0 PUSH2 0x18D7 PUSH1 0xE DUP4 PUSH2 0x173C JUMP JUMPDEST SWAP2 POP PUSH2 0x18E2 DUP3 PUSH2 0x18A3 JUMP JUMPDEST PUSH1 0x20 DUP3 ADD SWAP1 POP SWAP2 SWAP1 POP JUMP JUMPDEST PUSH0 PUSH1 0x20 DUP3 ADD SWAP1 POP DUP2 DUP2 SUB PUSH0 DUP4 ADD MSTORE PUSH2 0x1904 DUP2 PUSH2 0x18CB JUMP JUMPDEST SWAP1 POP SWAP2 SWAP1 POP JUMP JUMPDEST PUSH32 0x496E76616C696420726563697069656E74206164647265737300000000000000 PUSH0 DUP3 ADD MSTORE POP JUMP JUMPDEST PUSH0 PUSH2 0x193F PUSH1 0x19 DUP4 PUSH2 0x173C JUMP JUMPDEST SWAP2 POP PUSH2 0x194A DUP3 PUSH2 0x190B JUMP JUMPDEST PUSH1 0x20 DUP3 ADD SWAP1 POP SWAP2 SWAP1 POP JUMP JUMPDEST PUSH0 PUSH1 0x20 DUP3 ADD SWAP1 POP DUP2 DUP2 SUB PUSH0 DUP4 ADD MSTORE PUSH2 0x196C DUP2 PUSH2 0x1933 JUMP JUMPDEST SWAP1 POP SWAP2 SWAP1 POP JUMP JUMPDEST PUSH32 0x4E6F7420616C6C6F77656420746F207370656E64207468697320616D6F756E74 PUSH0 DUP3 ADD MSTORE POP JUMP JUMPDEST PUSH0 PUSH2 0x19A7 PUSH1 0x20 DUP4 PUSH2 0x173C JUMP JUMPDEST SWAP2 POP PUSH2 0x19B2 DUP3 PUSH2 0x1973 JUMP JUMPDEST PUSH1 0x20 DUP3 ADD SWAP1 POP SWAP2 SWAP1 POP JUMP JUMPDEST PUSH0 PUSH1 0x20 DUP3 ADD SWAP1 POP DUP2 DUP2 SUB PUSH0 DUP4 ADD MSTORE PUSH2 0x19D4 DUP2 PUSH2 0x199B JUMP JUMPDEST SWAP1 POP SWAP2 SWAP1 POP JUMP JUMPDEST PUSH32 0x496E73756666696369656E742062616C616E6365000000000000000000000000 PUSH0 DUP3 ADD MSTORE POP JUMP JUMPDEST PUSH0 PUSH2 0x1A0F PUSH1 0x14 DUP4 PUSH2 0x173C JUMP JUMPDEST SWAP2 POP PUSH2 0x1A1A DUP3 PUSH2 0x19DB JUMP JUMPDEST PUSH1 0x20 DUP3 ADD SWAP1 POP SWAP2 SWAP1 POP JUMP JUMPDEST PUSH0 PUSH1 0x20 DUP3 ADD SWAP1 POP DUP2 DUP2 SUB PUSH0 DUP4 ADD MSTORE PUSH2 0x1A3C DUP2 PUSH2 0x1A03 JUMP JUMPDEST SWAP1 POP SWAP2 SWAP1 POP JUMP JUMPDEST PUSH32 0x4E487B7100000000000000000000000000000000000000000000000000000000 PUSH0 MSTORE PUSH1 0x11 PUSH1 0x4 MSTORE PUSH1 0x24 PUSH0 REVERT JUMPDEST PUSH0 PUSH2 0x1A7A DUP3 PUSH2 0x1523 JUMP JUMPDEST SWAP2 POP PUSH2 0x1A85 DUP4 PUSH2 0x1523 JUMP JUMPDEST SWAP3 POP DUP3 DUP3 SUB SWAP1 POP DUP2 DUP2 GT ISZERO PUSH2 0x1A9D JUMPI PUSH2 0x1A9C PUSH2 0x1A43 JUMP JUMPDEST JUMPDEST SWAP3 SWAP2 POP POP JUMP JUMPDEST PUSH0 PUSH2 0x1AAD DUP3 PUSH2 0x1523 JUMP JUMPDEST SWAP2 POP PUSH2 0x1AB8 DUP4 PUSH2 0x1523 JUMP JUMPDEST SWAP3 POP DUP3 DUP3 ADD SWAP1 POP DUP1 DUP3 GT ISZERO PUSH2 0x1AD0 JUMPI PUSH2 0x1ACF PUSH2 0x1A43 JUMP JUMPDEST JUMPDEST SWAP3 SWAP2 POP POP JUMP JUMPDEST PUSH0 PUSH1 0x60 DUP3 ADD SWAP1 POP PUSH2 0x1AE9 PUSH0 DUP4 ADD DUP7 PUSH2 0x1675 JUMP JUMPDEST PUSH2 0x1AF6 PUSH1 0x20 DUP4 ADD DUP6 PUSH2 0x1675 JUMP JUMPDEST PUSH2 0x1B03 PUSH1 0x40 DUP4 ADD DUP5 PUSH2 0x1594 JUMP JUMPDEST SWAP5 SWAP4 POP POP POP POP JUMP JUMPDEST PUSH32 0x5472616E73666572206661696C65640000000000000000000000000000000000 PUSH0 DUP3 ADD MSTORE POP JUMP JUMPDEST PUSH0 PUSH2 0x1B3F PUSH1 0xF DUP4 PUSH2 0x173C JUMP JUMPDEST SWAP2 POP PUSH2 0x1B4A DUP3 PUSH2 0x1B0B JUMP JUMPDEST PUSH1 0x20 DUP3 ADD SWAP1 POP SWAP2 SWAP1 POP JUMP JUMPDEST PUSH0 PUSH1 0x20 DUP3 ADD SWAP1 POP DUP2 DUP2 SUB PUSH0 DUP4 ADD MSTORE PUSH2 0x1B6C DUP2 PUSH2 0x1B33 JUMP JUMPDEST SWAP1 POP SWAP2 SWAP1 POP JUMP JUMPDEST PUSH0 PUSH2 0x1B7D DUP3 PUSH2 0x1523 JUMP JUMPDEST SWAP2 POP PUSH2 0x1B88 DUP4 PUSH2 0x1523 JUMP JUMPDEST SWAP3 POP DUP3 DUP3 MUL PUSH2 0x1B96 DUP2 PUSH2 0x1523 JUMP JUMPDEST SWAP2 POP DUP3 DUP3 DIV DUP5 EQ DUP4 ISZERO OR PUSH2 0x1BAD JUMPI PUSH2 0x1BAC PUSH2 0x1A43 JUMP JUMPDEST JUMPDEST POP SWAP3 SWAP2 POP POP JUMP JUMPDEST PUSH32 0x4E487B7100000000000000000000000000000000000000000000000000000000 PUSH0 MSTORE PUSH1 0x12 PUSH1 0x4 MSTORE PUSH1 0x24 PUSH0 REVERT JUMPDEST PUSH0 PUSH2 0x1BEB DUP3 PUSH2 0x1523 JUMP JUMPDEST SWAP2 POP PUSH2 0x1BF6 DUP4 PUSH2 0x1523 JUMP JUMPDEST SWAP3 POP DUP3 PUSH2 0x1C06 JUMPI PUSH2 0x1C05 PUSH2 0x1BB4 JUMP JUMPDEST JUMPDEST DUP3 DUP3 DIV SWAP1 POP SWAP3 SWAP2 POP POP JUMP JUMPDEST PUSH0 DUP2 MLOAD SWAP1 POP PUSH2 0x1C1F DUP2 PUSH2 0x152C JUMP JUMPDEST SWAP3 SWAP2 POP POP JUMP JUMPDEST PUSH0 PUSH1 0x20 DUP3 DUP5 SUB SLT ISZERO PUSH2 0x1C3A JUMPI PUSH2 0x1C39 PUSH2 0x14C5 JUMP JUMPDEST JUMPDEST PUSH0 PUSH2 0x1C47 DUP5 DUP3 DUP6 ADD PUSH2 0x1C11 JUMP JUMPDEST SWAP2 POP POP SWAP3 SWAP2 POP POP JUMP JUMPDEST PUSH32 0x496E73756666696369656E7420636F6E74726163742062616C616E6365000000 PUSH0 DUP3 ADD MSTORE POP JUMP JUMPDEST PUSH0 PUSH2 0x1C84 PUSH1 0x1D DUP4 PUSH2 0x173C JUMP JUMPDEST SWAP2 POP PUSH2 0x1C8F DUP3 PUSH2 0x1C50 JUMP JUMPDEST PUSH1 0x20 DUP3 ADD SWAP1 POP SWAP2 SWAP1 POP JUMP JUMPDEST PUSH0 PUSH1 0x20 DUP3 ADD SWAP1 POP DUP2 DUP2 SUB PUSH0 DUP4 ADD MSTORE PUSH2 0x1CB1 DUP2 PUSH2 0x1C78 JUMP JUMPDEST SWAP1 POP SWAP2 SWAP1 POP JUMP JUMPDEST PUSH32 0x466565207472616E73666572206661696C656400000000000000000000000000 PUSH0 DUP3 ADD MSTORE POP JUMP JUMPDEST PUSH0 PUSH2 0x1CEC PUSH1 0x13 DUP4 PUSH2 0x173C JUMP JUMPDEST SWAP2 POP PUSH2 0x1CF7 DUP3 PUSH2 0x1CB8 JUMP JUMPDEST PUSH1 0x20 DUP3 ADD SWAP1 POP SWAP2 SWAP1 POP JUMP JUMPDEST PUSH0 PUSH1 0x20 DUP3 ADD SWAP1 POP DUP2 DUP2 SUB PUSH0 DUP4 ADD MSTORE PUSH2 0x1D19 DUP2 PUSH2 0x1CE0 JUMP JUMPDEST SWAP1 POP SWAP2 SWAP1 POP JUMP JUMPDEST PUSH0 PUSH1 0x40 DUP3 ADD SWAP1 POP PUSH2 0x1D33 PUSH0 DUP4 ADD DUP6 PUSH2 0x1594 JUMP JUMPDEST PUSH2 0x1D40 PUSH1 0x20 DUP4 ADD DUP5 PUSH2 0x1594 JUMP JUMPDEST SWAP4 SWAP3 POP POP POP JUMP INVALID LOG2 PUSH5 0x6970667358 0x22 SLT KECCAK256 NUMBER PUSH0 EQ CALLER SWAP15 STOP PUSH19 0x339650493843174A26E140F703F87EA746CB2E CALLDATALOAD 0xCA 0xD2 0xB2 0x4C SAR PUSH5 0x736F6C6343 STOP ADDMOD AND STOP CALLER "
				},
				"gasEstimates": {
					"creation": {
						"codeDepositCost": "1509800",
						"executionCost": "infinite",
						"totalCost": "infinite"
					},
					"external": {
						"allowance(address,address)": "infinite",
						"allowed(address,address)": "infinite",
						"approve(address,uint256)": "infinite",
						"balances(address)": "2825",
						"deposit(uint256)": "infinite",
						"feePercentage()": "2448",
						"getBalance()": "2565",
						"owner()": "2604",
						"renounceOwnership()": "infinite",
						"setFeePercentage(uint256)": "infinite",
						"token()": "infinite",
						"transfer(address,uint256)": "infinite",
						"transferFrom(address,address,uint256)": "infinite",
						"transferOwnership(address)": "infinite",
						"withdraw(address,uint256)": "infinite"
					}
				},
				"methodIdentifiers": {
					"allowance(address,address)": "dd62ed3e",
					"allowed(address,address)": "5c658165",
					"approve(address,uint256)": "095ea7b3",
					"balances(address)": "27e235e3",
					"deposit(uint256)": "b6b55f25",
					"feePercentage()": "a001ecdd",
					"getBalance()": "12065fe0",
					"owner()": "8da5cb5b",
					"renounceOwnership()": "715018a6",
					"setFeePercentage(uint256)": "ae06c1b7",
					"token()": "fc0c546a",
					"transfer(address,uint256)": "a9059cbb",
					"transferFrom(address,address,uint256)": "23b872dd",
					"transferOwnership(address)": "f2fde38b",
					"withdraw(address,uint256)": "f3fef3a3"
				}
			},
			"storageLayout": {
				"storage": [
					{
						"astId": 8,
						"contract": "contracts/wallet.sol:Wallet",
						"label": "_owner",
						"offset": 0,
						"slot": "0",
						"type": "t_address"
					},
					{
						"astId": 265,
						"contract": "contracts/wallet.sol:Wallet",
						"label": "balances",
						"offset": 0,
						"slot": "1",
						"type": "t_mapping(t_address,t_uint256)"
					},
					{
						"astId": 271,
						"contract": "contracts/wallet.sol:Wallet",
						"label": "allowed",
						"offset": 0,
						"slot": "2",
						"type": "t_mapping(t_address,t_mapping(t_address,t_uint256))"
					},
					{
						"astId": 273,
						"contract": "contracts/wallet.sol:Wallet",
						"label": "feePercentage",
						"offset": 0,
						"slot": "3",
						"type": "t_uint256"
					},
					{
						"astId": 276,
						"contract": "contracts/wallet.sol:Wallet",
						"label": "token",
						"offset": 0,
						"slot": "4",
						"type": "t_contract(IERC20)225"
					}
				],
				"types": {
					"t_address": {
						"encoding": "inplace",
						"label": "address",
						"numberOfBytes": "20"
					},
					"t_contract(IERC20)225": {
						"encoding": "inplace",
						"label": "contract IERC20",
						"numberOfBytes": "20"
					},
					"t_mapping(t_address,t_mapping(t_address,t_uint256))": {
						"encoding": "mapping",
						"key": "t_address",
						"label": "mapping(address => mapping(address => uint256))",
						"numberOfBytes": "32",
						"value": "t_mapping(t_address,t_uint256)"
					},
					"t_mapping(t_address,t_uint256)": {
						"encoding": "mapping",
						"key": "t_address",
						"label": "mapping(address => uint256)",
						"numberOfBytes": "32",
						"value": "t_uint256"
					},
					"t_uint256": {
						"encoding": "inplace",
						"label": "uint256",
						"numberOfBytes": "32"
					}
				}
			},
			"userdoc": {
				"kind": "user",
				"methods": {},
				"version": 1
			}
		}
	}
}